:020000040003F7
:10A800005046002049A9030063A9030065A903007D
:10A810000000000000000000000000000000000038
:10A8200000000000000000000000000067A9030015
:10A83000000000000000000069A903006BA90300EC
:10A840006DA903006DA9030099AD03006DA9030074
:10A850006DA90300000000006DA903006DA90300AD
:10A860006DA903006DA903006DA903006DA9030084
:10A870006DA903006DA903006DA903006DA9030074
:10A880006DA90300B1AC03006DA903006DA903001D
:10A89000D1AC03006DA90300D9AC03006DA903007E
:10A8A0006DA903006DA90300000000000000000076
:10A8B0000000000000000000000000000000000098
:10A8C0000348854600F0CEF80048004775DC0300D9
:10A8D00050460020401E00BF00BF00BF00BF00BFA9
:10A8E00000BF00BF00BF00BF00BF00BF00BFF1D16D
:10A8F00070470000056885F308884068FF2464B24B
:10A90000EFF30585002D01D1A646004725460646F2
:10A9100021273FBAF0B40024002500260027F0B418
:10A92000F92040B200470000401E00BF00BF00BF3A
:10A9300000BF00BF00BF00BF00BF00BF00BF00BF1F
:10A9400000BFF1D1704700000321094802680A43A3
:10A950000260084802680A430260074880470748C7
:10A960000047FEE7FEE7FEE7FEE7FEE7FEE7000042
:10A970002405004054050040F9AC0300C1A80300C1
:10A9800030B50B46014600202022012409E00D4687
:10A99000D5409D4205D31D469540491B254695400F
:10A9A00040191546521E002DF1DC30BD70B5002453
:10A9B0002546002801DA01244042002901DA012558
:10A9C0004942FFF7DDFFAC4200D04042002C00D0EE
:10A9D000494270BD10B5202A04DB0146203A91405F
:10A9E000002010BD914020239C1A0346E3401943E8
:10A9F000904010BD03460B439B0703D009E008C9F4
:10AA0000121F08C0042AFAD203E00B780370401C1E
:10AA1000491C521EF9D27047D2B201E00270401CAC
:10AA2000491EFBD270470022F6E710B513460A46CE
:10AA300004461946FFF7F0FF204610BD421C01787E
:10AA4000401C0029FBD1801A704730B50446002015
:10AA5000034600E05B1C934203D2E05CCD5C401BEC
:10AA6000F8D030BD064C0125064E05E0E36807CC62
:10AA70002B430C3C98471034B442F7D3FFF724FF24
:10AA8000F4F4030014F5030030B58C180278401C70
:10AA900013071B0F01D10378401C120906D102785D
:10AAA000401C03E005780D70401C491C5B1EF9D169
:10AAB00001E00B70491C521EFBD1A142E6D30020DD
:10AAC00030BD00000748002101700848064A0260B6
:10AAD0008160C16001610822416142608161084674
:10AAE000704700007C280020A8370020C8380020CC
:10AAF000F0B5194A0646916800292AD057691020F6
:10AB0000791A4907490F14680B4624254D436519E6
:10AB1000B54206D1012495698C40654000209561BD
:10AB200004E0491C4907490F8F42EED1491C4E07EA
:10AB3000760F956901210C469C4025420AD1936805
:10AB4000002B07D05B1E936053685B1C5360334639
:10AB5000F1E70420F0BD0000C8380020054A242396
:10AB6000117C1268491E4907490F59432031505042
:10AB700000207047C838002070B500281AD000297E
:10AB800018D00E4AD368002B16D05B1ED360936892
:10AB900024265B1C9360536915681C467343EE18AA
:10ABA00020330660E858641C08606007400F50615D
:10ABB000002070BD0E2070BD042070BDC83800207C
:10ABC00010B500291DD000220A60114A5368002BDD
:10ABD0001BD0202817D85B1E5360D0682423401C4C
:10ABE000D060106914684343E3180B60012383406D
:10ABF0009169401C19434007400F9161106100208A
:10AC000010BD0E2010BD0C2010BD042010BD000092
:10AC1000C8380020C106C90E0120884001490860DB
:10AC20007047000080E200E08307FF22DB0E9A40BD
:10AC30008907090E994000280BDA0007000F083831
:10AC4000830808489B001818C36993430B43C361EA
:10AC50007047830804489B001B18186890430843FA
:10AC60001860704700ED00E000E400E08307FF2279
:10AC7000DB0E9A408907090E994000280BDA00077D
:10AC8000000F0838830808489B001818C3699343CD
:10AC90000B43C3617047830804489B001B18186866
:10ACA000904308431860704700ED00E000E400E0C6
:10ACB00010B506490020086048608860C8600349F4
:10ACC00040390860486004F03FFA10BD401101406F
:10ACD00010B504F0CFF910BD10B506484068002843
:10ACE00005D08047002801D000F0C4FA10BD02F062
:10ACF00033FE10BD5829002010B502F083FE002855
:10AD000005D01F491D484860C8131E4988611E4868
:10AD1000018CC9B201290BD1828C120708D1028D96
:10AD20001206120F042A03D1828D1206120F0AD0C6
:10AD3000012921D1818C09071ED1018D0906090F36
:10AD40000A2904D007E0114A01219160F5E7828DBC
:10AD50001206120F05D00D290ED1808D0006000FAE
:10AD60000AD10B480168012904D00A490160016831
:10AD70000129FCD1C021416110BD0000DFFF07C0E7
:10AD800000050040006C0040C00F00F000060040CD
:10AD900000EC06407593000070B50B4CA0680025D0
:10ADA000012808D10948416809480029806901D073
:10ADB000C0B28847A560606A012800D165620220A0
:10ADC000FFF728FF70BD000000210040842800200C
:10ADD0000025004030B47446641E2578641CAB42E4
:10ADE00000D21D46635D5B00E31830BC184702E0EB
:10ADF00008C8121F08C1002AFAD170477047002006
:10AE000001E001C1121F002AFBD1704700B587B0D5
:10AE10000620694608710598009001A80FC800F047
:10AE20003FFF07B000BD70B50446C068002802DCD3
:10AE30000020C04370BDA1686068455C2168A068BF
:10AE4000401CFFF7B3FDA160E068401EE0602846AB
:10AE500070BD70B50446C0680D462168884201DBAC
:10AE6000002070BDA068E16840182168FFF79EFDD2
:10AE700060684554E068401CE060012070BDF7B593
:10AE800084B00025168807461580406B14460028BC
:10AE900013D003780598032E51D302210170218825
:10AEA0001122491C89B2218042542188491C89B24F
:10AEB000218043542088401C2080386B00281DD0FE
:10AEC00005462088059902461232B24237D811222F
:10AED0000A5420881022401C80B220800A54208806
:10AEE000401C20800F202A5C2388401ECA542288E0
:10AEF00040B2521C22800028F5DA00253846203066
:10AF00000290807B002806D033462246059902F045
:10AF10009DFD050014D10298407B002806D03246E2
:10AF20002146059800F0F0FB050009D1B87800280B
:10AF300023D0059886462088001DB04202D90C20F7
:10AF400007B0F0BD684679DF0028F9D121880320D9
:10AF50007246505420881921401C80B22080115420
:10AF600020887146401C80B22080411868460088C5
:10AF700004F052F9218840182080F878002817D072
:10AF8000218803230A46FB56C91C0598B142D6D82E
:10AF90000221815421880122491C89B22180425416
:10AFA0002188491C89B2218043542088401C20807C
:10AFB0007868002817D021880023C3560A46C91C88
:10AFC0000598B142BBD80221815421880A22491C2C
:10AFD00089B2218042542188491C89B2218043547E
:10AFE0002088401C2080388900280AD000943846E8
:10AFF0000196062202210830059B04F082F9050023
:10B000009ED1388A00280AD000943846019607223B
:10B0100003211030059B04F074F9050090D1388BA2
:10B0200000280AD0009438460196152214211830C1
:10B03000059B04F066F9050082D1386A002806D025
:10B0400033462246059901F07FFA0500D8D1786A87
:10B05000002806D033462246059902F091FE0500ED
:10B06000CED10298007B002807D0334622463846CE
:10B07000059903F0E7FD0500C2D13878002807D014
:10B08000334622463846059902F0AEFE0500B7D198
:10B09000284655E730B516488FB00179684681706B
:10B0A000144901800625382101A8FFF7BCFC0221C4
:10B0B0006846017100248471C57101218181049069
:10B0C000214601A800F072FA002801D000F0D2F861
:10B0D000074818211838FFF7A6FC0548FF21183843
:10B0E0000470446004729131018244820FB030BD1B
:10B0F000383300203090000010B5064CA0780028AE
:10B1000007D1054873DF002801D000F0B3F8012013
:10B11000A07010BD342800202033002005E0037803
:10B12000401C8B4201D000207047521EF7D20120F4
:10B1300070470000F0B5054608790E4685B08107D6
:10B1400001D0032239E02D490090FFF739FD0100BD
:10B1500011D12A4CB168103C009A2069FFF74AFCD3
:10B160000098FFF7FBFC010005D169462348FFF773
:10B1700003FD010004D0284601F0A0FD05B0F0BD9C
:10B18000032001900098800802902069039001A894
:10B1900001F052FD07000BD0092F17D02069FFF7EF
:10B1A000A7FC010002D0284601F088FD3946E2E7FD
:10B1B0003079E16840180122E0600321284600F060
:10B1C00099FB0028DAD000F055F8D7E73079E1682C
:10B1D0004118E16060780028D0D06089401E0004EA
:10B1E000000C6081CAD1284600F050FB002801D035
:10B1F00000F040F820896081C0E70000442800206A
:10B200001FB58178891ECCB2A10701D003211DE0B2
:10B2100003210091001DA10802900191684601F0F0
:10B220000BFD039001000B4807D009290AD0C9B2D1
:10B23000032002F05BFE014608E081680919816085
:10B24000012103E08168091981600721032003F0CF
:10B25000CFFA1FBD58280020BFF34F8F0449034881
:10B26000C860BFF34F8F00BFFDE700000400FA0580
:10B2700000ED00E00EB50021029000916A460191B8
:10B280000148FFF7E9FF0EBD0140000070B50F4B0C
:10B2900005241D785E78AE4215D01D781C789E88F6
:10B2A000B44201DA641C00E000241C705C88DE6893
:10B2B0006C43A41904609B68E800C418A4880C803F
:10B2C000185800241060204670BD0000C8280020D7
:10B2D000F7B5244C82B060880E4681423FD80025E5
:10B2E0006846214F057000F02DF922786078A1881A
:10B2F000884201DA401C00E00020C0B2904204D134
:10B300006846007800F03CF927E06578607888426C
:10B3100001DA401C00E0002060706846007800F010
:10B320002FF9BD4219D0A068EF000499C1510299CC
:10B3300000290CD0002E0AD0608832464543E068D0
:10B340002818FFF757FBA0683818868002E0002114
:10B3500038188180002005B0F0BD0420FBE70920EB
:10B36000F9E70000C8280020FFFF00000EB504E048
:10B3700068468188029A0098904702AA01A9684607
:10B38000FFF784FF0028F3D00EBD000030B5CB00DE
:10B3900008339DB293070024002B01D0072030BD55
:10B3A000044B9A605219DA605C701C705880998066
:10B3B000002030BDC8280020094B9B68002B07D017
:10B3C000002A07D0002805D00068037C002B03D09A
:10B3D0000820704707207047417442610020704781
:10B3E000D8280020FFB59007002581B014460E46EE
:10B3F000002832D11B4F002C31D003F0ADFB049854
:10B4000078610320387033461821224600204B43D0
:10B41000BC601834C10089180D704D708E704C607E
:10B420001C19401C0328F5DBFD607D7001240E48CB
:10B43000BD702405046003211420FFF717FC0B489E
:10B4400004600B4C0198A06003211120FFF70EFC53
:10B4500060683861002005B0F0BD0720FBE7BD60E3
:10B46000FBE70000D828002080E200E000E100E0D7
:10B4700000150140FEB50D461B4917468968044674
:10B4800000292AD0002C28D0052D01D20720FEBD8E
:10B490006069002821D0607C012820D0002603F0BC
:10B4A000F3FEC0001049019089684018694603F016
:10B4B00015FF002815D0012101700C49446049682E
:10B4C0000830E2C008490198896841186846007848
:10B4D000487003F011FE0020FEBD0820FEBD2E4680
:10B4E000DDE70420FEBD0000D82800200015014043
:10B4F000F8B5134D0446A96800291CD0002C1AD0B9
:10B500006069002817D00026267403F0BDFEC7002E
:10B51000A8686946381803F0E1FE00280DD0022122
:10B5200001704460A868391868460078487003F0D4
:10B53000E3FD3046F8BD0820F8BD0420F8BD00004A
:10B54000D828002030B5EFF3108172B6094A54684C
:10B550000123002C04D00370002900D162B630BD55
:10B560005360054B1D68054C254015601C6000228A
:10B570000270F1E76C29002080E100E0FC06FFBCCE
:10B5800008494A68002A0CD000280AD1EFF310803D
:10B5900072B60A68044B1A6000224A60002800D183
:10B5A00062B670476C29002000E100E0F0B50C465F
:10B5B00093B01F216A46118007260027918000283A
:10B5C00009D0C17849070DD502A9FFF758FC00281A
:10B5D00009D102AD01E000251780002C0ED0E078E3
:10B5E000002802D0304613B0F0BD01AA0AA92046B7
:10B5F000FFF745FC0028F6D10AAA02E068460022BF
:10B60000878068468088C3B268460088C1B22846F1
:10B6100072DFE8E770B5054601461C220E48FFF7C9
:10B62000E9F90E4C002626702968002906D0082268
:10B63000201DFFF7DFF9201D7ADF02E00748001D1B
:10B640007BDF002807D1401E60806670044A00211D
:10B650000448FFF7B1FE70BD303E0020F8280020FE
:10B6600025F20300F0F40300F8B5214C028800270E
:10B670001E4DE689102A15D01E49112A21D0122A02
:10B680002DD0502A1CD1C288801DB24218D14289C7
:10B69000022A15D1427B037B10021843C007C00F5A
:10B6A0000CD112E0818869800146104808221831C7
:10B6B0000C30FFF79FF96F70002E01D100F0B8FF3A
:10B6C000F8BD0020C04368806F700868FFF710FF66
:10B6D0000028F5D0A1690029F2D08847F8BD0822DA
:10B6E000811802480C30FFF785F9E7E7F8280020B9
:10B6F000303E0020F0F4030010B502480068FFF768
:10B70000F7FE10BDF0F403007CB5054608880C4632
:10B710000930904201D90C207CBD684671DF0028B9
:10B72000FAD121880820685420881B21401C80B24F
:10B7300020802954208800A9401C80B22080401914
:10B7400006220131FFF756F920886946801D80B234
:10B7500020800978002900D0012129542088401C2C
:10B76000208000207CBD000030B585B00D4604006F
:10B7700033D0002D31D0286800282ED00020C043BF
:10B78000174B20800FCB049301AB07C315486946C4
:10B79000088001A8811E63DF00281CD1A21C694615
:10B7A0000120A0DF002816D168468078207120464D
:10B7B00001F082FB00280ED1204601F0F9F90028A3
:10B7C00009D1286820626868002800D060620649B4
:10B7D00001200870002005B030BD0E20FBE70000FE
:10B7E000E0F40300309000008D28002070B504467E
:10B7F0000D460846FFF722F92080656070BD000005
:10B80000D4255346180000000302002A000000015E
:10B81000030103004C78B0493EB5002820D0002930
:10B820001ED0026A002A1BD00A88102A19D0112AB9
:10B8300028D0502A17D0512A12D104468879891D60
:10B8400002280DD14888E289904209D12046891CFE
:10B8500002F0D2FC002803D0616A002900D088479A
:10B860003EBD898810E0CA88C3889A42F8D109226F
:10B870006B461A700A7C1A7112310291026A69468B
:10B8800090473EBD0021C94301803EBD70B588B0E0
:10B89000002827D00288154B9A4225D0144A1278E6
:10B8A000002A21D0124B11225B1C1A7059700E0A0B
:10B8B0009E700E0C090EDE70002401251971052200
:10B8C00069460A830094019402940394C2890A8011
:10B8D0008D708C8006A90291039300886946A6DFCB
:10B8E00008B070BD0E20FBE70820F9E7FFFF00005D
:10B8F0008D28002030B585B0002822D00388134C55
:10B90000A34220D0124B1B78002B1CD0104B1025CB
:10B910005B1C1D705970002401259A700322694632
:10B920000A820094019402940394C2890A808D7063
:10B930008C8004A90291039300886946A6DF05B0B4
:10B9400030BD0E20FBE70820F9E70000FFFF0000F4
:10B950008D2800207FB504460121684681714A493F
:10B9600081804A4A01A90120A0DF00287ED12288D7
:10B9700025463C35002A09D044482B46801C0090BF
:10B980004348616800F072FC00287BD12289002ABC
:10B990000AD03E482B460A3000903D48E168401FDF
:10B9A00000F064FC00286DD1228A002A0AD03748B2
:10B9B0002B461230009036486169001F00F056FC9B
:10B9C00000285FD1228B002A0AD030482B461A303B
:10B9D00000902F48E169801E00F048FC002851D1FA
:10B9E000228C002A0AD029482B4622300090284871
:10B9F000616AC01E00F03AFC002843D1228D002A63
:10BA00000AD022482B462A3000902148E16A401E85
:10BA100000F02CFC002835D1216B00290ED002A8A3
:10BA200003F000FB19482B463230009018480822DA
:10BA300002A9801F00F01AFC002823D1606B0028A7
:10BA40000BD012492B463A31009102790168104817
:10BA5000401C00F00BFC002814D1A16B002910D071
:10BA600002A802F0DBFD0948423000E00AE0009045
:10BA700007482B46072202A9273000F0F7FB0028D1
:10BA800000D1002004B070BD0A1800000C2900206D
:10BA9000292A000010B50446FFF7E6FD21460348B9
:10BAA000FFF7BAFE204602F06FFB10BD38330020CE
:10BAB00030B51F498BB00A1D3CCA059206AA38C290
:10BAC00009680991002805D005A818DF002801D0D1
:10BAD000FFF7D0FB7520C00213DF002801D0FFF76D
:10BAE000C9FB00234822134909A803F01BFA0028C8
:10BAF00001D0FFF7BFFB01216A46084603F0FAF9BF
:10BB0000002801D0FFF7B6FB01206946087368469C
:10BB100003F0E6F9002801D0FFF7ACFB064803F07C
:10BB200027FA002801D0FFF7A5FB0BB030BD0000BD
:10BB300090F40300702B00201DF00300F8B50326DD
:10BB40003603B06805684468684600F01DFA00983E
:10BB50000078012803D0002801D0FF2813D1A807BE
:10BB600011D1072040070A49281888420BD2E00764
:10BB70000AD0B068A04206D87321C902091A490840
:10BB80004018A04201D80020F8BD0120F8BD0000F7
:10BB90000100010011DF0649C020C861BFF34F8FCB
:10BBA00005490448C860BFF34F8F00BFFDE70000A0
:10BBB000000500400400FA0500ED00E008B5684605
:10BBC00000F0E2F900980178A52904D04078AA286D
:10BBD00001D0002008BD012008BD10B501F04BFACE
:10BBE000002803D100F01AFF002812D001F009FA52
:10BBF000002801D0FFF73EFB01F03DFA002801D0FC
:10BC0000FFF738FB00F0EAFE041E01D0FFF732FB1D
:10BC1000204610BD00B587B01422074901A8FEF7E1
:10BC2000E9FE0598009001A80FC800F039F803F06C
:10BC300013FC002007B000BDB8F40300F8B50746B8
:10BC40000020134C0E461546E0700146114A12487A
:10BC5000FFF7B2FB002817D1E660A56001F084F879
:10BC6000002811D10C48002239460068FFF702FC79
:10BC7000002809D1094802F069FF01F0DFFA03F05A
:10BC8000EBFBE078002801D00020F8BD0120F8BDD2
:10BC90000028002089BE0300A4F4030045BF030070
:10BCA0000FB4F8B5684600F06FF96846017E0125CB
:10BCB00002233D48FE263D4C002917D001291BD008
:10BCC00003292AD0002202293DD006294ED0FD2387
:10BCD000042956D005295DD0072930D16078002885
:10BCE0005FD001F0A5FA0520A07027E00999416016
:10BCF00005704670A37049E0089A07998918099A57
:10BD000089184160A52101704670079981600899E2
:10BD10000261C1600A9941610CE000990A780270E1
:10BD200049684160AA214170079981600899C16002
:10BD300009990161A3701C4800F08DF8E570F8BC0A
:10BD400008BC04B01847009F397801290AD000299F
:10BD500008D0FF2906D04260067046708260C2603B
:10BD60000261E7E7017079684160F6E760780028D2
:10BD700004D001F05DFA0420A070E0E701F034FA8D
:10BD8000F9E742600370009949784170064800F075
:10BD900062F8D4E700990A780270496841604370FC
:10BDA000F4E701F021FA9EE77C2D00200028002016
:10BDB00010B501F0CFFB0249012001F0DBFB10BD03
:10BDC00095D40300F0B500240321090385B025466E
:10BDD00026468F6809E0320B01200021FEF7FAFDAC
:10BDE000044301200D4300033618B742F3D87526EB
:10BDF000F60201273F03320B01200021FEF7EAFD86
:10BE0000044301200D43F61980048642F3D3094808
:10BE100045600460084B6E460FCB0FC6684618DFBE
:10BE200003242403A06813DFA06800F0A9F805B07C
:10BE3000F0BD000000060040A8F4030038B5044639
:10BE4000684600F0A1F800980021425C6254491C49
:10BE50001829FAD338BD70B57F240546E4021822AC
:10BE60002146012001F06EFB002801D0FFF702FA05
:10BE700018232A462146012001F084FB002801D026
:10BE8000FFF7F8F970BD000010B50648807800286B
:10BE900001D0012804D10021034A0846FFF718FA0F
:10BEA00010BD0000002800200DAE030010B50248B0
:10BEB000806800F015F810BD0028002010B5074C70
:10BEC000A078002806D16078002801D102F09EFDFC
:10BED0000120A070E06800F003F810BD00280020E9
:10BEE00070B505460848807804280BD0074C2068B8
:10BEF000FFF7FEFA002804D1002229462068FFF748
:10BF0000B9FA70BD082070BD00280020A4F4030019
:10BF100010B502480068FFF7EBFA10BDA4F4030067
:10BF200010B5074CA0786178084307D101F05CF99F
:10BF300001206070FFF7C2FF01F0B2F910BD0000F0
:10BF40000028002070B50C4A0025141F2178515C90
:10BF5000814200D025702178525C824201D1491C77
:10BF60002170C8B2042805D10021044A0846FFF711
:10BF7000AFF9257070BD00000428002021BF030028
:10BF800010B5FEF7B7FC10BD014901607047000015
:10BF900000F80300F0B58FB005463AE14378012B75
:10BFA00040D0022B7ED0032BF7D1CEE0A24C082646
:10BFB00020782146321A243109186B6828469847A0
:10BFC000002870DB21460978711A814206D021468B
:10BFD0000A781018087001200FB0F0BD964C0620AA
:10BFE0002434E7797B065B0EDA0F00211E0E120265
:10BFF0003243265C1B02F3184A41401E40B200281F
:10C00000F4DA380603D500205B4290410246A86A64
:10C01000C00040190361426187480170A86A401C52
:10C02000A86200E0A86A0328C0DB83482C69416944
:10C030006A69CB17641841685A41CB17091B9341B1
:10C04000BFDB0021A9620221E2E07B49CF688B6857
:10C050000021FE1A0A91321B814101DA3446002088
:10C06000F9170A463E1B0190814101DA3C460192D4
:10C07000714E22463069C1186B68284698470028DF
:10C0800011DB019AC117034663404A40134303D0B2
:10C09000012204460A920191674A002093680146F2
:10C0A000099301E049E06FE0089313690B93D369AA
:10C0B00007930693136A0D939269944615E0069BC5
:10C0C000DA171B184A410DD46646F7179E1BBA4172
:10C0D00008DA089A0D9E17180B9AF35CD25DD218F5
:10C0E0000B9BDA550022401C5141019B0A46061B5E
:10C0F0009A41E4DB099950480A198260416909199B
:10C10000416107990919C16129696B69019E091B80
:10C11000B3416B612961C068824209D102200A9053
:10C12000454CAA68E168206990470020A06002E0C1
:10C130000A98002801D00A984EE72C6968692146C0
:10C14000014382D103213C4862E00746AC69D01725
:10C15000EE69A2187041CB17891A834114DBB968C4
:10C16000F868401A0021031BB14147DA0026044653
:10C1700044E031480027016980686B68091822464D
:10C1800028469847002802DA0020C04324E7C11758
:10C1900002460B46624073401A4302D00127044610
:10C1A0000E46254881680A198260C1688A4206D114
:10C1B000AA680227006990471F49002088601E482E
:10C1C000416909194161A869E969001BB141E96147
:10C1D000A861002F01D03846FEE60A46031BB24193
:10C1E00001DA04460E461448C1688068081A002126
:10C1F0000A46031BB24101DA04460E46A969E86902
:10C200000143B6D10C482A6AC1695118C1610121A4
:10C2100041700948426941688A4200DABEE6044634
:10C22000A168002906D0AA68206990470020A06074
:10C230000220D1E60020CFE698280020014840697E
:10C24000704700009828002030B5074C039D6360BC
:10C25000A1610021E161A16061612170E56022615D
:10C2600020620120607030BD98280020FFB58FB09B
:10C270001E4615460F0002D10020FEF7FBFF002DE1
:10C2800002D10020FEF7F6FF1C216846FEF7CBFB2B
:10C290006846017802200143684601700024019439
:10C2A000039404940594012108A8069481706846BB
:10C2B0000F99018407943178017771784177807FF5
:10C2C000F9210840F721801C0840EF21084041086F
:10C2D000490068468177142109A8FEF7A4FB08A845
:10C2E000099007A80A9068468585C4850586044894
:10C2F0000D9709AA69460088189BA2DF13B0F0BD0C
:10C300000C290020F8B514461C43069EA40701D052
:10C310001020F8BD0D4C2578102D01D30420F8BD58
:10C3200067787D192D072D0F14277D432D1928714E
:10C3300069710020686108354CC52078411C217066
:10C34000002801D100F004F80020F8BD6436002078
:10C3500070B518480178002918D04178142251434B
:10C360000C186079241D022811D004280ED12169EF
:10C370006068012540182D072969FEF701FB28DFB9
:10C38000112803D0206929694018206170BDE16837
:10C3900020690D1A012189028D4200DD0D46A16838
:10C3A000626809181018AA0829DF1128EED0206940
:10C3B0004019EAE764360020F8B52348C16800292F
:10C3C0003ED00E6821494C680769C078E11B0D0218
:10C3D0002D0AED1C002814D101201D4A00045060D4
:10C3E0001B4A403A50601B49400008601A490860E7
:10C3F0001A49012008602F20FEF76CFA124901202B
:10C40000C870B54200D23546E81900020F4B000A49
:10C41000403318600D4A5168001B091B0902090AC4
:10C420000002000AC91C814209D9506818602F20F7
:10C43000FEF750FA01200749400480390860F8BD32
:10C4400002F08AFBF8BD0000D8280020001501404A
:10C450004013014080E200E000E100E000100140F4
:10C46000F8B502F0BDFF00281ED10A220021344891
:10C47000FEF754FE002816D00120324E8202B07022
:10C480002F48FF218902FE30FEF7B4FA2C4C1F25FD
:10C49000FE346D016019102200210746FEF73EFEB2
:10C4A000002809D101E00B20F8BD1022FF213846F9
:10C4B000FEF734FE002804D0012189022046FEF751
:10C4C000B2FA1F48102200211638FEF727FE002876
:10C4D0000DD11B4B07208E3B19467831C0019A6F56
:10C4E0008F682018DB6FC968C16660308CC0144843
:10C4F00006220021801FFEF711FE00280CD11049F2
:10C50000523905220B18171A40333F197F191B7B2C
:10C51000401C3B740628F5DB0125FF27AD02BF0256
:10C520002A463946002001F00DF82B4622463946AE
:10C53000002001F027F8032030700020F8BD000033
:10C54000222E002010280020F8B506461088144638
:10C550008446801D0D46984201D90C20F8BD3288D2
:10C560000720062AFAD31927FF01184BBA4201D92E
:10C570009A42F3D171880629F0D3B94201D9994280
:10C58000ECD19A4203D0994201D08A42E6D80521E3
:10C590006046295420881221401C80B220802954F2
:10C5A0002088401C80B220804119308802F034FE7F
:10C5B0002188401880B220804119708802F02CFE3A
:10C5C0002188401820800020F8BD0000FFFF0000F7
:10C5D00010B5FEF74FFE10BD30B5FF20114C87B0EF
:10C5E0009130E0800920608020800025A5801C21FA
:10C5F0006846FEF718FA0C4801900120800302906B
:10C600000094032168460173C581057407480690AC
:10C6100005956846FEF7FEFF002801D0FEF72AFECA
:10C6200007B030BD4E280020CD0C0000D1C503005E
:10C63000F8B5164801F0D8F9144D00260C3D144CFD
:10C64000002807D0616900291CD001206A461070BB
:10C65000684616E02878002805D06169002911D0C5
:10C66000684606700DE0687800280DD0A16809487A
:10C6700000220068FEF7FEFE002803D0A169002911
:10C6800000D088472E70F8BD6168F0E704290020CB
:10C69000303E0020F0F4030070B500235A1E094E0E
:10C6A0000BE0C45C62400724D507ED0F6D425208D1
:10C6B00035406A40641EF7D55B1C8B42F1D3D043F2
:10C6C00070BD00002083B8ED10B500F003F810BD78
:10C6D00000207047F8B5074658681C46401E1546AE
:10C6E0000E46102807D2A168002904DB204624301A
:10C6F0000090102935DD1020F8BDA16860688142E6
:10C7000001D0084623E0E16800290DD1002007E0B0
:10C7100021180A7D521C1206120E0A750FD1401CF8
:10C7200021698142F4DC0AE02169401E814206DC75
:10C7300021180A7D521C1206120E0A75F4D02046EA
:10C740001430009901F074FA0028D5D1A060421C81
:10C750000099A260405C39786D1E48403070761CAC
:10C760007F1C002DC9D10020F8BDFFB581B00B9D05
:10C770000C9C28060E46000E01D0E8B200E0102006
:10C780002061102802DD102005B0F0BDE90410275B
:10C79000002901DA381A2061104601F061FA676059
:10C7A000019820600020A060012000032840E06084
:10C7B0000020315C221811756168401C8142F8DC50
:10C7C000A8041BD5E068002809D0481E13E02218F1
:10C7D000117D491C0906090E11750FD1401C2169F4
:10C7E0008142F4DC0AE02218117D491C0906090E79
:10C7F000117503D1401E21698142F4DD2146204696
:10C800002431143001F014FABEE70000024610B5DE
:10C810000B461146034800F069FD002800D00820AF
:10C8200010BD0000382E002010B58AB008A802F014
:10C830004DF8244C002811D00C23234A0393D01820
:10C8400010216B4607C30B4600218830089A00F080
:10C8500092FD002811D006200AB010BD00206070A3
:10C8600020216846FEF7DFF81748202269460C3081
:10C87000FEF7EBF8002823D10FE0032000038068C7
:10C88000A169884206D16846FFF7D8FA6846007861
:10C89000FD2815D10120607002E0607800280BD0DF
:10C8A00020216846FEF7BFF80748202269460C3071
:10C8B000FEF7CBF8002803D0082020700020CBE73B
:10C8C0000820C9E710280020A42D002008B510205A
:10C8D00000900F484078002818D00E496A46084654
:10C8E000A43000F016FD00280FD1009810280CD1BC
:10C8F000084910222C31074802F066FC002804D1B8
:10C90000FF2080020068002800D00B2008BD000036
:10C9100010280020942D002030B5134C03252D0342
:10C9200087B0A2680020A96800F00CFE002801D0A2
:10C93000FEF7A0FC7320A968C002401A40080A183C
:10C940000020A36800F01EFE050009D169460871A9
:10C95000A06804900598009001A80FC8FFF7A0F9FF
:10C96000284607B030BD0000A42D002000B587B0D8
:10C9700003206946087109480168029141680391E2
:10C9800080680490059800900A46049B02990198DB
:10C99000FFF786F9002007B000BD0000A42D00209D
:10C9A00000B587B001206946087103200003806844
:10C9B00005900948016802914168039180680490DC
:10C9C000059800900A46049B02990198FFF768F9C0
:10C9D000002007B000BD0000A42D002000B58BB0E2
:10C9E00004A8FFF72BFA079800280DD00698002816
:10C9F0000CD00699099840180190002107980091E1
:10CA000080080290684618DF0BB000BD03200003C9
:10CA100080687321C902091A4908ECE700B58BB098
:10CA200004A8FFF70BFA0798002810D006980028F2
:10CA30000FD00699099840180321009175210290A2
:10CA4000C9020798019180080390684618DF0BB06F
:10CA500000BD0320000380687321C902091A490838
:10CA6000E9E7000010B50B460146022823D01D4817
:10CA700003290FD0052925D0072917D1002B28D04D
:10CA80000B21184601F00EFA02460B211648FEF75C
:10CA900031FF07E0002B0AD0C0881449884205D036
:10CAA000132176DF002801D0FEF7E4FB10BD10460D
:10CAB000FEF71EF8F6E70121184601F0F3F90246E9
:10CAC0000121E3E70921184601F0ECF902460921AA
:10CAD000DCE7C0780028E9D10021034801F092FC8E
:10CAE00010BD00003428002038330020FFFF000074
:10CAF00010B50A46022810D003280DD005280BD007
:10CB0000072809D1002A0FD00B21104601F0EEF9B9
:10CB100001460B2001F06CFE10BD0121104601F012
:10CB2000E5F901460120F5E7034800780028F3D134
:10CB300001F09EFC10BD0000582800201FB5032303
:10CB400001909008039000930291684618DF04B0AA
:10CB500010BD000010B504460D480178012903D02E
:10CB6000022905D0082010BD002101810221017099
:10CB7000FFF79CF90028F6D1054B5C2208330549E4
:10CB8000204600F00FFA0028EDD1FFF769FC10BD38
:10CB900010280020D02D00201FB5012301909008FF
:10CBA000039000930291684618DF04B010BD0000A6
:10CBB00030B58FB005461C216846FDF734FF694645
:10CBC00008780821084310221043694608700024A1
:10CBD00001940394049405940694287908A9887014
:10CBE000144869460884601C00070794000F0C77FE
:10CBF00010304877887FF9210840F721801C0840D1
:10CC000010430121084369468877142109A8FDF7DC
:10CC10000AFF08A8099007A80A9069468C85172082
:10CC2000CC8508860D942B4668880E3309AAA2DFAE
:10CC30000FB030BD3290000070B5060004D0307ADD
:10CC4000800703D0102070BD0E2070BD1A4C2078D4
:10CC5000082803D0092803D0082070BD09202070BF
:10CC6000706821698500E0684019884204D9002075
:10CC7000C043E0600C2070BDFFF718F90028FAD11E
:10CC80006078B668002805D029463046FFF7BEFD1B
:10CC90000028F0D1E168A0692B46411832460020F7
:10CCA00000F070FC0028E6D1E1684919E1602269D2
:10CCB0009142E0D0092070BD1028002010B50A462E
:10CCC00004460321104601F0EDF8024603212046F8
:10CCD000FEF710FE002801D0FEF7CCFA10BD0000D0
:10CCE00010B5064800780C2801D0082010BDFFF7C9
:10CCF0000FF902481C304068804710BD1028002002
:10CD000070B5174C00252078092802D00A2806D1D2
:10CD100001250B2020702169E068884201D008209D
:10CD200070BDFFF7C3F80028FAD1FFF7CFFD002848
:10CD300010D1002D10D00320000380687321C90298
:10CD4000091A490840182169FFF7A6FC05494968F6
:10CD5000814201D00B2070BD0C202070002070BDDE
:10CD6000102800202C2E002030B58DB0184900204E
:10CD700000F000FC06A8FFF761F86846427E032039
:10CD800073210025134C0003C902FD2A05D18268D6
:10CD90008B1A5B08D258521C14D08068091A4A08B2
:10CDA0008118002000F0CEFB002802D025700DB0C5
:10CDB00030BD0520694608710598009001A80FC88C
:10CDC000FEF76EFFE560E570012020700020EEE7C1
:10CDD000B5D403001028002010B504460F48017890
:10CDE000062902D0072907D103E00021C1800721CD
:10CDF0000170C068002801D0082010BDFFF756F868
:10CE00000028FAD1054B20229B1D0549204600F041
:10CE1000C9F80028F1D1FFF707FD10BD1028002048
:10CE2000B02D002070B5104C054620780E460A281B
:10CE300001D0082070BDFFF739F80028FAD1002D85
:10CE40000ED06078002805D031462846FFF7DEFC7A
:10CE50000028EFD13146284601F07EFB0128E9D0B9
:10CE600001F0C4FB70BD00001028002010B504467E
:10CE70000F480178082902D00D2907D103E00021CD
:10CE800041810D210170C068002801D0082010BD2B
:10CE9000FFF70CF80028FAD1054B0C220A3305499C
:10CEA000204600F07FF80028F1D101F00FFB10BD03
:10CEB000102800202C2E002030B58FB005461C21F4
:10CEC0006846FDF7B0FD694608780C2108436946BD
:10CED000087000240194039404940594069428791E
:10CEE00008A98870144869460884601C00070794E4
:10CEF000000F0C77103048778A7FF9200240F72026
:10CF0000921C0240EF200240012002438A77142144
:10CF100009A8FDF788FD08A8099007A80A906946A6
:10CF20008C851420CC8508860D946888AB1D09AAD1
:10CF3000A2DF0FB030BD00003190000010B503201B
:10CF4000000380687321C902091A49080A4C86B097
:10CF50004018A06106202070E078002802D06846C2
:10CF6000FEF76CFF6369002B03D0002211460220FC
:10CF7000984706B010BD00001028002010B503200F
:10CF80000003816806480522816102700269002061
:10CF900000F0D8FA002801D0FEF76CF910BD0000AF
:10CFA0001028002070B5164642681D4694001A8865
:10CFB0001319B34201DD0C2070BD8368501822465E
:10CFC0001946FDF717FD2888001980B22880B04265
:10CFD00001D0092070BD002070BD000001494861EA
:10CFE000704700001028002000B587B00720694670
:10CFF00008710598009001A80FC8FEF751FE07B010
:10D0000000BDF0B587B06846FEF718FF029800280B
:10D010002AD001210903059A4018904226D9501AB6
:10D0200045081046029A0C468718024668001618F2
:10D0300000190690032000038068029988420DD2EF
:10D04000611908460422FFF7A7FD00280CD12146EC
:10D0500004220846FFF7A0FD002805D1BA1B2B4685
:10D060003046069900F033F807B0F0BD029A0598F3
:10D07000FFF792FDF8E730B58FB06846FEF7DEFEA9
:10D080000298002814D001210903059A4018904203
:10D0900014D9501A43081046029A5C0082180019ED
:10D0A000611803242403A468029DAC4202D20E201E
:10D0B0000FB030BD121A00F00AF8F9E703200AABEE
:10D0C00007C3029880080D900AA818DFF0E7F8B5AA
:10D0D0001C4617460D460646FFF730FD002817D0C0
:10D0E00001200003854207D92346291B301B1A461D
:10D0F000FFF7EDFF00280BD13A4629463046FFF7EF
:10D100004BFD002804D13A4629463046FFF716FD6C
:10D11000F8BD000070B52D4C05462078012803D0DD
:10D12000042805D0082070BD0020A08004202070B5
:10D13000FEF7BCFE0028F6D1244B0C221B1D24490F
:10D140002846FFF72FFF0028EDD1214881680029EC
:10D1500005D00268002A0AD14268002A07D1036874
:10D160009A0704D14268900701D1880701D00620B0
:10D1700070BD981840180521090320618A4216D80D
:10D180001249032424031C31002B09D0E523A26893
:10D190009B029A1A82420AD30E4A0A600E4A0FE094
:10D1A000A3687324E402E31A5B08834201D20C20D3
:10D1B00070BD0A4B0B60002A01D0094A00E0094A01
:10D1C0004A6009688847002070BD000010280020D0
:10D1D000A42D00207DCF0300A1C903003DCF030093
:10D1E0006DC9030019C9030010B50F4C0F49E08841
:10D1F000884206D0132176DF00280CD0FEF73AF8DB
:10D2000009E0A078002806D074DF002801D0FEF7DE
:10D2100031F80020A070FEF76FFA002801D0FEF769
:10D2200029F8002010BD000034280020FFFF000076
:10D2300010B501F0EBFB002010BD000010B5154942
:10D2400000200871144801F041FE002820D1134845
:10D25000FFF7C4FEFDF736FC002819D100F0C6F92F
:10D2600001F03CFDFDF716FFFFF7B6F90949012271
:10D270001431087810438D22104030304006400EA3
:10D2800008700720487010208870FDF735FF0020D7
:10D2900010BD00003428002095BA030065CA0300C1
:10D2A00010B501F01DFC0A4801F050FC09A001F086
:10D2B0000DFC01F04BFB01F009FC0D2001F002FC1C
:10D2C0000A2001F0FFFB0848FFF788FE002010BD90
:10D2D000EDF103005269674466752F332E322E300C
:10D2E00020283432292F0000F1CA0300F8B5164671
:10D2F00004461D460F461A46983000F00AFF0028E3
:10D3000006D1234610332A4631463846FFF7DCF96A
:10D31000F8BDF7B58AB0044610200890154620469F
:10D3200008AA04A9983000F05BFE002821D120460D
:10D3300008AA6946483000F053FE002819D120465B
:10D340001030FFF7C5F9002813D100216A4604AB5D
:10D35000089807E0665C575C7E405F5C7E400B9FF0
:10D360007E54491C814202D22E688E42F2D800209F
:10D3700029600DB0F0BDFFB59DB0044603AD102689
:10D3800007AF3146284602F07BF81EA90EC9384681
:10D3900000F06CFE00285AD132462946384600F08B
:10D3A000B8FE002853D13846279A269900F0B1FEDE
:10D3B00000284CD110201B901BAA2146384600F0B3
:10D3C0000FFE002843D11021284602F059F8012011
:10D3D0006946C8761EA920460EC94830074600F0A7
:10D3E00045FE002833D132462946384600F091FEEA
:10D3F00000282CD12998002806D0024638462899C2
:10D4000000F087FE002822D12246012110320903B4
:10D4100000206B4607C31EAF0DCF2146FFF7A5F9CD
:10D42000002814D11EAF20460ECF9830044600F0DD
:10D430001DFE00280BD11021284602F021F8022001
:10D440006946C87632462946204600F062FE21B081
:10D45000F0BD000010B50E4900234A788C78A24236
:10D4600012D0521CD2B24A70022A00D14B704A78B4
:10D47000074B920018339A5802600869101800028E
:10D48000000A0861012010BD0360002010BD0000EB
:10D49000D828002010B506488378022B03D1022932
:10D4A00001D103218170100001D0FDF7E3FE10BD12
:10D4B0000028002070B5214C1E46636986B01546D1
:10D4C000002B35D022461278022902D004292FD110
:10D4D00015E0092A04D0032A06D00A2A0BD027E037
:10D4E00032462946032004E00020A0703246294637
:10D4F000052098471CE0324629460720F9E7052A0F
:10D5000016D1032109038968814211D114220C49E3
:10D5100001A8FDF76FFA0598009001A80FC8FEF763
:10D52000BFFB062020703246294602206369E0E7EF
:10D53000280001D0FDF79EFE06B070BD1028002027
:10D54000CCF4030008B500920A4600230421FEF73C
:10D55000D9FE08BD10B5FF2145310448FDF763FA37
:10D56000034800210160416010BD000064360020C6
:10D5700074280020024A80001150002070470000EB
:10D580007428002008B5009313460A460221FEF7CE
:10D59000B9FE08BD70B5134C2178002921D06178FF
:10D5A000142251430D190D222D1D022804D1296981
:10D5B000E868814213DB00226978AB6868682D78DF
:10D5C000094EAD007559A8476078401C0007000F50
:10D5D00060702078401E0006000E207001D0FEF71B
:10D5E000B7FE70BD643600207428002030B585B0C9
:10D5F000112069460874062219A104A87CDF0028BE
:10D6000001D0FDF737FE0020029009226946039001
:10D610000A814A818881FF209130C88102A87ADF7F
:10D62000002801D0FDF726FE6D46681C01F0C6F902
:10D630000124002804D1681C01F060F9002804D0FE
:10D640006846047000F0C4F904E0684600F0C0F9D0
:10D65000684604706946002070DF05B030BD0000E8
:10D660005269674466750000FEB50546164608799E
:10D67000099C089A800701D0032210E00093886873
:10D6800002900879800801906846904709280ED0DA
:10D69000014621430BD0314600F004FC02463146DE
:10D6A0002846FEF727F9002801D0FDF7E3FDFEBD6F
:10D6B000FEB5044688781D46801EC6B2B00701D06C
:10D6C000032125E000202300FDF784FB0C1207094D
:10D6D0000B12121212120D0F1112022008E001207B
:10D6E00006E0032004E0052002E0062000E0072019
:10D6F000091D0090B00801900291684690470928E2
:10D7000009D00146294306D0214600F0EFFB01462F
:10D71000204601F06DF8FEBDF0B500221A4D13460B
:10D720000F292ED80488002C27D1067B4F1E0124F8
:10D73000BC40A64225DB20E0047B002C12D10488EB
:10D74000A446002C1DD044880746661CB6B20D378F
:10D750004680E45DC472664502D1002444800480A2
:10D76000802404735204C67A120CE4B2264201D01B
:10D7700001263243640804735B1C8B42DCDB1046D9
:10D78000F0BD2846F0BD0000FFFF0000FFB585B0EA
:10D790001D46040012D0002910D0002D0ED000200C
:10D7A00028600798009102950190A67A3300FDF752
:10D7B00011FB070918374C5B67777C000020C043DA
:10D7C00009B0F0BD20460121FFF7A6FF0146394808
:10D7D000814201D1002002E000291FD10220A07265
:10D7E0002AE068460390029801990068884215D2A1
:10D7F00008212046FFF790FF01462E4881420DD0B8
:10D80000CAB2218920468B05491CD5309B0D218148
:10D81000C2542046039900F0AFFFDBE70120DEE7AA
:10D82000022739462046FFF777FF2249884202D077
:10D830000102E1800327A772A07AB042B5D129681E
:10D840000798814234D10120BAE708212046FFF72A
:10D8500063FF1849884201D10320C0E7E1880143F2
:10D86000491CE180002009E000212046FFF754FF19
:10D870001049884201D10420B1E70002A08007E0EE
:10D8800008212046FFF748FF01460A48814201D19E
:10D890000520A4E7A0880843401CA08006209EE73E
:10D8A0006946204601F06EFB99E70120C04387E7F7
:10D8B000002085E7FFFF000010B504469921C9004C
:10D8C0000D30FDF7B0F80020A0722080608020733A
:10D8D000E072A080E080208110BDF8B51D460400F4
:10D8E0001AD0002918D0002D16D02088C826331A47
:10D8F00015D0934200D21A46174622460D328018A0
:10D900003A46FDF777F82088C01920802F602088DC
:10D91000864206D00020F8BD0020C043F8BD00209C
:10D9200028600120F8BD000008B5002000906B467B
:10D930000448FFF72BFF002802DA0020C04308BD8F
:10D94000009808BD083900200A2801D2303000E0D4
:10D950005730C0B270470000F8B51C4C2078002842
:10D9600033D02069002807D00026E068002805D0C1
:10D970000025002E04D011E00126F6E70125F8E786
:10D98000684652DF052804D0002804D0FDF772FC59
:10D9900004E0012602E0216900988847002D10D19B
:10D9A000608869460880A06861DF052804D00028E7
:10D9B00004D0FDF75FFC04E0012502E0E168A06807
:10D9C0008847002EDCD0002DD3D0F8BD5829002088
:10D9D000002142185378491CDB43C9B25370062911
:10D9E000F7D3C02181717047418805480288914270
:10D9F00004D34088814201D801207047002070473D
:10DA0000FC2800201048018CC9B2012917D1818C53
:10DA1000090714D1018D09060A0F03D1828D120660
:10DA2000120F0ED0090F012903D1828D1206120F99
:10DA300007D0032903D1808D0006000F01D00020FC
:10DA40007047012070470000C00F00F030B5158806
:10DA5000EC1C9C4201D90C2030BD02244C5513888B
:10DA60001C255B1C9BB21380CD5413885B1C9BB29E
:10DA70001380012807D0022807D0032807D00428E4
:10DA800007D0072030BD002004E0012002E0CC5484
:10DA900001E00320C8541088401C1080002030BDD5
:10DAA000F8B52C49C8680A690C780F7989688646E8
:10DAB000944600913EE00099E20055182A7836E03D
:10DAC000182353436968521CC918AB78D2B29342E9
:10DAD00000D100220B78022B02D0032B27D123E0A8
:10DAE0004E680346014603E0B14204D00B46C969C3
:10DAF00000291CD0F8E7002919D08B4208D1C06951
:10DB0000002805D1144F0126BE600026B446012727
:10DB10000E68C969D961002909D00B689B190B608F
:10DB200005E00174C06900E000210028F9D169789E
:10DB30009142C5D12146641EE4B20029BBD10549FA
:10DB400062460A61C8600F71704501D00120F8BDBE
:10DB50000020F8BDD828002000100140F8B5044688
:10DB600031480026C168009107784EE02E48F90040
:10DB700080680D1843E0002C02D02046E4691FE0C5
:10DB80002878182141436A68401CC0B25118287097
:10DB9000AA78904200D12E700A784868012A30D1C4
:10DBA000027C002A2DD18A684260CA6882600A69B4
:10DBB000C260496981611C490979002900D0466029
:10DBC000194943680A699C46991A0902174B090AC0
:10DBD000994202D28268891807E06146511A090207
:10DBE0008268090A8A4202D9511A016000E006607F
:10DBF0004660012186600174C66101F085FA002C3F
:10DC0000B9D1287869788842BAD138467F1EFFB2E8
:10DC10000028ABD10448C1680098814201D001209E
:10DC2000F8BD0020F8BD0000D8280020FFFF7F00CD
:10DC300010B50C46014610220848FCF7DBFE0748E9
:10DC400010384DDF002801D0012010BD03491022FB
:10DC500010312046FCF7CEFE002010BD88290020A0
:10DC600010B5014610220248FCF7C4FE10BD0000AA
:10DC70007829002008B53E4F0025F8692E46C4B229
:10DC80002046C0380F2809D8FDF758FF002805D0D6
:10DC9000F8690007000FF861FEF794F8B12C02D084
:10DCA000B22C02D003E0012501E001252E466420BC
:10DCB00000F0EAF800232F4A05211846FDF792FBF1
:10DCC000002801D0FDF7D6FAFEF772F8FDF776FFCF
:10DCD000002811D0FDF781FF002801D0FDF7CAFA16
:10DCE0000120FDF7E5FE00F059FFFDF793FF002846
:10DCF00007D0FDF7BFFA04E00120FDF7D9FE00F0E0
:10DD00004DFFFF2045DF002801D0FDF7B3FA0F20BB
:10DD10000124C003052724043F040090002D03D1F3
:10DD2000FDF70CFF002801D10F24A404304600F0B9
:10DD300085FE3A4620460099FDF780FF044600F034
:10DD400065FE002C05D0FDF7F9FE002801D0FDF797
:10DD500021FF01F001F90A2000F096F8BFF34F8F80
:10DD600006490548C860BFF34F8F00BFFDE70000BC
:10DD700000050040A82900200400FA0500ED00E09D
:10DD800070B5144682880E4605462088111D41183C
:10DD9000921C994201D8FE2A01D90C2070BD521C58
:10DDA00032542088FF21401C80B2208031542088CA
:10DDB000401C80B220808119288801F02DFA21882A
:10DDC000401880B22080AA88002A09D0A9680029BA
:10DDD00008D08019FCF70EFE2088A9884018208002
:10DDE000002070BD072070BDF8B50F4601781446BD
:10DDF0000546012902D16878002806D02088821CB7
:10DE00009A422DD8012902D006E00720F8BD697892
:10DE10004118891C994223D8181A801E86B2684678
:10DE200006802188B81C081869467DDF0028EDD1DE
:10DE30002878022805D169460988B14201D809210C
:10DE40000AE00821012805D16878B04202D86A4664
:10DE5000108001E06846068068460088FE2801D9E7
:10DE60000C20F8BD2288401CB8542088401C80B289
:10DE70002080395420886946401C20800988401839
:10DE800020800020F8BD000031B5054C04E0401EA4
:10DE900000902046FCF748FD00980028F7D138BDD7
:10DEA000E703000008280FD006DC00280AD0042869
:10DEB00016D0062804D109E00B280BD00C2807D077
:10DEC00009207047012070470220704703207047E7
:10DED00004207047042901D00A2903D10520704786
:10DEE0000B2901D0062070470820704708280CD065
:10DEF00004DC002807D0062811D108E00B280AD03E
:10DF00000C280CD105E00120704702207047032047
:10DF1000704704207047042903D00A2901D0062045
:10DF2000704705207047000030B552000A43990041
:10DF3000039C0A432102049D0A4329040A4302491F
:10DF400080004018026030BD00070050024A89007E
:10DF50008000801801607047000700501CB5002247
:10DF60000B46009211460192FFF7DEFF1CBD1CB567
:10DF7000002100910B46012201911146FFF7D4FFC9
:10DF80001CBD000010B515498A6A096A1206120FF5
:10DF9000C9B2012904D0002101708180418010BDE7
:10DFA00001231B07596B41809C6BA401240C614326
:10DFB0004180596981801300FCF70CFF0A0D060DA2
:10DFC0000D080D0D0B0B0B0D012100E0022101705E
:10DFD00010BD0321FBE70421F9E70000C00F00F0AA
:10DFE000F7B5416815460446112904D2A268102AE3
:10DFF00001DC914201DD1020FEBD20460C30914233
:10E000000ED04B1C802263600A54002202E04B1C9D
:10E0100063600A54A36861689942F8DB012200E05A
:10E02000002200211201161909E077186218203722
:10E03000137F3F7B7B40177B7B401373491CA26897
:10E040008A42F2D80146FFF7F3FD0028D4D104E05C
:10E0500021180A7B01990A54401CA168814202D907
:10E0600029688142F4D828600020FEBDFFB504462F
:10E0700081B08720009010251046FFF7F1FD204663
:10E080002C301021064601F0FBF931460846FFF717
:10E09000CFFD002833D1691E8C4601010B192C21BC
:10E0A000C95CC9098E46002108E05A182032167B47
:10E0B000577B7600FF093E431673491C6145F4DB2C
:10E0C0005A192032D17A73464900002B00D0009BA8
:10E0D0005940D172002814D0401C0228DDDB029880
:10E0E00020600020A5606060204610211C3001F0F7
:10E0F000C7F9204610210C3001F0C2F9002005B00C
:10E10000F0BD20462C300FC826463C360FC60120F5
:10E11000C3E7F7B5416816460446112906D2A06840
:10E12000102803DC27460C37814229DD1020FEBD74
:10E13000A1686068884212D1002005E021180A7B9E
:10E140000B7F5A400A73401CA1688142F6D82146D1
:10E150001C313846FFF76CFD0028E8D16060A168EB
:10E160000D1AB54200D93546C0192A460199FCF767
:10E1700041FC6068761B401960600198401901906D
:10E18000002ED5D10020FEBD70B51A4C0546018881
:10E19000E088132923D007DC102913D0112910D1CE
:10E1A0002078002815D016E052291ED0552908D114
:10E1B000A979002905D1132176DF002801D0FDF7C8
:10E1C00059F870BDFDF77AFEA888E0800020A070A5
:10E1D00070BDFCF791FF0020C043E08070BD0023BC
:10E1E000044A194614327FDFE7E700231A4619462E
:10E1F000A9DFE2E734280020F0B58BB004460D46D5
:10E200000226684606730121817429898182698901
:10E21000C18228460C30002706900897684606847D
:10E22000478407A80990618A208808AAA5DF0028EA
:10E2300004D0616A002919D0884717E06846808BAE
:10E24000C007C00F12D068460782208803A9A8DF44
:10E25000002812D1297B0B00FCF7BCFD0D4A1419D4
:10E260001E2123254A341127292B4A00FF20FE3086
:10E2700069460882208803A9A8DF0BB0F0BD684674
:10E28000077006E0012008E02046904718E0684645
:10E2900006700146226AF7E70320694623E004205E
:10E2A000FBE70520F9E70620F7E70B20F5E70C2050
:10E2B000F3E703220C212046FDF71CFB0028DCD1EC
:10E2C0000020DAE76889032805D2032208212046C6
:10E2D000FDF710FBD1E7A87B697B00020843694684
:10E2E000888003D007200870226ACDE70820FAE76B
:10E2F0000322ECE770B50D780446012224482B0078
:10E30000FCF768FD0D2B2D2F330817223C413816E2
:10E3100031351600FEF7F4FC0421FFF7C3FD024679
:10E3200004212046FDF7E6FA002801D0FCF7A2FF01
:10E3300070BDFEF759FF002801D0FCF79BFFFEF7E8
:10E34000CFFC002806D170BDFEF74EFF002801D09B
:10E35000FCF790FFFEF748FE70BD062108E0027151
:10E3600070BD022104E0032102E0042100E0052148
:10E37000017170BD204600F00DF870BD42708988B3
:10E380000181418170BD00214170018170BD00009B
:10E39000342800207CB5164A0124157900222B0070
:10E3A000FCF718FD0712050B1322191C1200114B64
:10E3B000009301920223012204E00F4A00920123FC
:10E3C00001940222FFF750F97CBD0C4A062300920B
:10E3D00001940A22F6E700F015F87CBD084B009383
:10E3E000019205230922EDE7FCF7A4FE7CBD0000A5
:10E3F0003428002015D10300D9CD03006DCE0300D1
:10E4000055CB030070B50546002903D00A7988680A
:10E41000114601E000210846FEF704FD134C0228D6
:10E420000ED0032806D0042814D006220B2128463B
:10E43000FDF760FA00F0AAF8E1684018E06070BDEE
:10E4400007220B212846FDF755FA0028F2D0FCF7E9
:10E4500011FFEFE701220B212846FDF74BFA0028B8
:10E4600001D0FCF707FF0120E070E3E7342800202B
:10E4700038B5002804D08178891EC9B2001D01E09A
:10E4800000210846FEF7CEFC0F4C022812D00328CC
:10E490000AD0042810D00098C1B20B20FFF726FD47
:10E4A00001460B2000F0A4F900F070F8A1684018B4
:10E4B000A06038BD0721F4E701210B2000F098F996
:10E4C00001202070F0E7000058280020F0B58DB042
:10E4D0006846FDF7B3FC68460078012802D00820A2
:10E4E0000DB0F0BD032636030199B068FEF7D4F8ED
:10E4F00016498968814201D00B20F1E7144D134C75
:10E500000127EF70883C2068002802D1606800284D
:10E5100001D00620E4E70A202870182106A8FCF79D
:10E5200082FA0A48AF70F4300990012080020A9004
:10E53000A0680890B06807900198069005480B9075
:10E5400006A800F027F80020CAE700002C2E0020C3
:10E5500010280020F5EF030008B50A4601466B4677
:10E560000848FFF7BAF90849009B0A68D2180A6000
:10E57000012803D0002802DA0020C04308BD002093
:10E5800008BD000008390020C428002010B5FDF7A0
:10E5900055FE10BD38B504000F481CD0E1680029B5
:10E5A00019D06168002916D00C48FFF785F9206959
:10E5B0000090A368E26821686068FDF745FE30219D
:10E5C0000748FCF730FA06480649416061698160F6
:10E5D00005490020086038BDFFFFFFFF0839002013
:10E5E000E03D002029D90300C428002010B50A48C6
:10E5F000FDF7D0FC012807D0411C07D0022808D025
:10E600000028F4D1042010BD022010BD0020C0431A
:10E6100010BD032010BD0000E03D002070B50D00CE
:10E62000044602D10020FCF725FE002C02D1002078
:10E63000FCF720FE2878207069886170090AA170B3
:10E64000A988E170090A2171E8886071000AA07147
:10E6500070BD000010B58178022916D3C47823005C
:10E66000FCF7B8FB0D13080B11171F2B1313330EF8
:10E67000142E13000023184A29E00123174A26E02C
:10E680000123174A23E0FCF7BBFD10BDFFF7F0FEA6
:10E6900010BDFEF735FB0421FFF728FC01460420DE
:10E6A00010E0FEF71DFB04460521FFF71FFC0146A5
:10E6B000052000F09DF8002CEAD0FEF795FC10BD77
:10E6C00003210C2000F094F810BD064A01230146F6
:10E6D0002046FEF7EDFF10BD15D10300D9CD030094
:10E6E0006DCE030055CB0300F8B50025204C012763
:10E6F0006570204E34E0AA2807D0E17800290BD0BD
:10E70000AB2807D0AC2804D004E0A7706560E570A2
:10E7100026E0AA20E57001E0AB2809D0A178002905
:10E720001ED0012906D0022908D0032918D109E0FA
:10E73000E77015E0B0700220A07011E0F0700320C7
:10E74000A07004E0616872181071491C6160606813
:10E75000B178801C814203DCA5700648FFF77AFF80
:10E7600003480C3000F04DF8411CC4D1F8BD000046
:10E77000582800206033002010B50B6889680868AD
:10E78000441C0C601A5410BDF8B507460E460C46E2
:10E79000002008E0395CAA2901D0AB2901D1641C12
:10E7A000A4B2401CC0B2B042F4D3A41CFF2C1CD8AD
:10E7B000AA2000F087F9E0B200F084F9102000F000
:10E7C00081F900250FE0785DAA2801D0AB2806D199
:10E7D000AB2000F077F9785DAA2807D0AB2000F0D5
:10E7E00071F96D1CEDB2B542EDD3F8BDAC20F6E782
:10E7F00008B56A461070517002216846FFF7C4FFE1
:10E8000008BD10B572B6FCF70EFB62B610BD000075
:10E81000FEB50446FCF707F96846FFF7B3FB06228E
:10E820001DA12046FCF7E6F868468088802828D09D
:10E83000C11FF93923D0FF39013924D018A7684600
:10E840004088102821D0202821D0402821D015A68A
:10E850003846FCF7F3F8C5B2A01D2A463946FCF746
:10E86000C9F8AD1DEDB23046FCF7E8F8C7B2601943
:10E870003A463146FCF7BEF8E819C0B2FEBD0AA719
:10E88000DDE70BA7DBE70CA7D9E70DA6E0E70DA6B0
:10E89000DEE70DA6DCE700006E524635312F0000A2
:10E8A0003F3F3F003F3F00003235362F0000000061
:10E8B0003132382F000000003531322F00000000C7
:10E8C00031360000333200003634000010B5044603
:10E8D0000948102200212060FCF720FC002806D106
:10E8E0001022FF212068FCF719FC002801D000202D
:10E8F00010BD012010BD0000E0FF030070B506460A
:10E9000010480125044606220021FCF707FC0028D8
:10E9100006D10622FF212046FCF700FC00280AD081
:10E920000949002506223046FCF764F87079C021B9
:10E930000843707104E0062221463046FCF75AF87D
:10E94000284670BDF0FF0300A4000010FEB5684625
:10E9500000F034F8002802D16846FFF7CFFF00200E
:10E9600069460A5CD2430A54401CC0B20628F8D358
:10E970004879C0221043104D487100240520071B20
:10E980006846C05D0009FEF7DFFF61006618A85504
:10E990006846C05D0007000FFEF7D6FF711948708A
:10E9A000052C06D03A20641C8870062CE6DB024851
:10E9B000FEBD0020F7E70000E438002070B50646F1
:10E9C00010480125044606220021FCF7A7FB002879
:10E9D00006D10622FF212046FCF7A0FB00280AD022
:10E9E0000949002506223046FCF704F87079C02159
:10E9F0000843707104E0062221463046FBF7FAFF17
:10EA0000284670BD80100010A400001010B5094CFD
:10EA1000207800280DD060780028FCD10649042019
:10EA200008600220FCF7F6F800F0B0F90020606002
:10EA3000207010BD8428002080E100E03EB5012256
:10EA40001A4900240A704C7002254C60002809D134
:10EA500001210920FFF77AFA15480069400AC0072A
:10EA6000C00F1FD0092069460870FF204870C87089
:10EA700088700C710F480290684600F0B7F90E4894
:10EA800004244460411541600220FCF7C3F80321CF
:10EA90000220FCF7C9F80948046003210A20FFF7A7
:10EAA00055FA3EBD064845623EBD00008428002060
:10EAB0000005005000E0D7010023004000E100E025
:10EAC0000007005010B500F0D9F910BD10B504468C
:10EAD00002E0641C00F0D2F920780028F9D110BDC2
:10EAE0003EB5164D00242878002806D06878002806
:10EAF000FCD16C602C70FFF789FF012028706C70CE
:10EB0000092069466C6008700A204870FF20C870B0
:10EB100088700C710A480290684600F067F909484D
:10EB200004244460411541600220FCF773F8012180
:10EB30000220FCF779F8044804603EBD84280020D8
:10EB400000E0D7010023004000E100E001494860F7
:10EB5000704700008428002070B501240B49600430
:10EB600008600B4940108860094940398860094DA8
:10EB70006C602F20FBF7AEFEAC60074D00242F2009
:10EB80002C61FBF7A7FEEC7070BD000080E100E097
:10EB90004013014000100140D828002010B5054A5C
:10EBA00014210C20FCF7F2FB002801D0FCF762FBDB
:10EBB00010BD0000B82B002010B50121202805DA77
:10EBC0001A4A8140114201D1194810BD8107C90E6E
:10EBD000002808DA0207120F083A9208154B920033
:10EBE000D218D26904E08208134B9200D21812683E
:10EBF000CA401106890F042911D200290FD0022919
:10EC00000DD00E494C68C306DB0E01229A40002C41
:10EC100008D0400980000B5813430B5004E004480F
:10EC2000401C10BD06480260002010BDFC06FFBC61
:10EC30000120000000ED00E000E400E06C2900206D
:10EC400000E100E0FFB50746806A81B01446002865
:10EC50003DD0002538462030009033E00C20B96AC2
:10EC600068430E18B088801CFE2802D90C2005B01D
:10EC7000F0BD22880299401C885420881622401C2E
:10EC800080B2208002990A542088401C80B22080E3
:10EC900002994118308800F0BFFA2188401880B2EC
:10ECA0002080B288002A0AD0B16800290FD0029BC8
:10ECB000C018FBF79FFE2088B188401820806D1C8B
:10ECC0000098EDB2007BA842C8D80020CFE707200B
:10ECD000CDE710B5FCF7CEFA10BD000000B597B037
:10ECE0001D4810901D48119010A91D48FCF73CFDCF
:10ECF000002801D0FCF7BEFA40216846FBF793FEDE
:10ED000018A16846FCF772FD18A102A8FCF76EFD79
:10ED10001BA108A8FCF76AFDFFF718FE014604A82E
:10ED2000FCF764FD142112A8FFF772FD12A906A8D2
:10ED3000FCF75CFD0120014608A810310177002096
:10ED4000014608A841776846FCF704FE002801D078
:10ED5000FCF790FA17B000BDF5E20300D3EC030016
:10ED60003833002052696761646F0000526967613F
:10ED7000646F20536563757265204446550000003A
:10ED8000332E322E302028343229000070B512483C
:10ED90000025057011490120C860486010480560D1
:10EDA000104A691E9160C1604161816001610C4837
:10EDB0004030C5620C4C2078202802D20321FFF796
:10EDC000CDF86078202802D20321FFF7C7F825602C
:10EDD0006560A56070BD00008C2800200020004008
:10EDE0000025004000230040F838002070B50400E2
:10EDF00037D0FFF7CBFF60781A4E202800D2F060A2
:10EE00002078202804D2706120780321FFF7A6F82B
:10EE10002079012500280DD0A078FFF7A8F8E07828
:10EE20000021FFF79BF8E0783061A078B0600D48D2
:10EE30004030C56200200C49C0438860A068706201
:10EE4000042030600948C56045607169202903D2FB
:10EE500005600749002088600ECC06480EC00648B1
:10EE6000057070BD002500400023004000200040D8
:10EE700000210040F83800208C280020F8B5074613
:10EE80000D480078002816D00C4CE068202812D2DB
:10EE90000B4E0125B560E068FFF769F8E7610948A6
:10EEA000C1690129FCD10021C161F5600648032137
:10EEB0004078FFF753F8F8BD8C280020002500406B
:10EEC0000020004000210040F8380020002803D036
:10EED0000249C860002070470E2070475829002062
:10EEE0001CB5034901910091694660DF1CBD00001B
:10EEF0000028002070B50E46054614461421104621
:10EF0000FBF791FD012000212080216121732672F1
:10EF10006572002D00D0A072002070BD10B5FCF706
:10EF20009BF910BD70B5002901D08C0701D00720D6
:10EF300070BD074C0125A16062800649636010DF47
:10EF40000028F5D125701620FFF736FE70BD0000B1
:10EF5000582900201DEF030011DF002801D00121F6
:10EF600000E00021014A117070470000582900207C
:10EF7000002803D002490861002070470E20704726
:10EF800058290020F3B583B004460498416880688E
:10EF900000680D1A28D0A0880027A84200D2054694
:10EFA000134801902646E088D536029014E0218966
:10EFB0000298081A01990840305C009002462046E9
:10EFC0000499FFF7D9FB2189019A009811407054E8
:10EFD0002089401C20817F1CAF42E8D3A088401BC1
:10EFE0000004000CA08000D0062005B0F0BD000099
:10EFF000FF03000070B5084C0D46E268A1692B467E
:10F00000891802460020FEF7BDFA002803D1E06807
:10F010004019E060002070BD1028002010B5FEF7F8
:10F02000B9FA10BD70B50C00054602D10020FCF7FE
:10F0300021F9002D02D10020FCF71CF9207828705E
:10F040002088FF2109020840000A68702068090230
:10F050000840000CA8702068000EE8702079287124
:10F06000207A68712089000AA871A068000CE871F4
:10F0700070BD0000FEB51F4C00252769E0680290B6
:10F080006846FEF7E7F90190FEF70AFD064601988B
:10F09000002822D000230098E16817E00E680A4695
:10F0A000864202D9301A086012E0801BF31800264D
:10F0B0001660D668D169B446002E07D0FE18360215
:10F0C000360A566066469660D56115460029E5D138
:10F0D0002846E160FEF742FD06E02846FEF73EFDC9
:10F0E000002801D1002E02D00298FDF765F900201A
:10F0F0002071FEBDD82800200120024900050860CB
:10F100007047000000E200E010B50E4BD9680029FE
:10F1100006D002680C68A24204D8A21A0A60C16133
:10F12000D86010BD0B4604E00B46C969121B0029CC
:10F1300004D00C689442F7D3A41A0C600260C16139
:10F14000D86110BDD8280020F8B51D4DEC68002C02
:10F1500034D01C48002740682969401A0602360A44
:10F160002068B04218D8361AC7192246107CE469C4
:10F1700000280FD0002010746B69002B07D0916914
:10F1800050699847002805D0FCF774F802E05169EF
:10F1900090698847002CE3D16978A878814206D12C
:10F1A000401CC0B2A870022801D10020A8700449F8
:10F1B0000006800D18310F50FFF79EFFF8BD0000CC
:10F1C000D82800200015014030B5002305E0047860
:10F1D0000D78401C6C402343491C521EF7D2002B73
:10F1E00001D0012030BD002030BD000010B5014627
:10F1F0000748FBF72EFE06480C384178002906D157
:10F20000012141700021034A0846FCF761F810BD56
:10F2100064280020E9E603000870000A4870022014
:10F220007047000038B51549154A488890420FD0FC
:10F230004A78144C521CD2B24A70237B934208D3B2
:10F24000091D75DF002803D0A169002900D0884777
:10F2500038BD00254D70217C002907D03B2176DF89
:10F26000002803D0A169002900D0884761690029DE
:10F27000EED068460570884738BD0000F8280020A9
:10F28000FFFF0000303E0020EFF30580C005C00DF9
:10F290001AD0103840B2002808DA0107090F0839DF
:10F2A00089080C4A89008918C96904E081080A4A5A
:10F2B0008900891809688007C00EC1400806800FC0
:10F2C000012803D0032803D0022070470020704794
:10F2D0000120704700ED00E000E400E04278837810
:10F2E000521CD2B2934200D100220378934201D142
:10F2F000002070470A70416840781822504308186F
:10F300007047FFB583B016460C9D0D9C1F46022228
:10F3100000950194039800F00CF8002807D13B46B3
:10F320001022314600950194039800F002F807B0CE
:10F33000F0BDFFB583B0074600200C9C86462688AA
:10F3400005463AE07868A90042181188684681802D
:10F350005188C1800022694601A865DF002839D1A3
:10F36000684601780598814226D17046002801D070
:10F37000002200E002222088891842180D998A4252
:10F3800027D8714600290AD1401C80B22080069AF5
:10F39000049911542088401C208001208646218831
:10F3A00006980A18694601A865DF002812D1694647
:10F3B00020880978401820806D1C3888A842C1DC5C
:10F3C000704600280AD02088801B401E80B2FF288B
:10F3D00002D90C2007B0F0BD069988550020F9E746
:10F3E00010B586B004A8FFF771FA00282FD00C21C1
:10F3F000184A1023501802920391009001930021A3
:10F400005C30049AFDF7B7FF00281DD1114A302364
:10F410002C321046144611463C30FDF767FF002899
:10F4200012D10C4905AA1C3108464C30FDF771FF7A
:10F43000002809D10598102806D1102221460498E9
:10F44000FFF7C2FE002802D00B2006B010BD00203E
:10F45000FBE70000D02D002010B5084C48DF002845
:10F4600001D0FBF707FFFBF781FFA078032803D04B
:10F47000042801D00528F1D110BD0000002800208B
:10F48000002201E00270401C491EFBD270470000C0
:10F490000010020002000000000000000000000058
:10F4A000000000005C2D00200200000000000000B1
:10F4B000000000000000000002000000000000004A
:10F4C0000000000000000000000000000400000038
:10F4D000000000000000000000000000000000002C
:10F4E0000202FBC2FCA8CC93304C56170000C84166
:10F4F000103E002014F503000028002078010000D1
:10F5000088AA03002CF5030078290020D81C0000ED
:10F51000FEAD0300510533CA9DC6A4032AFFFF3286
:0CF520000205FF61340020C11424F40037
:020000041000EA
:0410140000A803002D
:040000050003A8C18B
:00000001FF
