:020000040007F3
:10500000B08D002039550700415507004355070072
:1050100045550700475507004955070000000000A7
:105020000000000000000000000000004B550700D9
:105030004D550700000000004F550700515507006F
:105040005355070053550700A95A07005355070049
:105050005355070053550700535507005355070094
:105060005355070053550700535507005355070084
:105070005355070053550700535507005355070074
:10508000535507006D580700535507005355070047
:1050900091580700535507009558070053550700CE
:1050A0005355070053550700535507005355070044
:1050B0005355070053550700000000000000000092
:1050C0005355070053550700535507005355070024
:1050D00053550700535507005355070000000000C3
:1050E00000000000000000000000000000000000C0
:1050F00000000000000000000000000000000000B0
:10510000000000000000000000000000000000009F
:10511000000000000000000000000000000000008F
:10540000DFF80CD000F0F2F80048004721890700CF
:10541000B08D0020401E00BF00BF00BF00BF00BF16
:1054200000BF00BF00BF00BF00BF00BF00BF00BF84
:1054300000BF00BF00BF00BF00BF00BF00BF00BF74
:1054400000BF00BF00BF00BF00BF00BF00BF00BF64
:1054500000BF00BF00BF00BF00BF00BF00BF00BF54
:1054600000BF00BF00BF00BF00BF00BF00BF00BF44
:1054700000BF00BF00BF00BF00BF00BF00BF00BF34
:1054800000BF00BF00BFC5D170470000401E00BF75
:1054900000BF00BF00BF00BF00BF00BF00BF00BF14
:1054A00000BF00BF00BF00BF00BF00BF00BF00BF04
:1054B00000BF00BF00BF00BF00BF00BF00BF00BFF4
:1054C00000BF00BF00BF00BF00BF00BF00BF00BFE4
:1054D00000BF00BF00BF00BF00BF00BF00BF00BFD4
:1054E00000BF00BF00BF00BF00BF00BF00BF00BFC4
:1054F00000BF00BF00BF00BF00BF00BF00BFC5D1DD
:1055000070470000056885F308884068FF2464B28E
:10551000EFF30585002D01D1A64600472546064636
:1055200021273FBAF0B40024002500260027F0B45C
:10553000F92040B20047000006488047064800476F
:10554000FEE7FEE7FEE7FEE7FEE7FEE7FEE7FEE733
:10555000FEE7FEE7B958070001540700202A04DBE4
:10556000203A00FA02F1002070479140C2F1200376
:1055700020FA03F319439040704740EA01039B0768
:1055800003D009E008C9121F08C0042AFAD203E0B8
:1055900011F8013B00F8013B521EF9D27047D2B21C
:1055A00001E000F8012B491EFBD270470022F6E70C
:1055B00010B513460A4604461946FFF7F0FF204689
:1055C00010BD421C10F8011B0029FBD1801A704746
:1055D00030B504460020034600E05B1C934203D232
:1055E000E05CCD5C401BF8D030BD0000064C074DA0
:1055F00006E0E06840F0010394E8070098471034A3
:10560000AC42F6D3FFF700FF2CA107004CA1070026
:1056100030B58C1810F8012B12F00F0301D110F8DF
:10562000013B120906D110F8012B03E010F8015BD1
:1056300001F8015B5B1EF9D101E001F8013B521E4C
:10564000FBD1A142E6D3002030BD00000748002175
:10565000074A017002F5845002602022C0E901214E
:10566000C16001614161816108467047842C00205E
:10567000AC520020F0B5194A0646916861B35569ED
:105680001020691A01F01F01D2F800700B460124A6
:1056900001EB411C07EB8C0CB44506D1956904FA6B
:1056A00001F675400020956104E0491C01F01F01DE
:1056B0008D42EDD1491C956901F01F0104FA03F3F5
:1056C0001D420AD19368002B07D05B1E936053687C
:1056D0005B1C53600B46F1E70420F0BD2C630020F7
:1056E000064980230A7C0968521E02F01F0202EB61
:1056F000421203EB82028850002070472C63002086
:1057000070B5D0B1C9B10F4AD368C3B15B1ED360C5
:1057100093685B1C93605369156803EB431405EBB6
:1057200084060660802000EB84005B1C285808601B
:1057300003F01F005061002070BD0E2070BD0420DA
:1057400070BD00002C63002010B5E9B100220A6092
:10575000104A5368E3B1802818D85B1E5360D068A4
:10576000401CD0601069136800EB401403EB840305
:105770000B60012383409169401C194300F01F0016
:1057800091611061002010BD0E2010BD0C2010BDD5
:10579000042010BD2C63002000F01F020121914065
:1057A0004009800000F1E020C0F88012704700F04E
:1057B0001F02012191404009800000F1E020C0F863
:1057C0008012704700F01F020121914040098000C3
:1057D00000F1E020C0F80011704700F01F02012125
:1057E00091404009800000F1E020C0F800117047AE
:1057F00000F01F02012191404009800000F1E020EB
:10580000C0F8001270474907090E002806DA00F0B8
:105810000F0000F1E02080F8141D704700F1E02037
:1058200080F8001470474907090E002806DA00F0D6
:105830000F0000F1E02080F8141D704700F1E02017
:1058400080F8001470470000BFF34F8F05480168CF
:10585000054A01F4E06111430160BFF34F8F00BFBF
:10586000FDE700000CED00E00400FA050748002108
:10587000C0F84011C0F84411C0F84811C0F84C11EC
:10588000C0F80011C0F8041104F070BA0010014013
:1058900004F008BA074810B5406830B180470028C6
:1058A00007D0BDE8104000F05DBBBDE8104002F03D
:1058B000E3BE10BD542D002070B571480023021DB9
:1058C0000178101D0125062907D11478240704D179
:1058D0000478C4F30314032C02D0062904D00FE08B
:1058E000694E684C74670EE01478240708D1047878
:1058F000C4F30314032C06D0042C04D0052C02D0CE
:10590000062909D010E04FF08054D4F844425F4E8D
:10591000C4F34234346002E01478240704D10478DC
:10592000C4F30314032C02D0062906D011E0584C0E
:10593000266826F0807626600EE01478240708D1C9
:105940000478C4F30314032C06D0042C04D0052CD3
:1059500002D006290AD011E04FF08044C4F80C317F
:10596000C4F81031494C241F236002E01478240746
:1059700004D10478C4F30314032C02D0062905D003
:105980000CE0424A0321643211600AE014782407D3
:1059900004D10478C4F30314032C02D006290DD0DB
:1059A0006AE03C4A052111603A4978310D60394975
:1059B00008310B603F21121D116002E011780907C8
:1059C0005AD10078C0F30310052855D13248006839
:1059D000324908603048001D0068091D08602E48E3
:1059E00008300068091D08602B480C300068091D4C
:1059F0000860294810300068091D086026481430E6
:105A00000068091D086024481830006823492031C7
:105A1000086021481C300068091D08601E482030BD
:105A20000068091D08601C4824300068091D0860D2
:105A3000194828300068091D086017482C30006894
:105A4000091D08601448303000681449403108606E
:105A5000114834300068091D08600F48383000686C
:105A6000091D08600C483C300068091D08600A48A0
:105A700040300068091D08600A490948086070BD87
:105A8000E00F00F00DF0ADBA00C007403C0500404B
:105A9000FCED00E0105600400404001020C500405A
:105AA0000090D003002C002070B50D4CD4F80801F4
:105AB0000025012808D10B4841680B48006809B14E
:105AC000C0B28847C4F80851D4F82401012801D194
:105AD000C4F82451BDE870400220FFF75DBE00000D
:105AE00000200040BC2C00201825004002E008C81F
:105AF000121F08C1002AFAD170477047002001E048
:105B000001C1121F002AFBD1704738B5062565F385
:105B10000700009400F02EFF38BD10B5C1680029C1
:105B200002DC4FF0FF3010BDD0E90112895C8268C1
:105B30000368521C92FBF3F403FB14228260C268D8
:105B4000521EC260084610BD10B5C26803689A4272
:105B500001DB002010BD8268C3681A44036892FB11
:105B6000F3F403FB142243689954C168491CC160D3
:105B7000012010BD2DE9FC5F002516880746158021
:105B8000406B14468946A8464FF00C0A11234FF08B
:105B9000020B98B101784846032E48D380F800B034
:105BA0002288521C92B2228083542288521C92B2C4
:105BB000228009F802102088401C20803A6BDAB15C
:105BC0002088494600F11205B54230D80B54208890
:105BD0001023401C80B220800B542088401C208061
:105BE0000F202388155C401ECD54238840B25B1CD7
:105BF00023800028F5DA454697F82E0030B1334669
:105C00002246494602F07EFD050011D197F82D008D
:105C100030B132462146484600F006FC050007D167
:105C2000B87820B32088C846001DB04202D950463B
:105C3000BDE8FC9F684679DF0028F9D12188032060
:105C400008F8010020881921401C80B2208008F843
:105C500000102088401C80B2208000EB0801BDF8B5
:105C6000000004F0EFF80146208808442080F8780E
:105C7000B8B1228897F90310D31C4846B342D6D84E
:105C800000F802B022880123521C92B22280835471
:105C90002288521C92B2228009F802102088401CEF
:105CA00020807868B8B1218890F90020CB1C484644
:105CB000B342BCD800F801B021880A23491C89B23C
:105CC000218043542188491C89B2218009F8012090
:105CD0002088401C2080388950B1CDE900464B46D1
:105CE0000622022107F1080004F033F905009FD1D4
:105CF000388A50B1CDE900464B460722032107F10F
:105D0000100004F026F9050092D1388B50B1CDE98E
:105D100000464B461522142107F1180004F019F92A
:105D2000050085D1386A30B133462246494601F034
:105D30007DFA0500DBD1786A30B133462246494608
:105D400002F06CFE0500D2D197F82C0038B1334632
:105D500022464946384603F089FD0500C7D1387808
:105D600038B1334622464946384602F089FE0500DE
:105D7000BDD128465CE7000030B519488FB0062534
:105D800000798DF83A0049F23000ADF8380038213A
:105D90006846FFF70BFC02208DF80000012000246C
:105DA000ADF808000EA88DF8024003908DF803505E
:105DB0002146684600F096FA08B100F0D3F808488A
:105DC00018211838FFF7F2FB05484FF4C87118384E
:105DD000047044600472018244820FB030BD000040
:105DE000F830002010B5064CA078002806D10548F0
:105DF00073DF08B100F0B6F80120A07010BD0000FC
:105E0000302C0020E030002006E000BF10F8013BFD
:105E10008B4201D000207047521EF7D201207047FC
:105E20001FB58178891ECCB2A1074FF003011CD1A8
:105E30000091A108001DCDE90110684601F04EFD5A
:105E4000039001000B4807D009290AD0C9B20320EA
:105E500002F071FE014608E0816821448160012161
:105E600003E08168214481600721032003F0F6FAF2
:105E70001FBD0000142C00202DE9FF4105460879C4
:105E80000E46810701D0032239E02C490090FFF72C
:105E90005BFC010011D1294CB168103C009A2069CB
:105EA000FFF76BFB0098FFF71BFC010005D169466B
:105EB0002248FFF725FC010004D0284601F060FDD0
:105EC000BDE8FF81032001900098800802902069BE
:105ED000039001A801F002FD07000BD0092F17D095
:105EE0002069FFF7C7FB010002D0284601F048FDFA
:105EF0003946E2E73079E16801220844E060032195
:105F0000284600F073FB0028DAD000F02BF8D7E722
:105F10003079E1680144E16060780028D0D0608980
:105F2000401E0004000C6081CAD1284600F02AFB04
:105F300008B100F017F820896081C1E7402C0020EB
:105F4000BFF34F8F05480168054A01F4E061114332
:105F50000160BFF34F8F00BFFDE700000CED00E0D4
:105F60000400FA050EB500210091CDE901106A4642
:105F700044F20100FFF7E4FF0EBD000070B50F4BC7
:105F8000054605201C785E78A64216D01C78187845
:105F90009E88B04201DA401C00E0002018705E8844
:105FA000D86804FB06002860986800EBC4039B884F
:105FB0000B8050F834001060002070BD242D0020AC
:105FC0000EB504E0029ABDF804100098904702AAAA
:105FD00001A96846FFF7D2FF0028F3D00EBD0000EC
:105FE0000148006800F018B914A1070070B5044614
:105FF0000D460846FFF7E5FA2080656070BD000099
:10600000D4255346180000000302032D00000001B0
:10601000040203004C78B0492DE9F84F254C814625
:10602000924660880E46814241D800274FF6FF789D
:106030008DF80070684600F017F922786078A18822
:10604000884201DA401C00E00020C0B2904204D136
:106050009DF8000000F02CF927E065786078884210
:1060600001DA401C00E0002060709DF8000000F0A4
:106070001FF9454519D0A068B9F1000F40F835A0C7
:106080000DD066B16188E068324605FB01004946E3
:10609000FFF773FAA06800EBC500868002E000EB12
:1060A000C50087800020BDE8F88F0420FBE70920A9
:1060B000F9E70000242D002030B5CB0008339DB255
:1060C00093074FF0000401D0072030BD044B9A60C5
:1060D0002A44DA605C701C7058809980002030BDC2
:1060E000242D0020074B9B6823B12AB120B1006802
:1060F000037C1BB108207047072070474174426140
:1061000000207047342D00202DE9F0478046994645
:1061100014460F4690074FF0000634D11C4D8CB347
:1061200003F032FB0320C5F81490287004F1180026
:10613000002107EB4703AC6004EBC102491C167059
:1061400056709770506000EBC3000329F4DBEE60DB
:106150006E70AE701420FFF72AFB06211420FFF7A3
:1061600062FB1420FFF739FB0A49C1F800800621C1
:106170001120FFF758FB0748001F00682861002026
:10618000BDE8F08701E00720FAE7AE60FBE700001A
:10619000342D0020081501402DE9F843DFF87090F8
:1061A0000D461746D9F80810044651B34CB3052DD7
:1061B00002D20720BDE8F883606910B3607C012833
:1061C00021D0002603F092FED9F80810804601EB9A
:1061D000C800694603F0A9FEB8B1012100F8041B0C
:1061E0000C4910C0096880E8E200D9F8081001EBFA
:1061F000C8009DF8001041701420FFF7F9FA002044
:10620000D8E70820D6E72E46DCE70420D2E70000D6
:10621000342D002004150140F8B5124E0446B16833
:10622000E1B1DCB16069C8B10027277403F05EFEFC
:106230000546B068694600EBC50003F076FE78B10C
:10624000022101704460B0689DF8001000EBC500A9
:1062500041701420FFF7CCFA3846F8BD0820F8BD8D
:106260000420F8BD342D002030B5EFF3108172B654
:106270000D4A9468012324B10370002900D162B64D
:1062800030BD93604FF0E023D3F88051074C254098
:106290001560C3F88041D3F8844154605A17C3F89D
:1062A000842100220270E8E7A0680020FC06FFBC01
:1062B0000B498A68002A11D000280FD1EFF3108013
:1062C00072B60B684FF0E022C2F800314B68C2F89A
:1062D000043100228A60002800D162B670470000B5
:1062E000A0680020F0B50C4693B01F210726ADF83A
:1062F0000010ADF80410002750B1C17849070DD542
:106300006A4602A9FFF736FC002808D102AD02E078
:106310000025ADF800706CB1E07810B1304613B0D4
:10632000F0BD01AA0AA92046FFF724FC0028F6D1F7
:106330000AAA02E00022ADF80470BDF80400C3B25E
:10634000BDF80000C1B2284672DFE8E770B5054627
:1063500001461C220F48FFF710F90F4C002626704B
:10636000286830B1016861604068A060201D7ADF54
:1063700002E00948001D7BDF00280AD14FF6FF70BC
:1063800060806670BDE87040044A00210448FFF751
:10639000A9BE70BD84680020C42C00208D9E07001B
:1063A00014A1070070B51E4C068800251B49E28920
:1063B000102E15D01B4B112E1CD0122E29D0502E72
:1063C00017D130F8061F914213D14189022910D10B
:1063D000007B10F0010F11D0BDE8704000F09ABFB3
:1063E00083884B808369CB60C06908614D70002A47
:1063F000F2D070BD4FF6FF7048804D701868FFF7FF
:106400000BFF0028F5D0A1690029F2D0BDE870404B
:1064100008478268CA60C0680861DDE7C42C0020B4
:106420008468002014A107007CB5054608880C4646
:106430000930904201D90C207CBD684671DF0028EC
:10644000FAD121880820685420881B21401C80B282
:10645000208029542088401C80B220802844DDF808
:1064600001100160BDF8051081802088801D80B278
:1064700020809DF8001001B1012129542088401C82
:10648000208000207CBD000030B585B00D460400A2
:1064900033D08DB3286878B3194B4FF6FF70208046
:1064A0000FCB0DF1040C8CE80F0049F23000ADF871
:1064B000000001A8811E63DF00281BD1A21C6946D1
:1064C0000120A0DF002815D19DF802002071204690
:1064D00001F056FB00280DD1204601F0B0F900284C
:1064E00008D128682062686800B16062054901200F
:1064F0000870002005B030BDFFE70E20FAE700006D
:1065000004A107007C2C00203EB5002834D00029CF
:1065100032D0026A002A2FD00A88102A1BD0112AF2
:106520002BD0502A19D0512A26D1044611F8060F33
:10653000022821D14888E28990421DD12046891C39
:1065400002F096FC002817D0616A002914D003B02D
:10655000BDE830400847898811E0CA88C3889A425C
:106560000AD109228DF800200A7C12318DF804200E
:106570000291026A694690473EBD4FF6FF71018065
:106580003EBD000070B588B050B30288A2F57F43CD
:10659000FF3B27D0144A127822B3134B11225B1C05
:1065A0000E0A1A7059709E700E0CDE70090E0024CF
:1065B000197101250521ADF8181000940194029479
:1065C0000394C189ADF8001006A9CDE902138DF836
:1065D0000250ADF8044000886946A6DF08B070BDDF
:1065E0000E20FBE70820F9E77C2C002030B585B0B1
:1065F00028B30388A3F57F44FF3C22D0124B1B78BD
:10660000FBB1114B10255B1C00241D7059709A7052
:1066100001250321ADF81010009401940294039415
:10662000C189ADF8001004A9CDE902138DF802501C
:10663000ADF8044000886946A6DF05B030BD0E20E5
:10664000FBE70820F9E700007C2C00207FB504461A
:1066500001208DF8060041F60A00ADF80400454A15
:1066600001A90120A0DF00287ED1228804F13C0589
:1066700052B140482B46801C009042F629206168A8
:1066800000F068FC002873D1228952B139482B46AA
:106690000A30009042F62420E16800F05BFC0028FC
:1066A00066D1228A52B133482B461230009042F60E
:1066B0002520616900F04EFC002859D1228B52B18F
:1066C0002C482B461A30009042F62720E16900F052
:1066D00041FC00284CD1228C52B126482B46223056
:1066E000009042F62620616A00F034FC00283FD179
:1066F000228D52B11F482B462A30009042F62820A6
:10670000E16A00F027FC002832D1216B71B102A8A8
:1067100003F0A6FA17482B4632300090082202A94F
:1067200042F6232000F016FC002821D1606B58B1FE
:1067300010492B463A3100910279016842F62A202D
:1067400000F008FC002813D1A16B81B102A802F06F
:1067500095FD08482B4642300090072202A942F6D8
:10676000502000F0F7FB00E002E0002800D10020FC
:1067700004B070BDD82C002010B50446FFF712FEFF
:1067800021460448FFF7C0FE2046BDE8104002F055
:1067900037BB0000F830002030B51C498BB00A1D13
:1067A0000DF1140C3CCA8CE83C000968099120B139
:1067B00005A818DF08B1FFF7D5FB4FF4EA2013DF77
:1067C00008B1FFF7CFFB00234822114909A803F0C5
:1067D000CDF908B1FFF7C6FB6A460121002003F09E
:1067E000AFF908B1FFF7BEFB01208DF80C00684639
:1067F00003F09CF908B1FFF7B5FB064803F0DAF99E
:10680000002801D0FFF7AEFB0BB030BD18A1070088
:10681000746A00205D9C0700F8B54FF44056B068DC
:10682000D0E90054684600F009FA00980078012881
:1068300002D008B1FF2811D1A8070FD1A5F100554A
:10684000B5F1011F0AD2E00709D0B068A04205D80F
:10685000C0F5E42100EB5100A04201D80020F8BDB2
:106860000120F8BD11DF0849C0200860BFF34F8F39
:1068700006480168064A01F4E06111430160BFF374
:106880004F8F00BFFDE700001C0500400CED00E04D
:106890000400FA0508B5684600F0D0F900980178C0
:1068A000A52904D04078AA2801D0002008BD0120E5
:1068B00008BD10B501F053FA18B900F0F4FE002835
:1068C00010D001F00FFA08B1FFF74CFB01F047FAC6
:1068D00008B1FFF747FB00F0C7FE041E01D0FFF729
:1068E00041FB204610BD000000B587B014220849C6
:1068F00001A8FEF742FE05980DF1040C00909CE8FB
:106900000F0000F037F803F0C5FB07B0002000BD12
:10691000DCA007002DE9F0410746124C00200E468E
:106920001546E0700146104A1048FFF7DBFBA0B99E
:10693000C4E9025601F07CF878B90C4800223946C7
:106940000068FFF729FC40B9094802F017FF01F081
:10695000E7FA03F09FFBE07810B10020BDE8F0817A
:106960000120FBE7042C0020456B0700C8A00700AE
:10697000FD6B07002DE9F84305460E4617461C46F9
:106980006846DDF8209000F059F915F0FF013C4809
:10699000DFF8F0804FF001054FF002024FF0FE03E8
:1069A00018D001291CD0032924D00024022934D076
:1069B000062945D0FD2204294ED0052955D00729A6
:1069C00029D198F80100B0B301F0A4FA052088F8A5
:1069D00002001EE044600570437088F8022040E029
:1069E000F11921444160A52101704370C0F8149051
:1069F000866007E000990B78037049684160AA211E
:106A000041708660C0E9037488F802201C4800F0D9
:106A100080F888F80350BDE8F883009E317801299A
:106A20000AD049B1FF2907D04460037043708460E5
:106A3000C4600461E8E71FE0017071684160F5E738
:106A400098F8010028B101F065FA042088F80200E6
:106A5000E1E701F041FAF8E74460027000994978F3
:106A60004170074800F055F8D5E700990B7803709E
:106A7000496841604270F4E701F02EFAA6E7000091
:106A8000C42D0020042C002010B501F0EFFBBDE860
:106A900010400249012001F0F9BB00009D81070070
:106AA0002DE9FF4100244FF4405825462646D8F8EA
:106AB000087008E0320B01200021FEF74FFD04436F
:106AC0000D4306F58056B742F4D809480560001F0B
:106AD0000460084B0FCB8DE80F00684618DF444672
:106AE000D8F8080013DFA06800F0A6F8BDE8FF8121
:106AF00004060040CCA0070038B50446684600F004
:106B00009DF800980021425C6254491C1829FAD370
:106B100038BD70B505464FF4FC24182221460120EB
:106B200001F09CFB08B1FFF71DFA18232A46214605
:106B3000012001F0B3FB002803D0BDE87040FFF74F
:106B400011BA70BD0548807808B1012804D1002130
:106B5000034A0846FFF760BA70470000042C002083
:106B60000B5B07000148806800F014B8042C00207B
:106B700010B5074CA07828B9607808B902F058FD24
:106B80000120A070E068BDE8104000F003B80000EC
:106B9000042C002070B505460948807804280CD0E4
:106BA000084C2068FFF738FB002807D129462068E9
:106BB000BDE870400022FFF7EFBA082070BD00006A
:106BC000042C0020C8A0070001480068FFF724BB80
:106BD000C8A0070010B5084CA0786178084309D117
:106BE00001F07AF901206070FFF7C2FFBDE81040A4
:106BF00001F0C8B910BD0000042C002070B50C4A8B
:106C00000025141F2178515C814200D02570217825
:106C1000525C824201D1491C2170C8B2042805D1BE
:106C20000021044A0846FFF7F7F9257070BD0000FF
:106C3000082C0020D56B0700FEF764BC01490160F9
:106C40007047000000E007002DE9F04F85B00646D0
:106C50004FF0000BDFF8C8924FE16278012A43D071
:106C6000022A7DD0032AF7D1DDE02078AC49C0F1BB
:106C7000080224310144736830469847002870DBCD
:106C80002178C1F10801814208D099F80020104410
:106C900089F80000012005B0BDE8F08FA04D5946ED
:106CA000243595F807C00CF07F03DA0F0620120296
:106CB00042EA13622F5C1B02FB184A41401E40B29D
:106CC0000028F4DA5FEA0C6003D500205B4260EB39
:106CD0000202B06A06EBC000C0E9043284F800B0DA
:106CE000B06A401CB06200E0B06A0328BDDBD6E9A0
:106CF00004206169531840EBE17061684FEAE1726A
:106D0000C91A82412DDB0220C6F828B06070F4E079
:106D10004F464FF0000AD7E90232D01AB0EB040C0C
:106D20007BEB050C01DA04465D46D017111B70EBB6
:106D3000050101DA0546144638692246C118736810
:106D40003046984700280CDBC11780EA040281EA2C
:106D500005031A4303D04FF0010A04460D4601E033
:106D600057E083E0BB68019300933B690293D7F837
:106D70001C80CDF810803B6A002003930146B94681
:106D8000D7F818E01AE000BF18EB000351EBE872E7
:106D900011D44FEAEE7CB3EB0E0772EB0C020ADA69
:106DA000009A029FDDF80CC01218BF5C1CF803307B
:106DB0003B44029FBB54401C41F10001021B71EB9C
:106DC0000502E1DB01990919C9F80810D9F8142066
:106DD0001219C9F81420049A1219C9F81C20D6E90E
:106DE00004321B1B62EB0502C6E90432D9F80C0021
:106DF000814209D14C46B268D4E903104FF0020A2F
:106E00009047C4F808B002E0BAF1000F01D0504634
:106E100041E7D6E9044554EA05007FF479AF032140
:106E200089F8011069E0D6E90657CA1769187A414E
:106E3000C317401A934119DBD4E90210401A421BD0
:106E40007BEB070101DA5F460546C846D6E9061026
:106E5000014348D0D8F81010D8F8080073680144EE
:106E600000242A4630469847002802DA4FF0FF30C7
:106E700011E7C11780EA050281EA07031A4302D02D
:106E8000012405460F46D8F8081040464A19C8F8AC
:106E90000820D8F80C108A4207D1B2680224D8F82A
:106EA000100090474046C8F808B0014640694019B4
:106EB0004861D6E90620521B60EB0700C6E90620B0
:106EC0000CB12046E7E6531B70EB070301DA0746D7
:106ED0001546C8688968401A421B7BEB0702B5DA81
:106EE00005465F46B2E7326AD8F81C105118C8F858
:106EF0001C104FF0010188F80110D9F81410D9F8CE
:106F000004004C468142FFF6A8AEA16831B1B268D8
:106F1000206990470220C4F808B0BCE60020BAE619
:106F20008C2C002001484069704700008C2C002008
:106F300030B5074C039DA1610021E161C4E9013135
:106F4000616121702062C4E903520120607030BD8C
:106F50008C2C00202DE9F0438FB01E46DDF85890B0
:106F600015460F00804602D10020FEF7FBFF15B941
:106F70000020FEF7F7FF1C216846FEF717FB0024F0
:106F80009DF80000039440F002008DF800000120FD
:106F900001948DF83600049405940694ADF834807D
:106FA0000C9430788DF8300070788DF831009DF8B1
:106FB0003200142120F00600801C20F019008DF80A
:106FC000320007A8FEF7F2FA0DA807900CA8089067
:106FD0000748ADF82450ADF82640ADF828500B977F
:106FE0004B4607AA69460088A2DF0FB0BDE8F083D0
:106FF000D82C00202DE9F04142EA0304069EA407A4
:1070000002D01020BDE8F0810E4C2578102D01D360
:107010000420F7E767783D4405F00F0505EB85058B
:1070200004EB8505287169710020C5E90460C5E994
:1070300002232078411C217008B900F005F80020D7
:10704000E0E700006C6C002070B519480178002959
:1070500019D0417801EB810100EB81046079241D96
:10706000022811D004280ED1216960684FF08055A4
:1070700008442969B0FBF1F028DF112803D020690A
:1070800029690844206170BDD4E903100D1A4FF43A
:1070900080518D4200DD0D46A168626801441044B4
:1070A000AA0829DF1128EED020692844EAE7000069
:1070B0006C6C00202DE9F05F2648C168F1B3DFF861
:1070C00098B00E688146DBF800400769C078E11B84
:1070D00021F07F45ED1CB0B9DFF880804FF480309F
:1070E000C8F84403C8F804031120FEF760FB112020
:1070F000FEF773FB4FF0010AC8F800A02F20FEF73F
:10710000C5F989F803A0B54200D23546124BE819FB
:107110003C3320F07F401860DBF800105A46091B12
:1071200021F07F41001B20F07F40C91C81420FD914
:10713000106818602F20FEF7A9F900E004E0BDE810
:10714000F05F1120FEF754BBBDE8F05F02F01CBBFE
:10715000BDE8F09F342D00200415014000100140CF
:107160002DE9F04102F05CFF00281DD10A22002128
:107170002C48FEF749FEB0B12B4E01200503F070FC
:1071800028484FF4FE272A463946FE30FEF7F5F927
:10719000244C1022FE3404F57E6000218046FEF768
:1071A00033FE48B902E00B20BDE8F0811022FF2138
:1071B0004046FEF729FE18B129462046FEF7F6F9AB
:1071C0001848102200211638FEF71EFE30B9154966
:1071D00004F57E6816390FC988E80F0011480622A9
:1071E0000021801FFEF710FE68B90E4900205239B9
:1071F0000A18C0F10503234492F84C20401C83F880
:10720000F02F0628F4DB2A463946002001F026F844
:107210002B4622463946002001F040F803207070CA
:107220000020C1E7AE310020542C00202DE9F041B0
:1072300017880646B81D14460D46984202D90C2000
:10724000BDE8F0813188072206290AD34FF4486C43
:107250004FF6FF73614501D9994202D17088062823
:1072600001D21046ECE7604501D99842F9D1994224
:1072700003D0984201D08142F3D80520E8552088F8
:107280001221401C80B2208029542088401C80B2EA
:1072900020804119308802F0D5FD2188084480B251
:1072A00020804119708802F0CDFD2188084420809B
:1072B0000020C5E7FEF756BE30B5144C87B04FF43A
:1072C000C870E08018206080102020800025A580F4
:1072D0001C216846FEF76AF940F6CD40CDE9004032
:1072E0004FF48040029003208DF80C000848ADF860
:1072F0000E508DF81050CDE905506846FFF726F87E
:10730000002801D0FEF72EFE07B030BD4A2C002029
:10731000B5720700F8B5134801F0E6F9114D0026E3
:10732000114C0C3D30B16169B9B101208DF80000FC
:10733000684611E0287820B1616971B18DF800606C
:10734000F6E7687858B1A168084800220068FEF79F
:1073500023FF10B1A16901B188472E70F8BD6168A3
:10736000F2E70000D02C00208468002014A1070060
:1073700070B500235A1E094E0BE0C45C624007241E
:1073800002F001056D42354085EA5202641EF7D5D0
:107390005B1C8B42F1D3D04370BD00002083B8ED5D
:1073A00000F002B8002070472DE9F0410746586808
:1073B0001C46401E15460E46102806D2A16800291C
:1073C00003DB04F12408102935DD1020BDE8F0812D
:1073D000D4E90101814201D0084622E0E16869B99F
:1073E000002007E02218117D491C11F0FF011175E2
:1073F0000FD1401C21698142F4DC0AE02169401E62
:10740000814206DC2218117D491C11F0FF01117523
:10741000F4D0414604F1140001F062FA0028D5D1FD
:10742000A060421CA26010F8080017F8011B484039
:1074300006F8010B6D1E002DCAD10020C6E72DE90C
:10744000F0410E46DDE90754074615F0FF0F01D065
:10745000E8B200E010202061102802DD1020BDE815
:10746000F081E90402D5C0F110002061104601F05E
:107470004FFA1020C4E900700020A06005F480508D
:10748000E06000202218315C11756168401C814267
:10749000F8DCA8041AD5E06848B1481E13E02218A9
:1074A000117D491C11F0FF0111750FD1401C21699C
:1074B0008142F4DC0AE02218117D491C11F0FF0121
:1074C000117503D1401E21698142F4DD04F12401CC
:1074D00004F11400BDE8F04101F002BA024610B513
:1074E0000B461146034800F073FD002800D0082029
:1074F00010BD0000C431002010B58AB008A802F009
:1075000025F8224C80B1224A0C23102102F10C00F4
:107510008DE80F000B4600218830089A00F0A5FD89
:1075200080B106200AB010BD0020A070202168465E
:10753000FEF73CF81648202269460C30FEF748F862
:1075400008BB0FE04FF44050E1698068884206D1E3
:107550006846FFF7D1FA9DF80000FD2813D10120FD
:10756000A07001E0A07850B120216846FEF71EF817
:107570000748202269460C30FEF72AF818B1082087
:1075800060700020CEE70820CCE70000542C0020DB
:107590003031002008B5102000900E488078002877
:1075A00016D00D496A4601F1A40000F028FD70B91B
:1075B000009810280BD1084910222C31064802F0FF
:1075C00017FC20B94FF4FE200068002800D00B20E3
:1075D00008BD0000542C00202031002038B50F4C8D
:1075E0004FF440550020A268A96800F037FE08B1AA
:1075F000FEF7B8FCA968A368C1F5E42001EB5002CE
:10760000002000F04BFE050006D1002363F30700C5
:10761000A3680096FFF7AEF9284638BD3031002048
:1076200008B5054B032161F307000ECB0094FFF76B
:10763000A1F9002008BD00003031002038B5094B09
:10764000012060F30704186801F0E2FA4FF440519A
:10765000896808440ECB00902046FFF78BF9002084
:1076600038BD00003031002000B58BB004A8FFF712
:1076700043FA079800280CD0069860B1069909983B
:1076800008440021CDE90010079880080290684660
:1076900018DF0BB000BD4FF440508068C0F5E42106
:1076A00000EB5100EDE700B58BB004A8FFF724FA1A
:1076B000079800280FD0069878B1069909980844D1
:1076C000032100914FF4EA21CDE9011007988008C9
:1076D0000390684618DF0BB000BD4FF4405080683F
:1076E000C0F5E42100EB5100EAE7000010B50A46BE
:1076F000022810D003281DD005281BD0072819D137
:1077000082B10B21104601F016FA01460B20BDE8AC
:10771000104001F0A3BE0121104601F00CFA014611
:107720000120F4E704480078002803D1BDE81040A8
:1077300001F0A0BC10BD0000142C002010B50B46B9
:107740000146022823D01E4803290ED0052925D042
:10775000072933D14BB30B21184601F008FA024632
:107760000B211848FEF742FF07E063B1C088A0F57F
:107770007F41FF3922D0132176DF00281ED0BDE8DB
:107780001040FEF7EFBB1046FDF774FFF5E701214F
:10779000184601F0ECF902460121E2E709211846FA
:1077A00001F0E5F902460921DBE7C078002805D1A0
:1077B000BDE810400021034801F088BC10BD000066
:1077C000302C0020F83000201FB503230093CDE9B2
:1077D000010190080390684618DF04B010BD000056
:1077E00010B504460E484178012903D0022905D07E
:1077F000082010BD0021418102214170FFF7B2F93C
:107800000028F6D1064B5C220A330649204600F0D8
:107810003FFA0028EDD1BDE81040FFF7A1BC000001
:10782000542C00205C3100201FB501230093CDE9CA
:10783000010190080390684618DF04B010BD30B510
:107840008FB005461C216846FDF7B0FE00249DF868
:107850000000019440F018008DF800000394049497
:107860000594069428798DF8360049F23200ADF877
:1078700034000C949DF83000142120F0FF008DF8A6
:1078800030009DF8310020F00F00401C20F0F00087
:1078900010308DF831009DF8320020F00600801C79
:1078A00020F0080040F011008DF8320007A8FDF725
:1078B0007DFE0DA807900CA80890ADF82440172075
:1078C000ADF82640ADF828000B94688805F10E034A
:1078D00007AA6946A2DF0FB030BD000070B50600F0
:1078E00004D0307A800703D0102070BD0E2070BD08
:1078F0002148224C006850B14FF44051E269896838
:10790000914204D101F084F9E1690844E0616078B2
:10791000082803D0092803D0082070BD0920607012
:1079200070686169850020692844884204D94FF055
:10793000FF3020610C2070BDFFF714F90028FAD148
:10794000B668A07828B129463046FFF7C7FD002861
:10795000F1D12169E0692B4601443246002000F054
:107960009DFC0028E7D12169294421616269914287
:10797000E1D0092070BD000030310020542C0020DF
:1079800010B50A4604460321104601F0F0F80246FD
:1079900003212046FEF72AFE002803D0BDE8104050
:1079A000FEF7E0BA10BD0000074810B540780C287B
:1079B00001D0082010BDFFF707F9034820304068C8
:1079C000BDE8104000470000542C002070B5164C54
:1079D00000256078092802D00A2806D101250B204D
:1079E0006070D4E90401884201D0082070BDFFF71F
:1079F000B9F80028FAD1FFF7CDFD70B97DB14FF489
:107A000040508068C0F5E42100EB51006169FFF748
:107A1000AFFC06494968814201D00B2070BD0C20A3
:107A20006070002070BD0000542C0020B831002090
:107A300030B587B01949002000F028FC01A8FFF7F5
:107A40005BF89DF805100025154C4FF44050FD29BA
:107A500007D18168C1F5E42201EB52010968491C94
:107A600016D08068C0F5E42200EB520152080020D5
:107A700000F0F4FB10B1657007B030BD0521304651
:107A8000334661F307001A4611460097FEF772FF6E
:107A900025612571012060700020EDE7BD810700A0
:107AA000542C002010B504460F484178062902D016
:107AB000072906D103E000210181072141700069F7
:107AC00008B1082010BDFFF74DF80028FAD1064B89
:107AD000202208330549204600F0DAF80028F1D1C9
:107AE000BDE81040FFF708BD542C00203C310020B9
:107AF00070B50F4C05460E4660780A2801D0082064
:107B000070BDFFF72FF80028FAD16DB1A07828B129
:107B100031462846FFF7E2FC0028F1D131462846DD
:107B200001F04CFB0128EBD0BDE8704001F08EBBAA
:107B3000542C002010B504460F484178082902D083
:107B40000D2906D103E0002181810D2141700069DA
:107B500008B1082010BDFFF705F80028FAD1064B40
:107B60000C220C330549204600F092F80028F1D190
:107B7000BDE8104001F0DEBA542C0020B8310020DE
:107B800030B58FB005461C216846FDF70FFD002477
:107B90009DF80000019440F00E008DF80000039461
:107BA00004940594069428798DF8360049F2310042
:107BB000ADF834000C949DF83000142120F00F0033
:107BC000401C20F0F00010308DF830009DF831009E
:107BD00020F00F00401C20F0F00010308DF8310034
:107BE0009DF8320020F00600801C20F0180040F0C4
:107BF00001008DF8320007A8FDF7D8FC0DA807900A
:107C00000CA808901420ADF826400B94ADF8240081
:107C1000ADF828006888AB1D07AA6946A2DF0FB03F
:107C200030BD000010B54FF440500D4C806886B058
:107C3000C0F5E42100EB5100E0610620607020797E
:107C400010B16846FEF758FFA369002B06D006B0B6
:107C50000022BDE8104011460220184706B010BDB2
:107C6000542C002010B54FF440500522816807487D
:107C7000C16142704269002000F0F0FA002803D090
:107C8000BDE81040FEF76EB910BD0000542C002076
:107C900070B5164642681D4694001A881319B342FF
:107CA00001DD0C2070BD8368501822461946FDF78F
:107CB00064FC2888204480B22880B04201D009208A
:107CC00070BD002070BD0000014988617047000050
:107CD000542C002038B5072565F307000094FEF703
:107CE00049FE38BD2DE9F04186B06846FEF704FF35
:107CF000029800282BD0059A00F580504FF480514F
:107D0000904227D9A2F5805044081046029A00EB11
:107D1000440687184FF440500D46806801EB440834
:107D200090420ED204F5805004220146FFF77CFDFC
:107D300000280CD1294604220846FFF775FD0028CB
:107D400005D1BA1B23464146304600F038F806B04C
:107D5000BDE8F081029A0598FFF766FDF7E730B5B8
:107D60008FB002A8FEF7C8FE0498002817D0079A23
:107D700000F580504FF48051904216D9A2F5805002
:107D8000430810464FF44054049AA468049D0244EA
:107D900000EB430001EB4301AC4202D20E200FB0D6
:107DA00030BD121A00F00BF8F9E70AAB032083E8A4
:107DB0000700049880080D900AA818DFEFE72DE966
:107DC000F0411C4617460D460646FFF7FDFC00280D
:107DD00018D0B5F5805F07D92346291B301B1A46FA
:107DE000FFF7EDFF00280DD13A4629463046FFF750
:107DF0001BFD002806D13A4629463046BDE8F04131
:107E0000FFF7E2BCBDE8F081014800787047000050
:107E1000542C002070B5294C05466078012803D009
:107E2000042805D0082070BD0020E0800420607088
:107E3000FEF798FE0028F6D1204B0C229B1D20490E
:107E40002846FFF725FF0028EDD11D48816819B1AC
:107E500002684AB942683AB903689A0704D142688D
:107E6000900701D1880701D0062070BD98180844FA
:107E70006061B2F5104F13D810494FF440542031CF
:107E800043B1A268C2F5E222824209D30D4A0A60D8
:107E90000D4A0DE0A368C3F5E423B0EB530F01D9FD
:107EA0000C2070BD094B0B600AB1094A00E0094A79
:107EB0004A6009688847002070BD0000542C0020EB
:107EC00030310020657C07003D760700257C0700E7
:107ED00021760700DD75070010B50D4CE088A0F590
:107EE0007F41FF3905D0132176DF50B1FEF73AF814
:107EF00007E0A07828B174DF08B1FEF733F800205E
:107F0000A070FEF76DF808B1FEF72CF8002010BD48
:107F1000302C002010B501F08BFB002010BD0000BC
:107F2000154910B500200871144801F0F5FD00282E
:107F300020D11348FFF7C8FEFDF788FB002819D1B0
:107F400000F0E4F901F0D8FCFDF716FFFFF7B4F9F3
:107F500009481430017821F0720141F001013031FB
:107F600021F0800101700721417010218170FDF71F
:107F700039FF002010BD0000302C00207967070079
:107F80003D77070010B501F0BFFB0A4801F0F6FB92
:107F900009A001F0AFFB01F0EFFA01F0ABFB0D20FF
:107FA00001F0A6FB0A2001F0A3FB0848FFF78CFEB6
:107FB000002010BD159E07005269674466752F3377
:107FC0002E322E3320283435292F0000ED7607007D
:107FD0002DE9F041164604461D460F461A469830D4
:107FE00000F0D2FE002808D104F110032A463146E1
:107FF0003846BDE8F041FFF7D3B9BDE8F081F0B5F0
:1080000089B00446102015460E46089008AA04A917
:1080100004F1980000F012FE002824D108AA694655
:1080200004F1480000F00AFE00281CD104F1100001
:10803000FFF7B8F9002816D100236A4604AF089864
:108040000AE0E15C12F803C081EA0C0117F803C0F2
:1080500081EA0C01F1545B1C834202D229689942E7
:10806000EFD800202B6009B0F0BD2DE9FF4F9FB085
:108070008946DDE92CBA044607AD10260BAF314620
:108080002846DDF8BC8002F017F8DDE921234946D7
:10809000384600F025FE00285DD132462946384694
:1080A00000F072FE002856D152465946384600F07C
:1080B0006BFE00284FD11020059005AA21463846B6
:1080C00000F0BCFD002846D11021284601F0F4FF45
:1080D00001208DF82B00DDE9212304F148004946F9
:1080E000074600F0FDFD002835D1324629463846C6
:1080F00000F04AFE00282ED1B8F1000006D002465A
:1081000038462E9900F040FE002824D104F11002D8
:108110004FF4805100208DE80700DDE9212321463E
:108120004846FFF78CF9002815D1DDE9212304F139
:1081300098004946044600F0D3FD00280BD11021D9
:10814000284601F0B9FF02208DF82B00324629465F
:10815000204600F019FE23B0BDE8F08F0E4910B59F
:108160004A788C780023A24212D0521CD2B24A70B4
:10817000022A00D14B70084A4B78183252F823205B
:1081800002600869104420F07F400861012010BDA2
:108190000360002010BD0000342D002006488378C5
:1081A000022B03D1022901D103218170100001D0DB
:1081B000FDF7D8BE70470000042C002070B5254C98
:1081C0001E4686B0A3691546CBB3224602295278D3
:1081D00002D0042934D117E0092A04D0032A06D09A
:1081E0000A2A0DD02CE032462946032006E0002062
:1081F000E0700120207032462946052098471FE094
:10820000324629460720F9E7052A19D14FF4405193
:108210008968814214D114220F4901A8FDF7ADF9F4
:1082200005980DF1040C00909CE80F00FEF7A2FBEE
:1082300006206070324629460220A369DEE7FFE788
:10824000280004D006B0BDE87040FDF78BBE06B034
:1082500070BD0000542C0020F0A0070008B50023DA
:1082600000920A460421FEF7C5FE08BD10B54FF482
:10827000A2710448FDF79AF90348002101604160AA
:1082800010BD00006C6C00206C2D0020024A42F8EA
:1082900020100020704700006C2D002008B50093CE
:1082A00013460A460221FEF7A5FE08BD70B5154D1E
:1082B0002978002924D069780D2201EB810105EB92
:1082C0008104241D022804D1D4E90301814213DB77
:1082D0000022D4E90103617824780B4E56F824403B
:1082E000A0476878401C00F00F0068702878401E96
:1082F00010F0FF00287003D0BDE87040FEF7A4BE68
:1083000070BD00006C6C00206C2D002010B586B094
:108310001DA19DF8100020F00F00401C20F0F0007F
:1083200010308DF81000062204A87CDF08B1FDF79C
:1083300019FE0020029003901021ADF80C00ADF85A
:1083400008104FF4C8701821ADF80E00ADF80A10EF
:1083500002A87ADF08B1FDF705FE0DF1010001F07A
:1083600037F9012428B18DF80040684601F052F930
:1083700004E0684601F04EF98DF80040694600209F
:1083800070DF06B010BD00005269674466750000DA
:10839000FEB5044688781D46801EC3B2980701D0FA
:1083A000032125E000200C2C12D2DFE804F0110696
:1083B000080A11111111110C0E10022008E0012001
:1083C00006E0032004E0052002E0062000E007208C
:1083D00000909808091DCDE90101684690470928D9
:1083E00009D050EA050106D0214600F0A4FB014661
:1083F000204601F033F8FEBDFEB516460546DDE920
:1084000008240879800701D0032210E000938868CF
:1084100002900879800801906846904709280ED09C
:1084200050EA04010BD0314600F0A1FB0246314670
:108430002846FEF7DBF8002801D0FDF793FDFEBDCE
:10844000F0B5002213464FF6FF740F292DD805888A
:108450003DBB077B4E1E0125B540AF4225DB20E02A
:10846000057B9DB9068806B3458800F10D0705F127
:10847000010C1FFA8CFCA0F802C0ED5DC572B4457A
:1084800002D100254580058080250573C67AEDB2AE
:1084900004EA42022E4201D042F001026D08057347
:1084A0005B1C8B42DCDB1046F0BD2046F0BD2DE9A5
:1084B000F04F89B01D461746040017D0B1B1ADB1D9
:1084C0004FF00009C5F80090CDE904174FF0020BFA
:1084D0004FF6FF784FF0050A0695A67A072E76D25A
:1084E000DFE806F0091C3945546070004FF0FF309A
:1084F00009B0BDE8F08F01212046FFF7A1FF4045FC
:1085000001D1484601E020BB2BE0A072C0B2B042CE
:10851000E3D12868B8425DD10120E9E704A80290C0
:10852000069805990068884213D208212046FFF773
:1085300087FF40450DD0C2B2208904F1D501C0F3B8
:108540000903401C2081CA542046029900F048FFCC
:10855000D7E70120D9E759462046FFF771FF40458C
:1085600001D15846D1E708EA0021E18005E0082161
:108570002046FFF765FF404501D10320C5E7E188AC
:108580000143491CE180A4F8049012E049462046CA
:10859000FFF756FF404501D10420B6E708EA002165
:1085A000A18006E008212046FFF74AFF014640452A
:1085B00001D15046A9E7A0880843401CA0800620AE
:1085C000A3E704E004A9204601F0FEFA9DE76FF05E
:1085D00001008DE700208BE710B504464FF4996148
:1085E0000D30FCF7E3FF0020A07220806080207334
:1085F000E072A080E080208110BD70B51D4613465A
:10860000040019D0C1B1BDB12088D0F1C80216D084
:108610009A4200D31A46164604F10D02104432461F
:10862000FCF7ABFF2088304420802E602088D0F1FA
:10863000C80006D0002070BD4FF0FF3070BD002094
:108640002860012070BD000008B5002000906B4636
:108650000448FFF72CFF002802DA4FF0FF3008BD76
:10866000009808BD486300200A2801D2303000E09D
:108670005730C0B270470000F8B51A4C2078002877
:108680002ED0206928B10026E06820B1002526B14F
:1086900010E00126F8E70125F9E7684652DF0528D2
:1086A00003D020B1FDF75EFC04E0012602E0216961
:1086B0000098884785B96088ADF800006946A068D1
:1086C00061DF052803D020B1FDF74CFC04E0012553
:1086D00002E0D4E902018847002EDED0002DD6D07A
:1086E000F8BD0000542D0020054940880A889042BA
:1086F00004D34988884201D8012070470020704780
:10870000C82C002030B51488E51C9D4201D90C20EE
:1087100030BD02250D5513881C245B1C9BB21380B1
:10872000CC5413885B1C9BB21380012807D002280D
:1087300007D0032807D0042807D0072030BD002029
:1087400004E0012002E0CD5401E00320C854108869
:10875000401C1080002030BD2DE9F047DFF8ACA0B0
:10876000DAF80C009AF8004080469AF80460DAF8CB
:108770000890DAF810703AE009EBC4052A7833E083
:1087800002EB42016B68521C03EBC101AB78D2B221
:10879000934200D100220B78022B02D0032B23D16D
:1087A0001FE0D1F804C00346014603E0614503D051
:1087B0000B46C969C1B1F9E7B1B18B4205D1C069B6
:1087C00018B9134F0126BE600027D1F800C0C9694F
:1087D000D96149B10B6863440B6005E00174C0695D
:1087E00000E000210028F9D169789142C8D1641EC7
:1087F000E4B2C1D2CAE903078AF80460404502D056
:108800000120BDE8F0870020FBE70000342D0020A8
:10881000001001402DE9F04705462F48002680460C
:108820000778D0F80C904BE0D8F8080000EBC704AC
:1088300040E002D02846ED691EE02078616800EB38
:108840004002401CC0B201EBC2012070A2789042ED
:1088500000D126700A784868012A2DD1027C5ABBC3
:108860008A684260CA6882600A69C2604969816137
:1088700098F8041001B146604268D8F81030DFF86B
:108880005CC0D11A21F07F41614502D28268114457
:1088900006E0991A826821F07F418A4202D9511A72
:1088A000016000E006604660012186600174C661D7
:1088B00001F03EFA002DBCD1207861788842BCD10D
:1088C0007F1EFFB2B0D2D8F80C10494502D001206B
:1088D000BDE8F0870020FBE7342D0020FFFF7F007C
:1088E00010B50C46014610220848FCF746FE074822
:1088F00010384DDF08B1012010BD0449102210319D
:108900002046FCF73AFE002010BD0000842D002018
:10891000014610220148FCF730BE0000742D0020F3
:1089200008B5684600F012FE08B101F091FA394F1F
:1089300000252E463868C4B2A4F1C0000F2808D81C
:10894000FDF76AFF28B1386800F00F003860FEF7C5
:10895000A7F8B12C02D0B22C02D003E0012501E02F
:1089600001252E46642000F0D9F800232A4A05216B
:108970001846FDF7C9FB08B1FDF7F4FAFEF784F8D5
:10898000FDF788FF78B1FDF794FF08B1FDF7EAFA2B
:108990000120FDF701FF00F015FFFDF7A5FF38B13D
:1089A000FDF7E0FA04E00120FDF7F6FE00F00AFF13
:1089B000FF2045DF08B1FDF7D5FA4FF480344FF4BE
:1089C000F0284FF4A02715B9FDF726FF08B94FF49A
:1089D0007014304600F044FE3A4641462046FDF70A
:1089E00099FF044600F024FE24B1FDF715FF08B1FD
:1089F000FDF738FF01F0D4F80A2000F08FF8FFF7F8
:108A000003FA08B101F024FA0A2000F087F8FCF715
:108A10001BFF00001C050040AC68002070B5144628
:108A200082880E4605462088111D0144921C9942F9
:108A300001D8FE2A01D90C2070BD521C3254208866
:108A4000FF21401C80B2208031542088401C80B21D
:108A500020808119288801F0F5F92188084480B226
:108A60002080AA8842B1A96841B13044FCF785FD55
:108A70002088A98808442080002070BD072070BD90
:108A8000F8B50E46017814460546012901D16878EB
:108A900030B12088821C9A422DD8012902D006E0EC
:108AA0000720F8BD69780144891C994223D8181A17
:108AB000801E87B2ADF800702188B01C084469465A
:108AC0007DDF0028EDD12878022805D1BDF80010FF
:108AD000B94201D809210AE00821012805D16878A6
:108AE000B84202D8ADF8000001E0ADF80070BDF862
:108AF0000000FE2801D90C20F8BD2288401CB0548B
:108B00002088401C80B2208031542088401C208066
:108B1000BDF80010084420800020F8BD31B540F2B7
:108B2000E73404E0401E00902046FCF773FC0098F8
:108B30000028F7D138BD08280BD003DC38B106284F
:108B400011D108E00B280AD00C280CD105E0012037
:108B500070470220704703207047042070470429A3
:108B600003D00A2901D00620704705207047082845
:108B70000ED005DC50B1042816D0062804D109E037
:108B80000B280BD00C2807D0092070470120704714
:108B9000022070470320704704207047042901D049
:108BA0000A2903D1052070470B2901D00620704700
:108BB0000820704730B541EA4201DDE9034541EA4A
:108BC0008301800041EA042100F1A04041EA05410F
:108BD000C0F8001730BD0022800000F1A04042EA3A
:108BE0008101C0F8001770471CB500220B460092A7
:108BF00011460192FFF7DEFF1CBD1CB5002100915C
:108C00000B46012201911146FFF7D4FF1CBD000065
:108C1000094900200A684FF4405189688A4209D9FD
:108C2000511A080B00030905090D01D000F5805009
:108C300000F5805070470000303100202DE9F041F0
:108C40000E46416815460446112906D2A268102A2C
:108C500003DC04F10C00914203DD4FF01000BDE88D
:108C6000F08113D001F1010262604FF080030B54D8
:108C70004FF0000204E000BF01F1010363600A54F9
:108C8000D4E901139942F7DB012200E00022002120
:108C900004EB02130DE0621803EB010C177F9CF844
:108CA0002CC0491C87EA0C0792F80CC087EA0C0715
:108CB0001773A2688A42EED80146FFF711FE00281A
:108CC000CDD103E02118097B3154401CA1688142B9
:108CD00002D929688142F5D828600020BFE700004A
:108CE0002DE9F04704468A464FF0870910251046C3
:108CF000FFF70EFE04F12C001021064601F0DCF90E
:108D000031460846FFF7ECFD002834D1B5F10106E5
:108D100004EB001292F82C10CF0900210BE053183D
:108D2000491C93F82CC093F82D804FEA4C0C4CEA68
:108D3000D81C83F82CC0B142F1DB0FB14B4600E0E8
:108D40000023511911F82B2F83EA42020A70A0B1B7
:108D5000401C0228DCDB0020C4F800A0C4E90105A7
:108D6000102104F11C0001F0A7F9102104F10C00FE
:108D700001F0A2F90020BDE8F0872C340FCC84E884
:108D80000F0001203C3CC3E72DE9F04188464168D3
:108D900015460446112906D2A068102803DC04F108
:108DA0000C06814228DD1020BDE8F081D4E90101E4
:108DB000884212D1002005E021180A7B0B7F5A401F
:108DC0000A73401CA1688142F6D804F11C013046A8
:108DD000FFF786FD0028E7D16060A1680F1AAF4257
:108DE00000D92F4630443A464146FCF7C6FB60683E
:108DF000ED1B3844B8446060002DD7D10020D3E784
:108E000070B51A4C05460188E088132923D006DC8A
:108E1000102913D0112917D12078B0B117E05229A9
:108E20001FD0552910D1A97900290DD1132176DF42
:108E3000002809D0BDE87040FDF794B8FDF798FE12
:108E4000A888E0800020A07070BDFCF7CBFF4FF633
:108E5000FF70E08070BD0023044A194614327FDFA2
:108E6000E6E700231A461946A9DFE1E7302C002087
:108E7000F0B58BB002274FF0010E04468DF80C7050
:108E80008DF812E00889ADF814004889ADF8160095
:108E900001F10C00002608960690ADF8207007A896
:108EA000ADF8226009900D46618A208808AAA5DFE6
:108EB00018B1616AC9B1884717E09DF81C0010F02D
:108EC000010F12D0ADF81060208803A9A8DF002898
:108ED00012D1297B0D2947D2DFE801F046131A1D74
:108EE0001F21234632102527290040F2FD10ADF83E
:108EF0001000208803A9A8DF0BB0F0BD8DF800603A
:108F000001E08DF800E0226A69462046904715E0AE
:108F10008DF80070F7E7032021E004201FE0052012
:108F20001DE006201BE00B2019E00C2017E00322B7
:108F30000C212046FDF75AFB0028DDD10020DBE79D
:108F40006889032805D2032208212046FDF74EFB3D
:108F5000D2E7B5F80D00ADF8040018B107208DF880
:108F60000000D0E70820FAE70322EEE770B50446D8
:108F70000B78012221480D2B28D2DFE803F02426AC
:108F8000282C071720363B31272A2E00FEF71EFD1E
:108F90000421FFF7ECFD024604212046FDF726FBE5
:108FA000002813D0BDE87040FCF7DCBFFEF794FF4B
:108FB00008B1FCF7D7FFFEF7F7FC002806D0BDE8A4
:108FC0007040FEF787BE062108E0027170BD0221E5
:108FD00004E0032102E0042100E00521017170BDDD
:108FE0002046BDE8704000F00BB8427089880181CE
:108FF000418170BD00214170018170BD302C002085
:109000007CB5174A012314790022072C12D2DFE81D
:1090100004F011040A1222181C00124BCDE9003290
:109020000223012204E0104ACDE900230123022299
:10903000FFF7E2F97CBD0D4ACDE9002306230A22A1
:10904000F6E7BDE87C4000F041B8094BCDE90032BD
:1090500005230922ECE7BDE87C40FCF70DBF0000CA
:10906000302C0020157E0700A57A0700357B07000D
:10907000E177070038B520B18178891EC9B2001D9B
:1090800001E000210846FEF733FD0F4C022812D004
:1090900003280AD0042810D00098C1B20B20FFF793
:1090A0004AFD01460B2000F0D9F900F0A1F8A168B3
:1090B0000844A06038BD0721F4E701210B2000F02F
:1090C000CDF901202070F0E7142C002070B5054682
:1090D00019B10A798868114601E000210846FEF7B7
:1090E00007FD134C02280ED0032806D0042814D004
:1090F00006220B212846FDF779FA00F079F8E1689D
:109100000844E06070BD07220B212846FDF76EFA87
:109110000028F2D0FCF726FFEFE701220B212846BA
:10912000FDF764FA08B1FCF71DFF0120E070E4E7E9
:10913000302C0020F0B58DB06846FDF7DDFC9DF8C1
:109140000000012802D008200DB0F0BD4FF44056B9
:109150000199B068FEF70CF914498968814201D081
:109160000B20F1E7124D114C0127883C2F7120682C
:1091700008B9606808B10620E6E70A20687018217F
:1091800006A8FCF713FAEF700A4809904FF48050D4
:109190000A90A0680890B068079001980690064869
:1091A0000B9006A800F026F80020CDE7B83100208B
:1091B000542C0020AC420020359C070008B50A461C
:1091C00001466B460848FFF718FA0849009B01283A
:1091D0000A681A440A6003D0002802DA4FF0FF3010
:1091E00008BD002008BD000048630020B82C002006
:1091F000FDF798BE38B504004FF0FF301CD0E16891
:10920000002919D06168002916D00C48FFF7E4F94D
:1092100020690090D4E90010D4E90232FDF788FEFD
:1092200030210748FCF7C2F90548064941606169E9
:10923000816005490020086038BD000048630020B7
:109240002068002049860700B82C002010B50A4885
:10925000FDF7FAFC012807D0411C07D0022808D0EE
:109260000028F4D1042010BD022010BD4FF0FF30C3
:1092700010BD032010BD00002068002070B50D0057
:10928000044602D10020FCF76DFE14B90020FCF763
:1092900069FE2878207069886170090AA170A98820
:1092A000E170090A2171E8886071000AA07170BD3F
:1092B00010B58178022942D3C4780D2C3FD2DFE863
:1092C00004F03E070A1018202C3E3E360D143000E4
:1092D00000231B4A2DE001231A4A2AE001231A4ADF
:1092E00027E0BDE81040FCF79BBDBDE81040FFF74C
:1092F000C1BEFEF76BFB0421FFF71DFC01460420F5
:1093000011E0FEF751FB04460521FFF714FC01466E
:10931000052000F0A3F8002C11D0BDE81040FEF7A6
:10932000D9BC03210C20BDE8104000F097B8074AD3
:10933000012301462046BDE81040FFF729B810BDC3
:10934000157E0700A57A0700357B0700E177070047
:109350002DE9F041204C0025012765701F4E32E0B9
:10936000AA2806D0E17859B1AB2807D0AC2804D0A0
:1093700004E0A7706560E57025E0AA20E57001E0D3
:10938000AB2808D0A178F1B1012906D0022908D074
:10939000032918D109E0E77015E0B0700220A07031
:1093A00011E0F0700320A07004E061687218491C9D
:1093B000107161606068B178801C814203DCA57027
:1093C0000648FFF775FF04480C3000F051F8411CC7
:1093D000C6D1BDE8F0810000142C0020DC2D002057
:1093E00010B50C6889680868431C0B60225410BDD6
:1093F0002DE9F04107460E460C46002008E0395C96
:10940000AA2901D0AB2901D1641CA4B2401CC0B26E
:10941000B042F4D3A41CFF2C1CD8AA2000F068F999
:10942000E0B200F065F9102000F062F900250FE0CD
:10943000785DAA2801D0AB2806D1AB2000F058F9FE
:10944000785DAA2808D0AB2000F052F96D1CEDB26F
:10945000B542EDD3BDE8F081AC20F5E708B58DF855
:1094600000008DF8011002216846FFF7C1FF08BD1A
:1094700000B572B6FCF751FB62B600BD2DE9F041B4
:109480000446FCF793F8062223A12046FCF775F862
:109490004FF08050D0F81011802930D0D0F8101142
:1094A000B1F5807F2DD0D0F81011B1F5007F2AD012
:1094B0001BA500BFD0F80C11102926D0D0F80C1134
:1094C000202924D0D0F80C01402822D015A7284606
:1094D000FCF777F8C6B2A01D32462946FCF74DF8D6
:1094E000B61DF5B23846FCF76CF8C6B260193246C4
:1094F0003946FCF742F8A819C0B2BDE8F0810AA5C8
:10950000D8E70BA5D6E70CA5D4E70DA7DFE70DA795
:10951000DDE70DA7DBE700006E524635322F000075
:109520003F3F3F003F3F00003132382F0000000036
:109530003235362F000000003531322F0000000098
:1095400031360000333200003634000010B50446D6
:109550000848102200212060FCF756FC28B9102290
:10956000FF212068FCF750FC08B1002010BD01204D
:1095700010BD0000E0FF07002DE9FC416D46681CAE
:1095800000F026F8684600F045F8A8460F4D002484
:10959000C4F1050101EB080778780009FFF764F8CA
:1095A00004EB4406A855787800F00F00FFF75CF84C
:1095B0007119052C487007D03A20641C8870062C5D
:1095C000E6DB0248BDE8FC810020F6E75068002099
:1095D00070B506460D480125044606220021FCF719
:1095E00013FC28B90622FF212046FCF70DFC08B128
:1095F000074C002520683060A088B0801DB97079C4
:1096000040F0C0007071284670BD0000801000104E
:10961000A400001000214218491C5378C9B2DB4352
:1096200053700629F7D3817941F0C00181717047E9
:1096300070B50A4C207800280FD060780028FCD143
:1096400004204FF0E0210025C1F880010220FCF742
:10965000A3F800F0AFF96560257070BDBC2C002048
:109660003EB51E49012200240A704C704C6048B976
:1096700001210820FFF7AFFA19480068000A10F02E
:10968000010F26D008208DF80000FF208DF8010082
:109690008DF803008DF80200124802908DF8044006
:1096A000684600F0BDF910480421C0F804134115C4
:1096B000C0F804130220FCF76FF806210220FCF723
:1096C000A2F80220FCF77EF803210620FFF783FAB8
:1096D0003EBD0649022008603EBD0000BC2C0020B3
:1096E0001005005000E0D701002000402007005086
:1096F00000F0E6B910B5044602E0641C00F0E0F9A1
:1097000020780028F9D110BD3EB5194D00242878E5
:1097100030B168780028FCD16C602C70FFF788FFAE
:10972000012028706C706C6008208DF80000062005
:109730008DF80100FF208DF803008DF802000D4820
:1097400002908DF80440684600F06AF90A48042146
:10975000C0F804134115C0F804130220FCF71CF8EC
:1097600002210846FCF74FF80220FCF72BF83EBD1B
:10977000BC2C002000E0D7010020004001494860D7
:1097800070470000BC2C002070B5012670044FF01B
:10979000E0210025C1F88001084C4010C4F84803BE
:1097A000C4F8080366602F20FBF770FEA660044C27
:1097B0002F202561FBF76AFEE57070BD00100140A7
:1097C000342D002010B5064A14210C20FCF774FC3F
:1097D000002803D0BDE81040FCF7C4BB10BD00005A
:1097E000BC6A002010B50121202803DA1D4A8140FF
:1097F000114004E0402803DAA0F12002914041B179
:10980000002809DA00F00F0101F1E02191F8141DA0
:1098100006E042F2010010BD00F1E02191F80014D1
:109820004909082914D299B1012911D004290FD06E
:1098300005290DD00C4A946800F01F0301219940BE
:10984000400944B152F820300B4342F8203007E081
:1098500042F2020010BD800000F1E020C0F80011CB
:10986000002010BDFC06FFBCA06800202DE9F041DF
:109870000746806A14468846C8B3002531E000BF19
:10988000B96A05EB450001EB8006B088801CFE2814
:1098900002D90C20BDE8F0812288401C08F80200A3
:1098A00020881622401C80B2208008F800202088E2
:1098B000401C80B2208000EB0801308800F0C2FA22
:1098C0002188084480B22080B28842B1B16871B169
:1098D0004044FBF752FE2088B188084420806D1C6C
:1098E000EDB297F82C00A842CAD80020D2E7FFE7D3
:1098F0000720CFE7FCF736BB00B597B020481090A3
:109900002048119010A92048FCF7BEFD08B1FCF7D3
:1099100029FB40216846FBF749FE1CA16846FCF77D
:1099200065FB1CA102A8FCF761FB1FA108A8FCF7BE
:109930005DFBFFF721FE014604A8FCF757FB14214D
:1099400012A8FFF79BFD12A906A8FCF74FFB9DF894
:109950003C0020F00F00401C20F0F00010308DF88B
:109960003C009DF83D0020F0FF008DF83D0068466A
:10997000FCF76CFE002801D0FCF7F4FA17B000BD2C
:109980006D8F0700F5980700F83000205269676175
:10999000646F000052696761646F2053656375727C
:1099A0006520444655000000332E322E33202834E3
:1099B0003529000070B516480024164904700120AE
:1099C000C860486014480460601EC1F8080312496A
:1099D0000C3108601049143108600F4908310860E3
:1099E0000D49103108600C486C3004600B4D28782C
:1099F000202802D20321FFF7F7F86878202802D246
:109A00000321FFF7F1F82C606C60AC6070BD0000C2
:109A1000682D00200020004000250040606C0020E0
:109A200070B5040042D0FFF7C5FF6078202801D24E
:109A30001F4908601E4E20780836202804D2306066
:109A400020780321FFF7D0F82079012588B1A0788C
:109A5000FFF7D3F8E0780021FFF7C6F81449E07863
:109A6000091D08601249A078091F0860104860307D
:109A7000056010484FF0FF31C0F808130C4AA16888
:109A8000183211600A4A04210C3A1160C560456021
:109A90003168202903D205600021C0F8081106486A
:109AA00094E80E0080E80E000448057070BD0000C8
:109AB0000C25004000200040606C0020682D002034
:109AC00070B506461048007800281CD00F48016881
:109AD000202918D20E4C0125A5600068FFF78DF8EB
:109AE0000A481030C0F80060D4F81C010128FBD1EE
:109AF0000020C4F81C01E560064803214078BDE859
:109B00007040FFF771B870BD682D00200C25004033
:109B100000200040606C002018B10349C86000209C
:109B200070470E2070470000542D00201CB50349DB
:109B300001910091694660DF1CBD0000002C0020EF
:109B400070B50E460546144614211046FBF72EFD4F
:109B5000012020800021216121732672657205B1E8
:109B6000A072002070BDFCF7EBB9000030B409B161
:109B70008C0702D0072030BC7047074C0125A1603C
:109B800062800649636010DF0028F4D1257030BC84
:109B90001620FFF727BE0000542D0020679B07000A
:109BA00011DF08B1012100E00021014A1170704766
:109BB000542D002018B103490861002070470E2081
:109BC00070470000542D00202DE9F05F8A460446BE
:109BD000DAE9011000680D1A28D0A0880027A842F1
:109BE00000D2054604F1D50640F2FF38B4F806B0BD
:109BF00014E02189A1EB0B0000EA08005146305C1B
:109C0000814602462046FFF7EBFB218901EA080165
:109C100006F801902089401C20817F1CAF42E8D3C8
:109C2000A088401B0004000CA08000D00620BDE8E6
:109C3000F09F000070B5084C0D462B462269E16983
:109C4000114402460020FEF729FB002803D12069B9
:109C500028442061002070BD542C0020FEF726BB54
:109C600070B50C00054602D10020FCF77BF915B950
:109C70000020FCF777F9207828702088000A6870A7
:109C80002068000CA8702068000EE8702079287108
:109C9000207A68712089000AA871A068000CE87118
:109CA00070BD00002DE9F84F204C00256846D4E92E
:109CB00003B6FEF753FA8046FEF74EFD0746A94667
:109CC000B8F1000F25D00023009ACC46E06819E0D7
:109CD00007680146974202D9BA1A026014E0C1F837
:109CE00000C0D1F80C80D21BC8693B448A46B8F149
:109CF000000F07D0F71827F07F47C1E90178CAF8AD
:109D00001C500D460028E3D1E0602846FEF782FD96
:109D100004E02846FEF77EFD00B917B15846FDF76E
:109D2000C9F984F80490BDE8F88F0000342D0020B4
:109D30000D4B10B5D96831B102680C68A24204D845
:109D4000A21A0A60C161D86010BD0B4603E00B4641
:109D5000C969121B21B10C689442F8D3A41A0C6093
:109D60000260C161D86110BD342D00202DE9F041A1
:109D70001D4DEC68002C35D01C480027006829696F
:109D8000B846401A20F07F462068B04215D82246D7
:109D9000361A0744E469107C68B182F810806B6958
:109DA00033B1D2E90501984728B1FCF7DBF802E0AE
:109DB000D2E905108847002CE6D16978A87881425D
:109DC00006D1401CC0B2A870022801D185F80280DB
:109DD0000548A978183040F82170BDE8F0411420FA
:109DE000FBF706BDBDE8F081342D002004150140CD
:109DF00030B5002306E000BF10F8014B11F8015BFD
:109E00006C402343521EF7D20BB1012030BD00201D
:109E100030BD000010B501460848FBF795FE074825
:109E20000C384178002908D1012141700021BDE89A
:109E30001040034A0846FCF7EFB810BD202C002064
:109E4000519307000870000A487002207047000014
:109E500010B54FF01020D0F80812C94311F0FF0FD1
:109E60000ED1084A012111600021C0F808120648ED
:109E700001680029FCD00A20FEF750FEFBF7E4FC45
:109E800010BD000004E5014000E4014038B515496B
:109E90004888A0F57F42FF3A23D04A78124C521CE2
:109EA000D2B24A70237B93420AD3091D75DF002882
:109EB00017D0A169002914D001B0BDE8304008478F
:109EC00000254D70217C29B13B2176DF10B1A169BD
:109ED00001B188476169002903D08DF800506846B8
:109EE000884738BDC42C002084680020EFF305802B
:109EF000C005C00D13D0103840B2002806DA00F0BB
:109F00000F0000F1E02090F8140D03E000F1E020D4
:109F100090F800044009022803D0062803D002204C
:109F20007047002070470120704742788378521CA8
:109F3000D2B2934200D100220378934201D1002093
:109F400070470A704168407800EB400001EBC000A8
:109F500070472DE9FC411646DDE90854CDE900546F
:109F60001F468046022200F00CF8002807D1CDE9F8
:109F700000543B4610223146404600F002F8BDE84E
:109F8000FC812DE9FC5F0026DDE90C4B99469246E9
:109F90008E4680462788354630E0D8F804000022F7
:109FA00000EB850069460068019001A865DF002884
:109FB00030D19DF8000050451FD10EB1002100E0C6
:109FC0000221228808441118594522D846B9521C4A
:109FD00090B2208009F800E02088401C20800126F3
:109FE000218801A801EB0902694665DF002811D12B
:109FF00020889DF80010084420806D1CB8F80000EF
:10A00000A842CADC56B12088C01B401E80B2FF287F
:10A0100002D90C20BDE8FC9F09F807000020F9E7F1
:10A0200030B587B004A8FFF791FA70B3184A0C2135
:10A03000102402F10C00CDE90221CDE900042346F1
:10A0400000215C30049AFEF710F8D8B9104A30238A
:10A050002C321546114602F13C00FDF7B9FF88B9D4
:10A060000B4905AA1C3101F14C000594FDF7C7FF0F
:10A0700040B90598102805D1102229460498FFF709
:10A08000B7FE10B10B2007B030BDFFE70020FAE7A4
:10A090005C31002010B5074C48DF08B1FBF762FFC8
:10A0A000FBF78EFFA078032803D0042801D00528F1
:10A0B000F2D110BD042C0020002201E000F8012B99
:10A0C000491EFBD270470000A42D002002000000B2
:10A0D000000000000000000000000000020000007E
:10A0E0000000000000000000000000000000000070
:10A0F000040000000000000000000000000000005C
:10A10000000000000202FBC2FCA8CC93304C5617A2
:10A110000000C84164680020001002000200000036
:10A120000000000000000000000000004CA107003B
:10A13000002C0020740100001056070064A10700E5
:10A14000742D00203C600000FC5A0700550090D0A0
:10A15000030516CA9DC6A43202F5DD2E002003FFBA
:04A16000FFFF013FBD
:020000041000EA
:041014000050070081
:020000041000EA
:0410180000D00700FD
:04000005000754019B
:00000001FF
