:020000040003F7
:10A80000203F0020F5A903000FAA030011AA0300AE
:10A810000000000000000000000000000000000038
:10A8200000000000000000000000000013AA030068
:10A83000000000000000000015AA030017AA030092
:10A8400019AA030019AA03000DB2030019AA0300F4
:10A8500019AA03000000000039AF030019AA030081
:10A8600019AA030019AA030019AA030019AA0300D0
:10A8700019AA030019AA030019AA030019AA0300C0
:10A8800019AA030021B1030019AA030019AA0300A1
:10A8900041B1030019AA030095B1030019AA0300EE
:10A8A00019AA030019AA030000000000000000001C
:10A8B0000000000000000000000000000000000098
:10A8C00000F002F800F030F80CA030C80838241866
:10A8D0002D18A246671EAB4654465D46AC4201D1D8
:10A8E00000F022F87E460F3E0FCCB64601263342DA
:10A8F00000D0FB1AA246AB46334318470C4E00006B
:10A900002C4E00000023002400250026103A01D31D
:10A9100078C1FBD8520700D330C100D50B60704717
:10A920001FB51FBD10B510BD00F00EFA1146FFF7A0
:10A93000F7FF03F0D9FB00F026FA03B4FFF7F2FFAC
:10A9400003BC00F02DFA0000401E00BF00BF00BF96
:10A9500000BF00BF00BF00BF00BF00BF00BF00BFFF
:10A9600000BFF1D170470000401E00BF00BF00BF14
:10A9700000BF00BF00BF00BF00BF00BF00BF00BFDF
:10A9800000BFF1D170470000056885F30888406872
:10A99000FF2464B2EFF30585002D01D1A6460047E0
:10A9A0002546064621273FBAF0B40024002500269C
:10A9B0000027F0B4F92040B20047000070B505460A
:10A9C0000C46164602E00FCC0FC5103E102EFAD2F0
:10A9D000082E02D303CC03C5083E042E07D301CCB6
:10A9E00001C5361F03E021782970641C6D1C761E9A
:10A9F000F9D270BD03210C4802680A4302600B487B
:10AA000002680A4302600A4880470A480047FEE796
:10AA1000FEE7FEE7FEE7FEE7FEE70000064807491F
:10AA2000054A074B704700002405004054050040CC
:10AA3000B9B10300C1A8030020370020203F002047
:10AA40002037002010B5202A04DB0146203A91402F
:10AA5000002010BD914020239C1A0346E340194377
:10AA6000904010BD034610B50B439B070FD1042A3D
:10AA70000DD308C810C9121FA342F8D018BA21BAC2
:10AA8000884201D9012010BD0020C04310BD002A1A
:10AA900003D0D30703D0521C07E0002010BD037879
:10AAA0000C78401C491C1B1B07D103780C78401CF8
:10AAB000491C1B1B01D1921EF1D1184610BD00008C
:10AAC00030B5441C03E00178401C00290DD08107FB
:10AAD000F9D10B4BDD0104C8D11A91432940FAD0BA
:10AAE000001B0A0603D0C01E30BD001B30BD0A0487
:10AAF00001D0801E30BD0902FCD0401E30BD0000D8
:10AB000001010101F8B5042A2CD3830712D00B7878
:10AB1000491C0370401C521E83070BD00B78491C44
:10AB20000370401C521E830704D00B78491C03702D
:10AB3000401C521E8B079B0F05D0C91ADF00202333
:10AB4000DE1B08C90AE0FFF739FFF8BD1D4608C93A
:10AB5000FD401C46B4402C4310C0121F042AF5D2FD
:10AB6000F308C91A521EF0D40B78491C0370401C1C
:10AB7000521EEAD40B78491C0370401C012AE4D40D
:10AB800009780170F8BD01E004C0091F0429FBD257
:10AB90008B0701D50280801CC90700D00270704766
:10ABA00000290BD0C30702D00270401C491E0229A5
:10ABB00004D3830702D50280801C891EE3E70022AC
:10ABC000EEE70022DFE70378C278194643781206E1
:10ABD0001B0219438378C0781B04194311430902EF
:10ABE000090A000608437047002203098B422CD350
:10ABF000030A8B4211D300239C464EE003460B43CD
:10AC00003CD4002243088B4231D303098B421CD32E
:10AC1000030A8B4201D394463FE0C3098B4201D320
:10AC2000CB01C01A524183098B4201D38B01C01A58
:10AC3000524143098B4201D34B01C01A52410309CF
:10AC40008B4201D30B01C01A5241C3088B4201D37E
:10AC5000CB00C01A524183088B4201D38B00C01A2B
:10AC6000524143088B4201D34B00C01A5241411A52
:10AC700000D201465241104670475DE0CA0F00D035
:10AC80004942031000D34042534000229C4603092E
:10AC90008B422DD3030A8B4212D3FC22890112BAB4
:10ACA000030A8B420CD3890192118B4208D389018C
:10ACB00092118B4204D389013AD0921100E08909A4
:10ACC000C3098B4201D3CB01C01A524183098B4285
:10ACD00001D38B01C01A524143098B4201D34B016E
:10ACE000C01A524103098B4201D30B01C01A5241D1
:10ACF000C3088B4201D3CB00C01A524183088B4258
:10AD000001D38B00C01A5241D9D243088B4201D3E0
:10AD10004B00C01A5241411A00D2014663465241CB
:10AD20005B10104601D34042002B00D549427047CA
:10AD300063465B1000D3404201B50020C046C046C8
:10AD400002BD704770477047754600F025F8AE4663
:10AD5000050069465346C008C000854618B020B5B6
:10AD6000FFF75CFE60BC00274908B6460026C0C558
:10AD7000C0C5C0C5C0C5C0C5C0C5C0C5C0C5403DB3
:10AD800049008D46704710B50446C046C04620466F
:10AD9000FFF7D3FD10BD000000487047C03600200B
:10ADA00001491820ABBEFEE726000200704730B50F
:10ADB0008C180278401C13071B0F01D10378401C2C
:10ADC000120906D10278401C03E00578401C0D7082
:10ADD000491C5B1EF9D101E00B70491C521EFBD1CE
:10ADE000A142E6D3002030BD074800210170084889
:10ADF000064A02608160C1600161082241614260CF
:10AE00008161084670470000B4200020E42B002038
:10AE1000042D0020F0B5194A0646916800292AD071
:10AE200057691020791A4907490F14680B462425E1
:10AE30004D436519B54206D1012495698C406540A2
:10AE40000020956104E0491C4907490F8F42EED16B
:10AE5000491C4E07760F956901210C469C402542FE
:10AE60000AD19368002B07D05B1E936053685B1C6C
:10AE700053603346F1E70420F0BD0000042D0020AC
:10AE8000054A2423117C1268491E4907490F59437A
:10AE90002031505000207047042D002070B500284C
:10AEA0001AD0002918D00E4AD368002B16D05B1E8A
:10AEB000D360936824265B1C9360536915681C4615
:10AEC0007343EE1820330660E858641C086060077E
:10AED000400F5061002070BD0E2070BD042070BD79
:10AEE000042D002010B500291DD000220A60114A4F
:10AEF0005368002B1BD0202817D85B1E5360D068E6
:10AF00002423401CD060106914684343E3180B608D
:10AF1000012383409169401C19434007400F916110
:10AF20001061002010BD0E2010BD0C2010BD0420AB
:10AF300010BD0000042D0020FEB54748002705691C
:10AF40003E464649CF63002440E021461422514347
:10AF5000426801238A188068A340034234D000204D
:10AF60000090019010680346B3433B439E46D3686C
:10AF7000DB436B40B34318408446002003231B048B
:10AF80000121814067460F4207D035498700791873
:10AF90000F689F430F600F680F60401C2028EFD39D
:10AFA000604606439168A843014001986346014307
:10AFB00050682B401840009B77461843B743034620
:10AFC0000B4301D012699047641CE4B225484178D4
:10AFD0008C42BAD320480069684038404540002878
:10AFE000B1D120494A6801928A68009249788E4618
:10AFF0002EE01421019A41438B180121009A8140CF
:10B00000114223D01A68324020D0002101248C4004
:10B01000224218D0DD68254204D101277F04BC46B6
:10B02000254303E003273F04BC46A543DD600C4CE9
:10B030008D002C19256803273F04BD432560256832
:10B0400067463D432560491C2029DFD3401CC0B220
:10B050007045CED3FEBD00000005005040610040A9
:10B060000007005034210020C106C90E012088408D
:10B07000014908607047000080E200E08307FF227A
:10B08000DB0E9A408907090E994000280BDA000769
:10B09000000F0838830808489B001818C3699343B9
:10B0A0000B43C3617047830804489B001B18186852
:10B0B000904308431860704700ED00E000E400E0B2
:10B0C0008307FF22DB0E9A408907090E994000286A
:10B0D0000BDA0007000F0838830808489B0018188F
:10B0E000C36993430B43C3617047830804489B00C3
:10B0F0001B181868904308431860704700ED00E083
:10B1000000E400E0BFF34F8F04490348C860BFF379
:10B110004F8F00BFFDE700000400FA0500ED00E0DE
:10B1200010B506490020086048608860C86003497F
:10B1300040390860486004F013F910BD4011014027
:10B14000FEB50020C043124D029068690190684628
:10B150002E6902F0AFFB074602F0E2FE0446002F24
:10B1600008D002AA0199009802F0C4FB029802F0EC
:10B1700021FF06E0029802F01DFF002801D1002CFB
:10B1800002D0304601F012FB00206871FEBD0000C5
:10B190005021002010B507484068002807D080479C
:10B1A000002803D00022114600F024FA10BD02F05E
:10B1B00039FE10BD7421002010B502F08DFE00286C
:10B1C00005D00E490C484860C8130D4988610D48E8
:10B1D000018CC9B201290ED1818C09070BD1018DD7
:10B1E0000906090F042906D1808D0006000F02D13F
:10B1F00005490120886010BDDFFF07C00005004041
:10B20000006C0040C00F00F00006004070B50B4C11
:10B21000A0680025012808D109484168094800298B
:10B22000806901D0C0B28847A560606A012800D15A
:10B2300065620220FFF718FF70BD0000002100408A
:10B24000C02000200025004030B47446641E2578DC
:10B25000641CAB4200D21D46635D5B00E31830BC4A
:10B26000184700B587B00620694608710598009018
:10B2700001A80FC800F0DEFE07B000BD70B504469F
:10B28000C068002802DC0020C04370BDA16860686F
:10B29000455C2168A068401CFFF7B0FCA160E06835
:10B2A000401EE060284670BD70B50446C0680D467B
:10B2B0002168884201DB002070BDA068E168401869
:10B2C0002168FFF79BFC60684554E068401CE06023
:10B2D000012070BDF7B582B00026054616700078D3
:10B2E0001446002805D02846039902F0ABFF06005B
:10B2F00008D1A87800281ED02078039F001D1F28A1
:10B3000002D90C2005B0F0BD684679DF0028F9D1DC
:10B3100021780322481C20707A5421781922481C75
:10B3200020707A542078C1196846008804F080F8AB
:10B33000217840182070E8780223002810D0207867
:10B34000039A411C2170135420780399471C012251
:10B3500027700A542078EA78471C039927700A540A
:10B360006868002815D00021415620788C46024696
:10B37000C01C03991F28C4D8501C20708B542278FD
:10B380000A23501C20708B5420786246431C237083
:10B390000A542889002809D0284600940622022150
:10B3A0000830039B04F0C2F80600ABD1288A0028BD
:10B3B00009D028460094072203211030039B04F093
:10B3C000B5F806009ED1288B002809D028460094A5
:10B3D000152214211830039B04F0A8F8060091D11F
:10B3E000286A002805D02246039901F0A5FA060034
:10B3F00088D1686A002805D02246039902F0F0FE41
:10B40000060084D12C20405D002806D02246284624
:10B41000039903F02FFD0600C7D1304672E7000004
:10B4200030B517488DB001796846817015490180A3
:10B430000625302101A8FFF7C4FB022168460171EF
:10B4400000248471C571012181810490214601A8E5
:10B4500000F0D0FA002803D00022114600F0CAF80C
:10B46000074818211838FFF7ACFB0548FF211838AA
:10B470000470446004729131018244820DB030BD89
:10B48000742700203015000010B5074CA078002864
:10B4900009D1064873DF002803D00022114600F0CE
:10B4A000A9F80120A07010BD6C2000205C270020AE
:10B4B00005E00378401C8B4201D000207047521EEB
:10B4C000F7D2012070470000F0B5054608790E4616
:10B4D00085B0810701D0032239E02F490090FFF7A2
:10B4E00001FD010011D12C4CB168103C009A20697B
:10B4F000FFF708FB0098FFF7C3FC010005D1694680
:10B500002548FFF7CBFC010004D0284601F0F2FDEE
:10B5100005B0F0BD032001900098800802902069DA
:10B52000039001A801F0A4FD07000BD0092F19D04A
:10B530002069FFF76FFC010002D0284601F0DAFD18
:10B540003946E2E73079E16840180122E0600321E2
:10B55000284600F09FFB0028DAD00022114600F0B8
:10B5600049F8D5E73079E1684118E1606078002852
:10B57000CED06089401E0004000C6081C8D12846EE
:10B5800000F054FB002803D00022114600F032F8EE
:10B5900020896081BCE700007C2000201FB58178F5
:10B5A000891ECCB2A10701D003211DE00321009127
:10B5B000001DA10802900191684601F059FD039019
:10B5C00001000B4807D009290AD0C9B2032002F0B4
:10B5D000A1FE014608E0816809198160012103E0AC
:10B5E0008168091981600721032003F0BFFA1FBD9C
:10B5F00090200020FFF786FD10B5002903D08A07B0
:10B600000024002A01D0072010BD0F4A0B465160CC
:10B61000107014215470414318469460FFF7D1FA1A
:10B6200000200A49C0438860094840210160094A56
:10B630001068FF231B0498430B041843106006484E
:10B640000160002010BD0000342100200063004094
:10B6500080E200E004E400E000E100E070B50F4BA0
:10B6600005241D785E78AE4215D01D781C789E8822
:10B67000B44201DA641C00E000241C705C88DE68BF
:10B680006C43A41904609B68E800C418A4880C806B
:10B69000185800241060204670BD00004021002092
:10B6A000F7B53B4C82B060880F4681426ED80020CF
:10B6B000694608703849374E4868C005C00D18D033
:10B6C000103840B2002807DA0207120F083A920831
:10B6D00092005118C96904E08108304A890089182C
:10B6E00009688007C00EC1400806850F012D01D1F1
:10B6F0000AE00425684636DF02280CD0002803D073
:10B7000000221146FFF776FF22786078A1888842F0
:10B7100003DA401C02E072B6F6E70020C0B29042A5
:10B7200007D066786078884201DA401C00E000208B
:10B730006070012D0BD062B66846007837DF0228B2
:10B7400005D0002803D000221146FFF753FF11480F
:10B75000864219D0A068F500049941510299002948
:10B760000CD0002F0AD060883A464643E068301873
:10B77000FFF7C8F9A0682818878002E00021281880
:10B780008180002005B0F0BD0420FBE70920F9E727
:10B7900040210020FFFF000000ED00E000E400E099
:10B7A0000EB504E068468188029A0098904702AA84
:10B7B00001A96846FFF752FF0028F3D00EBD000034
:10B7C00030B5CB0008339DB293070024002B01D085
:10B7D000072030BD044B9A605219DA605C701C700F
:10B7E00058809980002030BD4021002010B50248CB
:10B7F000406800F0D3F810BDD02000200020704732
:10B80000D4255346180000000302002A000000015E
:10B81000010103004C78B04970B5114CA568002DAA
:10B8200006D0002A06D0002804D00023247809E09E
:10B83000082070BD072070BD24265E43AE5D002E3B
:10B8400004D05B1CA342F7DB042070BD2424012636
:10B850005C432E5564196170A2610360002070BDC5
:10B8600050210020FFB59807002481B01E461546E0
:10B870000F4600280BD1002E09D003F0CBFA224945
:10B880000A9888610F70324600208E6008E0072019
:10B8900005B0F0BD24234343D4549B181C75401CB1
:10B8A000B842F7DB24204743BB19032048700F46FA
:10B8B0001846CB6019461830002218232E465E43E6
:10B8C000D3005B181C705C709D7058603018521C5F
:10B8D000032AF5DB0020C0433861BC70FC700124F2
:10B8E0000A482405046003211420FFF7E9FB0848F7
:10B8F0000460084C0198A06003211120FFF7E0FBD1
:10B90000606878610020C3E75021002080E200E0F9
:10B9100000E100E000150140FEB504461D48174651
:10B9200082680D46002A0CD001788C4201D2052D88
:10B9300001D20720FEBD214624235943535C012B2D
:10B9400001D00820FEBD8818407801281DD00026AF
:10B9500003F0B0FDC0000F490190C9684018694666
:10B9600003F0D2FD002812D0012101700A49446081
:10B9700049680830E2C007490198C9684118009831
:10B98000487003F07BFC0020FEBD2E46E0E704205B
:10B99000FEBD00005021002000150140F8B5144DF7
:10B9A0000446A868002809D029788C4201D30720D2
:10B9B000F8BD24216143405C012801D00820F8BD76
:10B9C00003F078FDC600E8686946301803F09CFD76
:10B9D00000280AD0022101704460E86831180098FC
:10B9E000487003F04BFC0020F8BD0420F8BD0000B7
:10B9F0005021002070B50C4692B000216A461170AB
:10BA000007251171002809D0C17849070CD502A972
:10BA1000FFF760FC002808D102AE00E00026002CF1
:10BA20000ED0E078002802D0284612B070BD01AADE
:10BA30000AA92046FFF74EFC0028F6D10AAA00E02A
:10BA40000022684603790178304672DFEDE7000096
:10BA500070B5054601461C220F48FEF7AFFF0F4C9C
:10BA6000002626702968002907D00822A018FFF7B1
:10BA700049F8204608307ADF02E0084808307BDFCA
:10BA8000002808D1401E608004486670044A0021E6
:10BA9000001DFFF7C1FE70BD88360020D0200020B9
:10BAA00051F40300F8B5224C028800271F4DE689A7
:10BAB000102A16D029464968112A21D0122A2DD0E1
:10BAC000502A1CD1C288801DB24218D1028B022A92
:10BAD00015D1C27E837E10021843C007C00F0CD15F
:10BAE00012E0818869800146104808221631103022
:10BAF000FFF708F86F70002E01D100F093FFF8BD3A
:10BB00000020C04368806F700846FFF747FF002899
:10BB1000F5D0A1690029F2D08847F8BD811D0348FE
:10BB200008221030FEF7EEFFE7E70000D0200020EB
:10BB30008836002030B585B00D46040033D0002D86
:10BB400031D0286800282ED00020C043174B208019
:10BB50000FCB049301AB07C315486946088001A8C1
:10BB6000811E63DF00281CD1A21C69460120A0DFD2
:10BB7000002816D1684680782071204601F0C2FB6B
:10BB800000280ED1204601F02FFA002809D128689C
:10BB900020626868002800D06062064901200870B1
:10BBA000002005B030BD0E20FBE70000A8F6030022
:10BBB00030150000002000203EB5002820D00029CC
:10BBC0001ED0026A002A1BD00A88102A19D0112A16
:10BBD00028D0502A17D0512A12D104468879891DBD
:10BBE00002280DD14888E289904209D12046891C5B
:10BBF00002F0BCFC002803D0616A002900D088470D
:10BC00003EBD898810E0CA88C3889A42F8D10922CB
:10BC10006B461A708A7F1A7120310291026A694656
:10BC200090473EBD0021C94301803EBD70B588B03C
:10BC3000002827D00288154B9A4225D0144A127842
:10BC4000002A21D0124B11225B1C1A7059700E0A67
:10BC50009E700E0C090EDE7000240125197105225C
:10BC600069460A830094019402940394C2890A806D
:10BC70008D708C8006A90291039300886946A6DF27
:10BC800008B070BD0E20FBE70820F9E7FFFF0000B9
:10BC90000020002030B585B0002822D00388134C46
:10BCA000A34220D0124B1B78002B1CD0104B102528
:10BCB0005B1C1D705970002401259A70032269468F
:10BCC0000A820094019402940394C2890A808D70C0
:10BCD0008C8004A90291039300886946A6DF05B011
:10BCE00030BD0E20FBE70820F9E70000FFFF000051
:10BCF000002000207FB504460121684681714A4931
:10BD000081804A4A01A90120A0DF00287ED1228833
:10BD100025463C35002A09D044482B46801C00901B
:10BD20004348616800F09AFC00287BD12289002AF0
:10BD30000AD03E482B460A3000903D48E168401F3B
:10BD400000F08CFC00286DD1228A002A0AD03748E6
:10BD50002B461230009036486169001F00F07EFCCF
:10BD600000285FD1228B002A0AD030482B461A3097
:10BD700000902F48E169801E00F070FC002851D12E
:10BD8000228C002A0AD029482B46223000902848CD
:10BD9000616AC01E00F062FC002843D1228D002A97
:10BDA0000AD022482B462A3000902148E16A401EE2
:10BDB00000F054FC002835D1216B00290ED002A8D8
:10BDC00003F030FA19482B46323000901848082208
:10BDD00002A9801F00F042FC002823D1606B0028DC
:10BDE0000BD012492B463A31009102790168104874
:10BDF000401C00F033FC002814D1A16B002910D0A6
:10BE000002A802F0C5FD0948423000E00AE00090B7
:10BE100007482B46072202A9273000F01FFC002804
:10BE200000D1002004B070BD0A180000E8200020F6
:10BE3000292A000010B50446FFF734FE21460348C6
:10BE4000FFF7BAFE204602F057FB10BD7427002012
:10BE500070B504460D460846FEF732FE2080656048
:10BE600070BD000010B5154C86B01ECC03946C4616
:10BE70000EC4002803D0684618DF002819D17520A9
:10BE8000C00213DF002814D1002348220C491120DE
:10BE900003F04AF900280CD1049069460590087413
:10BEA00004A860DF002804D1064803F061F90028E7
:10BEB00001D0FFF727F906B010BD0000F8F6030027
:10BEC000742F00201DF20300F8B503263603B06876
:10BED00005684468684600F023FA00980078012855
:10BEE00003D0002801D0FF2813D1A80711D10720C3
:10BEF00040070A49281888420BD2E0070AD0B068E8
:10BF0000A04206D87321C902091A49084018A04264
:10BF100001D80020F8BD0120F8BD0000010001009B
:10BF200011DF0649C020C861BFF34F8F054904489F
:10BF3000C860BFF34F8F00BFFDE700000005004061
:10BF40000400FA0500ED00E008B5684600F0E8F9E5
:10BF500000980178A52904D04078AA2801D00020B3
:10BF600008BD012008BD10B501F0AFFA002803D1CB
:10BF700000F052FF002818D001F06DFA002803D01D
:10BF800000221146FFF736FB01F09FFA002803D08C
:10BF900000221146FFF72EFB00F01AFF041E03D00B
:10BFA00000221146FFF726FB204610BD00B587B0E2
:10BFB0001422074901A8FEF701FD0598009001A889
:10BFC0000FC800F037F803F051FB002007B000BDA8
:10BFD000C8F60300F8B507460020134C0E46E07083
:10BFE000014615462046114A0830FFF715FC002887
:10BFF00016D12661E56001F0D9F8002810D10022A1
:10C000003946A068FFF788FC002809D1084802F0EB
:10C01000FBFE01F043FB03F029FBE078002801D090
:10C020000020F8BD0120F8BD0820002025C2030033
:10C03000DDC203000FB4F8B5684600F071F9684638
:10C04000017E012502233D48FE263D4C002917D0E4
:10C0500001291BD003292AD0002202293DD006291C
:10C060004ED0FD23042956D005295DD0072930D1B3
:10C07000607800285FD001F00BFB0520A07027E05E
:10C080000999416005704670A37049E0089A0799C4
:10C090008918099A89184160A5210170467007998D
:10C0A000816008990261C1600A9941610CE00099C0
:10C0B0000A78027049684160AA214170079981603D
:10C0C0000899C16009990161A3701C4800F08DF8BE
:10C0D000E570F8BC08BC04B01847009F3978012906
:10C0E0000AD0002908D0FF2906D0426006704670A9
:10C0F0008260C2600261E7E7017079684160F6E73B
:10C100006078002804D001F0C3FA0420A070E0E7B2
:10C1100001F094FAF9E742600370009949784170A0
:10C12000064800F062F8D4E700990A78027049687E
:10C1300041604370F4E701F081FA9EE7B8210020E6
:10C140000820002010B501F065FC0249012001F033
:10C1500071FC10BD4DD90300F0B500240321090383
:10C1600085B0254626468F6809E0320B0120002164
:10C17000FEF768FC044301200D4300033618B74264
:10C18000F3D87526F60201273F03320B0120002168
:10C19000FEF758FC044301200D43F6198004864243
:10C1A000F3D3094845600460084B6E460FCB0FC6B9
:10C1B000684618DF03242403A06813DFA06800F09A
:10C1C000ABF805B0F0BD000000060040B8F6030073
:10C1D00038B50446684600F0A3F800980021425C98
:10C1E0006254491C1829FAD338BD70B57F2405461E
:10C1F000E40218222146012001F004FC002803D0AB
:10C2000000221146FFF7F6F918232A46214601209D
:10C2100001F018FC002803D000221146FFF7EAF9CC
:10C2200070BD000010B506488078002801D00128B4
:10C2300004D10021034A0846FFF732FA10BD00007E
:10C240000820002063B2030010B50248C06800F067
:10C2500015F810BD0820002010B5074CA078002864
:10C2600006D16078002801D102F030FD0120A070D5
:10C27000206900F003F810BD0820002070B5094CBB
:10C280000546A07804280AD0A068FFF787FB00289D
:10C2900004D100222946A068FFF73EFB70BD0820AC
:10C2A00070BD00000820002010B502488068FFF72C
:10C2B00075FB10BD0820002010B5074CA0786178F0
:10C2C000084307D101F0BAF901206070FFF7C4FFFD
:10C2D00001F016FA10BD00000820002070B50C4ACD
:10C2E0000025141F2178515C814200D025702178EF
:10C2F000525C824201D1491C2170C8B2042805D188
:10C300000021044A0846FFF7CBF9257070BD0000F4
:10C310000C200020B9C2030010B5FEF735FB10BD9C
:10C3200070B5164905468868000A000224D0144CEE
:10C3300008782070C8788A780002104360800879F5
:10C3400020710846083003F078F8A0600B480C30E4
:10C3500003F073F8E0600948103003F06EF82061D4
:10C360000648143003F069F860610448183003F09F
:10C3700064F8A0612C6070BD296070BD00F80300F6
:10C38000A4360020F0B58FB005463AE14378012B82
:10C3900040D0022B7ED0032BF7D1CEE0A24C082652
:10C3A00020782146321A243109186B6828469847AC
:10C3B000002870DB21460978711A814206D0214697
:10C3C0000A781018087001200FB0F0BD964C0620B6
:10C3D0002434E7797B065B0EDA0F00211E0E120271
:10C3E0003243265C1B02F3184A41401E40B200282B
:10C3F000F4DA380603D500205B4290410246A86A71
:10C40000C00040190361426187480170A86A401C5E
:10C41000A86200E0A86A0328C0DB83482C69416950
:10C420006A69CB17641841685A41CB17091B9341BD
:10C43000BFDB0021A9620221E2E07B49CF688B6863
:10C440000021FE1A0A91321B814101DA3446002094
:10C45000F9170A463E1B0190814101DA3C460192E0
:10C46000714E22463069C1186B68284698470028EB
:10C4700011DB019AC117034663404A40134303D0BE
:10C48000012204460A920191674A002093680146FE
:10C49000099301E049E06FE0089313690B93D369B6
:10C4A00007930693136A0D939269944615E0069BD1
:10C4B000DA171B184A410DD46646F7179E1BBA417E
:10C4C00008DA089A0D9E17180B9AF35CD25DD21801
:10C4D0000B9BDA550022401C5141019B0A46061B6A
:10C4E0009A41E4DB099950480A19826041690919A7
:10C4F000416107990919C16129696B69019E091B8D
:10C50000B3416B612961C068824209D102200A905F
:10C51000454CAA68E168206990470020A06002E0CD
:10C520000A98002801D00A984EE72C6968692146CC
:10C53000014382D103213C4862E00746AC69D01731
:10C54000EE69A2187041CB17891A834114DBB968D0
:10C55000F868401A0021031BB14147DA002604465F
:10C5600044E031480027016980686B680918224659
:10C5700028469847002802DA0020C04324E7C11764
:10C5800002460B46624073401A4302D0012704461C
:10C590000E46254881680A198260C1688A4206D120
:10C5A000AA680227006990471F49002088601E483A
:10C5B000416909194161A869E969001BB141E96153
:10C5C000A861002F01D03846FEE60A46031BB2419F
:10C5D00001DA04460E461448C1688068081A002132
:10C5E0000A46031BB24101DA04460E46A969E8690E
:10C5F0000143B6D10C482A6AC1695118C1610121B1
:10C6000041700948426941688A4200DABEE6044640
:10C61000A168002906D0AA68206990470020A06080
:10C620000220D1E60020CFE61C200020014840690E
:10C63000704700001C20002030B5074C039D63604C
:10C64000A1610021E161A16061612170E560226169
:10C6500020620120607030BD1C200020FFB58FB02B
:10C660001E4615460F0004D1002211461046FEF763
:10C67000C1FF002D04D1002211461046FEF7BAFF7B
:10C680001C216846FEF79DFA6846017802200143A6
:10C6900068460170002401940394049405940121D8
:10C6A00008A80694817068460F9901840794317830
:10C6B000017771784177807FF9210840F721801C4C
:10C6C0000840EF210840410849006846817714215D
:10C6D00009A8FEF776FA08A8099007A80A90684604
:10C6E0008585C485058604480D9709AA6946008892
:10C6F000189BA2DF13B0F0BDE8200020F8B5144667
:10C700001C43069EA40701D01020F8BD0D4C2578CF
:10C71000102D01D30420F8BD67787D192D072D0F4A
:10C7200014277D432D19287169710020686108352F
:10C730004CC52078411C2170002801D100F004F87C
:10C740000020F8BDA02A002070B517480178002904
:10C7500015D04178142251430C1860790126B60295
:10C76000241D02280CD0042809D1216960684018D2
:10C77000800A28DF112802D020698019206170BD4D
:10C780002269E068851AB54200DD3546A068811847
:10C7900060688018EA17920F5219921029DF112849
:10C7A000EDD020694019E9E7A02A0020F8B5224819
:10C7B00001694A1C3DD024225143826889184E6881
:10C7C0001E494C6847690079E11B0D022D0AED1CDA
:10C7D000002814D101201A4A00045060184A403A37
:10C7E0005060184940000860174908601749012047
:10C7F00008602F20FEF7B8F80F4901200871B542F4
:10C8000000D23546E81900020C49000A40310860A0
:10C810000A494968001B091B0902090A0002000AAB
:10C82000C91C814204D901200649400480390860AE
:10C83000F8BD02F0EFFAF8BD5021002000150140CC
:10C840004013014080E200E000E100E00010014000
:10C85000F8B502F0CFFE00281ED10A22002134488C
:10C86000FEF726FE002816D00120324E8202B0705C
:10C870002F48FF218902FE30FEF7A0F82C4C1F251F
:10C88000FE346D016019102200210746FEF710FEEC
:10C89000002809D101E00B20F8BD1022FF21384605
:10C8A000FEF706FE002804D0012189022046FEF78B
:10C8B00088F91F48102200211638FEF7F9FD0028DC
:10C8C0000DD11B4B07208E3B19467831C0019A6F62
:10C8D0008F682018DB6FC968C16660308CC014484F
:10C8E00006220021801FFEF7E3FD00280CD110492D
:10C8F000523905220B18171A40333F197F191B7B39
:10C90000401C3B740628F5DB0125FF27AD02BF0262
:10C910002A463946002001F075F82B462246394652
:10C92000002001F08FF8032030700020F8BD0000D7
:10C930005E22002048200020F8B50D4611780646FA
:10C94000881D14461F2801D90C20F8BD3388072004
:10C95000062BFAD31927FF01BB4202D9164A93428C
:10C96000F3D17288062AF0D3BA4202D9124FBA42E2
:10C97000EBD1114FBB4203D0BA4201D09342E4D86D
:10C98000481C052220706A5420781222411C217014
:10C990002A5420784119308802F04AFD2178401845
:10C9A000C0B220704119708802F042FD2178401811
:10C9B00020700020F8BD0000FFFF000010B500222D
:10C9C0001146FEF717FE10BD30B5FF20134C87B09F
:10C9D0009130E08010206080092020800025A58013
:10C9E0001C216846FEF7EDF80120800301908000CD
:10C9F000029000940A2168460173C58105740848B5
:10CA0000069005956846FFF723F8002803D000221A
:10CA10001146FEF7EFFD07B030BD00008620002074
:10CA2000BDC90300F8B5164801F048FA144D0026B8
:10CA3000103D144C002807D0616900291BD001204B
:10CA40006A461070684615E02878002805D06169AC
:10CA5000002910D0684606700CE0687800280CD0D9
:10CA6000A16800226868FEF757FF002803D0A1697B
:10CA7000002900D088472E70F8BD6168F1E70000FA
:10CA8000E02000208836002070B500235A1E094E91
:10CA90000BE0C45C62400724D507ED0F6D425208DD
:10CAA00035406A40641EF7D55B1C8B42F1D3D043FE
:10CAB00070BD00002083B8ED10B500F001F810BD86
:10CAC000F8B5074658681C46401E15460E46102805
:10CAD00007D2A168002904DB2046243000901029E9
:10CAE00035DD1020F8BDA1686068814201D008469C
:10CAF00023E0E16800290DD1002007E021180A7D1C
:10CB0000521C1206120E0A750FD1401C2169814277
:10CB1000F4DC0AE02169401E814206DC21180A7D0E
:10CB2000521C1206120E0A75F4D0204614300099D9
:10CB300001F0B8FA0028D5D1A060421C0099A2608B
:10CB4000405C39786D1E48403070761C7F1C002D8B
:10CB5000C9D10020F8BDFFB581B00B9D0C9C280603
:10CB60000E46000E01D0E8B200E01020206110282F
:10CB700002DD102005B0F0BDE9041027002901DA1C
:10CB8000381A2061104601F0A5FA6760019820600C
:10CB90000020A060012000032840E0600020315CFC
:10CBA000221811756168401C8142F8DCA8041BD56D
:10CBB000E068002809D0481E13E02218117D491CA6
:10CBC0000906090E11750FD1401C21698142F4DC60
:10CBD0000AE02218117D491C0906090E117503D1BE
:10CBE000401E21698142F4DD214620462431143063
:10CBF00001F058FABEE70000024610B50B46114698
:10CC0000034800F0A3FD002800D0082010BD00005C
:10CC10007422002010B58AB008A801F0B7FF244C98
:10CC2000002811D00C23234A0393D01810216B46FF
:10CC300007C30B4600218830089A00F0CCFD00287D
:10CC400011D006200AB010BD002060702021684677
:10CC5000FDF7B7FF1748202269460C30FDF702FFA9
:10CC6000002823D10FE0032000038068A1698842D7
:10CC700006D16846FFF7ACFA68460078FD2815D162
:10CC80000120607002E0607800280BD02021684607
:10CC9000FDF797FF0748202269460C30FDF7E2FEBA
:10CCA000002803D0082020700020CBE70820C9E727
:10CCB00048200020E021002008B5102000900F48F7
:10CCC0004078002818D00E496A460846A43000F083
:10CCD00050FD00280FD1009810280CD108491022CF
:10CCE0002C31074802F07CFB002804D1FF20800291
:10CCF0000068002800D00B2008BD0000482000205C
:10CD0000D021002030B5154C03252D0387B0A26833
:10CD10000020A96800F076FE002803D0002211460A
:10CD2000FEF768FC7320A968C002401A012240087F
:10CD3000120380180A180020A36800F083FE050083
:10CD400009D169460871A06804900598009001A86F
:10CD50000FC8FFF76FF9284607B030BDE02100206B
:10CD600000B587B00320694608710948016802913F
:10CD70004168039180680490059800900A46049BDE
:10CD800002990198FFF756F9002007B000BD000096
:10CD9000E021002000B587B001206946087103201A
:10CDA0000003806805900948016802914168039179
:10CDB00080680490059800900A46049B02990198A7
:10CDC000FFF738F9002007B000BD0000E021002087
:10CDD00000B58BB004A8FFF7FBF9079800280DD029
:10CDE000069800280CD00699099840180190002157
:10CDF0000798009180080290684618DF0BB000BDCC
:10CE00000320000380687321C902091A012249081E
:10CE100012038918E9E70000F0B51E498FB003C975
:10CE20000490059107A8FFF7D3F90A98002824D0A9
:10CE30000998002823D009990C98032540187526D5
:10CE400000950290F6020A980196800803906846C1
:10CE500018DF002811D0002404AFA0003858009536
:10CE600002900A98019680080390684618DF00280F
:10CE700003D0641CE4B2022CEFD30FB0F0BD03204A
:10CE8000000380687321C902091A012249081203AC
:10CE90008918D2E7DCF6030010B50B4601460228DC
:10CEA00025D01E4803290FD0052927D0072919D1DD
:10CEB000002B2AD00B21184601F008FA02460B215C
:10CEC0001748FEF7E7FE07E0002B0CD0C088154995
:10CED000884207D0132176DF002803D000221146B4
:10CEE000FEF788FB10BD1046FDF794FFF4E7012123
:10CEF000184601F0EBF902460121E1E70921184645
:10CF000001F0E4F902460921DAE7C0780028E9D106
:10CF10000021034801F02CFC10BD00006C20002013
:10CF200074270020FFFF000010B50A46022810D029
:10CF300003280DD005280BD0072809D1002A0FD0CF
:10CF40000B21104601F0E6F901460B2001F00EFE20
:10CF500010BD0121104601F0DDF901460120F5E781
:10CF6000034800780028F3D101F03CFC10BD00001C
:10CF7000902000201FB50323019090080390009398
:10CF80000291684618DF04B010BD000010B50446D9
:10CF90000D480178012903D0022905D0082010BDD1
:10CFA0000021018102210170FFF74EF90028F6D11E
:10CFB000054B5C2208330549204600F01DFA002885
:10CFC000EDD1FFF745FC10BD482000200C220020C9
:10CFD0001FB50123019090080390009302916846C9
:10CFE00018DF04B010BD000030B58FB005461C211D
:10CFF0006846FDF7E6FD69460878082108431022D7
:10D000001043694608700024019403940494059425
:10D010000694287908A98870144869460884601C19
:10D0200000070794000F0C7710304877887FF921AC
:10D030000840F721801C084010430121084369463D
:10D040008877142109A8FDF7BCFD08A8099007A856
:10D050000A9069468C851720CC8508860D942B464E
:10D0600068880E3309AAA2DF0FB030BD3115000069
:10D0700070B5060004D0307A800703D0102070BD50
:10D080000E2070BD1A4C2078082803D0092803D040
:10D09000082070BD09202070706821698500E06853
:10D0A0004019884204D90020C043E0600C2070BDC4
:10D0B000FFF7CAF80028FAD16078B668002805D0D2
:10D0C00029463046FFF798FD0028F0D1E168A069B5
:10D0D0002B4641183246002000F0B4FC0028E6D16F
:10D0E000E1684919E16022699142E0D0092070BDF0
:10D0F0004820002010B50A4604460321104601F0DE
:10D10000E5F8024603212046FEF7C4FD002803D0BF
:10D1100000221146FEF76EFA10BD000010B5064859
:10D1200000780C2801D0082010BDFFF7BDF8024898
:10D130001C304068804710BD4820002070B5194C55
:10D1400000252078092802D00A2806D101250B20C5
:10D1500020702169E068884201D0082070BDFFF787
:10D1600073F80028FAD1FFF7A7FD002813D1002D8E
:10D1700013D00320000380687321C902091A012219
:10D1800049081203891840182169FFF77DFC0649F8
:10D190004968814201D00B2070BD0C202070002016
:10D1A00070BD0000482000206822002070B58CB0BF
:10D1B0001A49002000F03EFC06A8FFF709F868466F
:10D1C000427E0320732101230025154C0003C90270
:10D1D0001B03FD2A06D182688E1A7608F61892592A
:10D1E000521C15D08068091A4A08D118411800202D
:10D1F00000F008FC002802D025700CB070BD05209E
:10D2000069460871059801AE00900FCEFEF712FF37
:10D21000E560E570012020700020EEE771D9030081
:10D220004820002010B504460F480178062902D096
:10D23000072907D103E00021C18007210170C068E0
:10D24000002801D0082010BDFEF7FEFF0028FAD10B
:10D25000054B20229B1D0549204600F0CDF80028F3
:10D26000F1D1FFF7D7FC10BD48200020EC210020B1
:10D2700070B5104C054620780E460A2801D00820CB
:10D2800070BDFEF7E1FF0028FAD1002D0ED06078C6
:10D29000002805D031462846FFF7AEFC0028EFD124
:10D2A0003146284601F012FB0128E9D001F058FB75
:10D2B00070BD00004820002010B504460F480178DA
:10D2C000082902D00D2907D103E0002141810D2159
:10D2D0000170C068002801D0082010BDFEF7B4FF1F
:10D2E0000028FAD1054B0C220A330549204600F0EC
:10D2F00083F80028F1D101F0A3FA10BD48200020E6
:10D300006822002030B58FB005461C216846FDF725
:10D3100058FC694608780C210843694608700024C7
:10D3200001940394049405940694287908A98870BC
:10D33000144869460884601C00070794000F0C77A6
:10D34000103048778A7FF9200240F720921C024073
:10D35000EF200240012002438A77142109A8FDF73B
:10D3600030FC08A8099007A80A9069468C8514200B
:10D37000CC8508860D946888AB1D09AAA2DF0FB082
:10D3800030BD00003215000010B503200003806896
:10D390007321C902091A01224908120389180A4C8B
:10D3A00086B04018A06106202070E078002802D0E6
:10D3B0006846FEF70DFF6369002B03D0002211467B
:10D3C0000220984706B010BD4820002010B5032069
:10D3D000000381680748052281610270026900200C
:10D3E00000F010FB002803D000221146FEF702F9DE
:10D3F00010BD00004820002070B5164642681D464A
:10D4000094001A881319B34201DD0C2070BD8368A3
:10D41000501822461946FDF775FB2888001980B27E
:10D420002880B04201D0092070BD002070BD0000EE
:10D4300001494861704700004820002000B587B0CE
:10D440000720694608710598009001A80FC8FEF7EB
:10D45000F1FD07B000BDF0B587B06846FEF7B8FE35
:10D46000029800282AD001210903059A4018904209
:10D4700026D9501A45081046029A0C4687180246CB
:10D4800068001618001906900320000380680299AE
:10D4900088420DD2611908460422FFF799FD002841
:10D4A0000CD1214604220846FFF792FD002805D141
:10D4B000BA1B2B463046069900F033F807B0F0BD92
:10D4C000029A0598FFF784FDF8E730B58FB06846FB
:10D4D000FEF77EFE0298002814D001210903059A68
:10D4E0004018904214D9501A43081046029A5C0022
:10D4F00082180019611803242403A468029DAC4219
:10D5000002D20E200FB030BD121A00F00AF8F9E76F
:10D5100003200AAB07C3029880080D900AA818DF01
:10D52000F0E7F8B51C4617460D460646FFF722FD04
:10D53000002817D001200003854207D92346291B64
:10D54000301B1A46FFF7EDFF00280BD13A4629465B
:10D550003046FFF73DFD002804D13A4629463046C3
:10D56000FFF708FDF8BD000070B52D4C054620788A
:10D57000012803D0042805D0082070BD0020A08019
:10D5800004202070FEF760FE0028F6D1244B0C2208
:10D590001B1D24492846FFF72FFF0028EDD1214805
:10D5A0008168002905D00268002A0AD14268002A51
:10D5B00007D103689A0704D14268900701D1880710
:10D5C00001D0062070BD981840180521090320617C
:10D5D0008A4216D81249032424031C31002B09D097
:10D5E000E523A2689B029A1A82420AD30E4A0A6075
:10D5F0000E4A0FE0A3687324E402E31A5B08834237
:10D6000001D20C2070BD0A4B0B60002A01D0094AE0
:10D6100000E0094A4A6009688847002070BD0000A0
:10D6200048200020E0210020CDD3030095CD030049
:10D6300089D3030061CD030005CD030010B5124C62
:10D640001249E088884208D0132176DF002810D0E4
:10D6500000221146FDF7CEFF0BE0A078002808D08D
:10D6600074DF002803D000221146FDF7C3FF00201D
:10D67000A070FEF7BBF8002803D000221146FDF78A
:10D68000B9FF002010BD00006C200020FFFF00004B
:10D6900010B501F01BFB002010BD000010B51549AE
:10D6A00000200871144801F035FD002820D11348EE
:10D6B000FFF7BEFEFDF798FB002819D100F0F6F940
:10D6C00001F01CFCFDF7ACFEFFF77EF909490122D1
:10D6D000143108781043E1221040DF220C30104052
:10D6E00008700720487010208870FDF7CDFE0020DC
:10D6F00010BD00006C20002035BE030099CE030051
:10D7000010B501F04BFB0A4801F07EFB09A001F0C7
:10D710003BFB01F07BFA01F037FB0D2001F030FB01
:10D720000A2001F02DFB0848FFF782FE002010BD03
:10D7300005F403005269674466752F332E322E308C
:10D7400020283432292F000029CF0300F8B51646CF
:10D7500004461D460F461A46983000F091FE0028F8
:10D7600006D1234610332A4631463846FFF7A4F93E
:10D77000F8BDF7B58AB0044610200890154620463B
:10D7800008AA04A9983000F0E2FD002821D1204623
:10D7900008AA6946483000F0DAFD002819D1204671
:10D7A0001030FEF72BF8002813D100216A4604AB95
:10D7B000089807E0665C575C7E405F5C7E400B9F8C
:10D7C0007E54491C814202D22E688E42F2D800203B
:10D7D00029600DB0F0BDFFB59DB0044603AD102625
:10D7E00007AF3146284601F057FF1EA90EC938463B
:10D7F00000F0F3FD00285AD132462946384600F0A1
:10D800003FFE002853D13846279A269900F038FE6B
:10D8100000284CD110201B901BAA2146384600F04E
:10D8200096FD002843D11021284601F035FF012044
:10D830006946C8761EA920460EC94830074600F042
:10D84000CCFD002833D132462946384600F018FE78
:10D8500000282CD12998002806D00246384628995D
:10D8600000F00EFE002822D12246012110320903C9
:10D8700000206B4607C31EAF0DCF2146FFF76BF9A3
:10D88000002814D11EAF20460ECF9830044600F079
:10D89000A4FD00280BD11021284601F0FDFE022036
:10D8A0006946C87632462946204600F0E9FD21B097
:10D8B000F0BD000010B50E4900238A78CC78A24252
:10D8C00012D0521CD2B28A70022A00D18B708A7890
:10D8D000074B92001C339A580260486910180002E6
:10D8E000000A4861012010BD0360002010BD000047
:10D8F00050210020F7B5144C0025A76823691EE0CD
:10D9000024215943C9194E68864202D9301A486009
:10D9100017E0801B751900264E600E750E699C4637
:10D920000B6AB646002E0AD0019E76193602360AD8
:10D930008E607646CE6016680E6261461160591C94
:10D94000DED12361FEBD00005021002010B5074844
:10D950008378022B03D1022901D1032181701000A9
:10D9600003D000221146FDF745FE10BD082000201F
:10D9700070B5224C1E46636986B01546002B35D023
:10D9800022461278022902D004292FD115E0092A53
:10D9900004D0032A06D00A2A0BD027E032462946B3
:10D9A000032004E00020A070324629460520984755
:10D9B0001CE0324629460720F9E7052A16D1032143
:10D9C00009038968814211D114220D4901A8FCF78D
:10D9D000F5FF0598009001A80FC8FEF72BFB062065
:10D9E00020703246294602206369E0E7280003D010
:10D9F00000221146FDF7FEFD06B070BD4820002054
:10DA0000E4F6030008B500920A4600230421FEF75D
:10DA100075FE08BD10B5FF2145310448FDF7D1F86A
:10DA2000034800210160416010BD0000A02A0020D1
:10DA3000AC200020024A80001150002070470000F6
:10DA4000AC20002008B5009313460A460221FEF7D9
:10DA500055FE08BD70B5134C2178002921D061789E
:10DA6000142251430D190D222D1D022804D12969BC
:10DA7000E868814213DB00226978AB6868682D781A
:10DA8000094EAD007559A8476078401C0007000F8B
:10DA900060702078401E0006000E207001D0FEF756
:10DAA00053FE70BDA02A0020AC20002030B585B008
:10DAB00011206946087406221BA104A87CDF0028F7
:10DAC00003D000221146FDF795FD002002900922A7
:10DAD000694603900A8110224A818881FF20913093
:10DAE000C88102A87ADF002803D000221146FDF782
:10DAF00081FD6D46681C01F0C1F80124002804D1A5
:10DB0000681C01F05BF8002804D06846047000F03F
:10DB1000C9F904E0684600F0C5F968460470694632
:10DB2000002070DF05B030BD5269674466750000A3
:10DB3000FEB5054616460879099C089A800701D06B
:10DB4000032210E000938868029008798008019011
:10DB500068469047092810D0014621430DD0314630
:10DB600000F0B4FB024631462846FEF793F8002841
:10DB700003D000221146FDF73DFDFEBDFEB5044673
:10DB800088781D46801EC6B2B00701D0032125E06B
:10DB900000202300FDF758FB0C1207090B1212128C
:10DBA00012120D0F1112022008E0012006E00320DE
:10DBB00004E0052002E0062000E00720091D009097
:10DBC000B0080190029168469047092809D00146A3
:10DBD000294306D0214600F09DFB0146204600F077
:10DBE000C5FFFEBDF0B500221A4D13460F292ED8F1
:10DBF0000488002C27D1067B4F1E0124BC40A6427E
:10DC000025DB20E0047B002C12D10488A446002CE4
:10DC10001DD044880746661CB6B20D374680E45DC9
:10DC2000C472664502D100244480048080240473B9
:10DC30005204C67A120CE4B2264201D001263243C5
:10DC4000640804735B1C8B42DCDB1046F0BD284685
:10DC5000F0BD0000FFFF0000FFB585B01D460400C9
:10DC600012D0002910D0002D0ED000202860079877
:10DC7000009102950190A67A3300FDF7E5FA0709B5
:10DC800018374C5B67777C000020C04309B0F0BDBB
:10DC900020460121FFF7A6FF01463948814201D104
:10DCA000002002E000291FD10220A0722AE068466D
:10DCB0000390029801990068884215D208212046F5
:10DCC000FFF790FF01462E4881420DD0CAB221894C
:10DCD00020468B05491CD5309B0D2181C25420461E
:10DCE000039900F007FFDBE70120DEE70227394652
:10DCF0002046FFF777FF2249884202D00102E180E7
:10DD00000327A772A07AB042B5D12968079881424B
:10DD100034D10120BAE708212046FFF763FF1849F4
:10DD2000884201D10320C0E7E1880143491CE1801A
:10DD3000002009E000212046FFF754FF10498842E7
:10DD400001D10420B1E70002A08007E008212046AD
:10DD5000FFF748FF01460A48814201D10520A4E7A8
:10DD6000A0880843401CA08006209EE76946204604
:10DD700001F008FA99E70120C04387E7002085E712
:10DD8000FFFF000010B504469921C9000D30FCF7D3
:10DD900016FF0020A072208060802073E072A080B7
:10DDA000E080208110BDF8B51D4604001AD000297E
:10DDB00018D0002D16D02088C826331A15D09342CB
:10DDC00000D21A46174622460D3280183A46FCF712
:10DDD00099FE2088C01920802F602088864206D0B6
:10DDE0000020F8BD0020C043F8BD002028600120BD
:10DDF000F8BD000008B5002000906B460448FFF70E
:10DE00002BFF002802DA0020C04308BD009808BD9F
:10DE1000603100200A2801D2303000E05730C0B213
:10DE200070470000F8B51E4C2078002837D02069D4
:10DE3000002807D00026E068002805D00025002E25
:10DE400004D013E00126F6E70125F8E7684651DF24
:10DE5000052806D0002806D000221146FDF7CAFB8F
:10DE600004E0012602E0216900988847002D12D1C4
:10DE7000608869460880A06861DF052806D0002810
:10DE800006D000221146FDF7B5FB04E0012502E0B3
:10DE9000E168A0688847002ED8D0002DCFD0F8BD0B
:10DEA00074210020002142185378491CDB43C9B279
:10DEB00053700629F7D3C021817170474188054806
:10DEC0000288914204D34088814201D801207047E2
:10DED00000207047D82000201048018CC9B20129C9
:10DEE00017D1818C090714D1018D09060A0F03D1BE
:10DEF000828D1206120F0ED0090F012903D1828DD7
:10DF00001206120F07D0032903D1808D0006000FDF
:10DF100001D000207047012070470000C00F00F0C2
:10DF2000F8B5234801690091457833E02048E900BD
:10DF3000C0680E1834782AE0182060437168641CA9
:10DF40000818B178E4B2A14200D100240178022976
:10DF500002D003291BD113E0154A4068242192689E
:10DF600041438F18397D002911D001F0C1F90020FB
:10DF700038750CE024277843C0180275006A03E066
:10DF80000B4900228B680869471CF3D1086170783F
:10DF9000A042D1D128466D1EEDB20028C6D104485A
:10DFA00001690098814201D00120F8BD0020F8BD30
:10DFB00050210020F8B50446384800270169009137
:10DFC00046785CE03548F100C2688D1851E0601C6D
:10DFD00007D0324A24209268604321468018046AA0
:10DFE00024E02878182141436A68401CC0B25218C6
:10DFF0002870A978884200D12F70284B51682420BE
:10E000009B684843C0181378012B34D1037D002B43
:10E0100031D193688360D368C36013690361526927
:10E02000C2611E4A5279002A00D087601B4B826869
:10E030005B6996469C46D31A1A02194B120A9A42F9
:10E0400002D2C368D21808E0724663469A1A1202D6
:10E05000C368120A934202D99A1A426000E04760EC
:10E0600087600122C7600275921E0262084601F0B5
:10E070000DF9601CABD1287869788842A7D1304669
:10E08000761EF6B200289DD10448016900988142AD
:10E0900001D00120F8BD0020F8BD00005021002073
:10E0A000FFFF7F0010B50C46014610220848FCF720
:10E0B00029FD074810384DDF002801D0012010BD90
:10E0C0000349102210312046FCF71CFD002010BD32
:10E0D0009821002010B5014610220248FCF712FDDD
:10E0E00010BD00008821002008B53B4F0025F869CD
:10E0F0002E46C4B22046C0380F2809D8FDF7E4FEEA
:10E10000002805D0F8690007000FF861FEF724F831
:10E11000B12C02D0B22C02D003E0012501E0012590
:10E120002E46642000F0C4F800202C4B0522032169
:10E130000090FDF797FB002823D1284901201439CE
:10E14000FDF75AFA00281CD1FDF7FCFFFDF7FCFE95
:10E1500000280DD0FDF707FF002812D10120FDF7A0
:10E1600081FE00F079FEFDF721FF002809D104E0CF
:10E170000120FDF777FE00F06FFEFF2045DF00284D
:10E1800001D0FCF7BFFF0F200124C00305272404A2
:10E190003F040090002D03D1FDF796FE002801D129
:10E1A0000F24A404304600F0A9FD3A462046009909
:10E1B000FDF710FF044600F089FD002C05D0FDF7A7
:10E1C00083FE002801D0FDF7ABFE00F0C5FF0A205A
:10E1D00000F06EF8D5E7000000050040342D002067
:10E1E00070B5054600790E46801C1446C0B2117801
:10E1F000821C8A181F2A01D90C2070BD0A46491CAE
:10E200002170401CB0542078FF22411C21703254F0
:10E2100020788119288801F00BF921784018C0B2C4
:10E220002070AA88002A09D0A968002908D080197E
:10E23000FCF768FC2078297940182070002070BD18
:10E24000072070BDF8B514780746A01C15460E4689
:10E250001F2803D87878801C1F2801D90C20F8BD0E
:10E260001D20001B80B26946864608803019801C3C
:10E270007DDF0028F3D13878022805D16846008870
:10E28000704501D8092107E078780821002801D0DD
:10E29000704501D968460088421C3255641CE2B2C0
:10E2A000B1542978801C081828700020F8BD00009F
:10E2B00031B5054C04E0401E00902046FCF744FBBD
:10E2C00000980028F7D138BDE703000008280FD0D8
:10E2D00006DC00280AD0042816D0062804D109E05C
:10E2E0000B280BD00C2807D009207047012070475D
:10E2F000022070470320704704207047042901D092
:10E300000A2903D1052070470B2901D00620704748
:10E310000820704708280CD004DC002807D0062805
:10E3200011D108E00B280AD00C280CD105E00120FF
:10E33000704702207047032070470420704704296B
:10E3400003D00A2901D00620704705207047F7B591
:10E35000416815460446112904D2A268102A01DC3E
:10E36000914201DD1020FEBD20460C3091420ED0BE
:10E370004B1C802263600A54002202E04B1C636045
:10E380000A54A36861689942F8DB012200E0002288
:10E3900000211201161909E0771862182037137F3F
:10E3A0003F7B7B40177B7B401373491CA2688A42EA
:10E3B000F2D80146FFF776FE0028D4D104E02118F8
:10E3C0000A7B01990A54401CA168814202D929683C
:10E3D0008142F4D828600020FEBDFFB5044681B01C
:10E3E0008720009010251046FFF774FE20462C3041
:10E3F0001021064601F050F931460846FFF752FE5B
:10E40000002833D1691E8C4601010B192C21C95CEF
:10E41000C9098E46002108E05A182032167B577B26
:10E420007600FF093E431673491C6145F4DB5A1917
:10E430002032D17A73464900002B00D0009B59400E
:10E44000D172002814D0401C0228DDDB0298206025
:10E450000020A5606060204610211C3001F01CF9EE
:10E46000204610210C3001F017F9002005B0F0BD56
:10E4700020462C300FC826463C360FC60120C3E785
:10E48000F7B5416816460446112906D2A06810283F
:10E4900003DC27460C37814229DD1020FEBDA16830
:10E4A0006068884212D1002005E021180A7B0B7FAA
:10E4B0005A400A73401CA1688142F6D821461C319B
:10E4C0003846FFF7EFFD0028E8D16060A1680D1A1B
:10E4D000B54200D93546C0192A460199FCF712FB0E
:10E4E0006068761B40196060019840190190002E09
:10E4F000D5D10020FEBD000070B51B4C054601883B
:10E50000E088132925D007DC102915D0112912D154
:10E510002078002817D018E0522920D055290AD198
:10E52000A979002907D1132176DF002803D0002222
:10E530001146FDF75FF870BDFDF78EFEA888E080FC
:10E540000020A07070BDFCF79FFF0020C043E0805A
:10E5500070BD0023044A194614327FDFE5E700232B
:10E560001A461946A9DFE0E76C200020F0B58BB011
:10E570000446022768460773002609968784C684E6
:10E5800008A80A900D46618A208809AAA5DF0028FC
:10E5900004D0616A002919D0884717E06846008CCA
:10E5A000C007C00F12D068460682208803A9A8DFE2
:10E5B000002812D1A97E0B00FCF746FE0D4A141963
:10E5C0001E2123254A341127292B4A00FF20FE3023
:10E5D00069460882208803A9A8DF0BB0F0BD684611
:10E5E000067006E0012008E02046904718E06846E3
:10E5F00007700146226AF7E70320694623E00420FA
:10E60000FBE70520F9E70620F7E70B20F5E70C20EC
:10E61000F3E703220C212046FDF73CFB0028DCD168
:10E620000020DAE7288B032805D2032208212046A0
:10E63000FDF730FBD1E7287FE97E000208436946F9
:10E64000888003D007200870226ACDE70820FAE707
:10E650000322ECE770B50D780446012227482B0011
:10E66000FCF7F2FD0D3133353908192642473E18C3
:10E67000373B1800FEF762FD0421FFF727FE024634
:10E6800004212046FDF706FB002803D00022114696
:10E69000FCF7B0FF70BDFEF7D1FF002803D00022C9
:10E6A0001146FCF7A7FFFEF739FD002808D170BD21
:10E6B000FEF7C4FF002803D000221146FCF79AFFA2
:10E6C000FEF7BCFE70BD062108E0027170BD02219C
:10E6D00004E0032102E0042100E00521017170BD86
:10E6E000204600F00DF870BD42708988018141819B
:10E6F00070BD00214170018170BD00006C200020C0
:10E700007CB5164A0124157900222B00FCF79CFDEC
:10E710000712050B1322191C1200114B00930192D2
:10E720000223012204E00F4A0092012301940222F5
:10E73000FFF7FEF97CBD0C4A0623009201940A22E1
:10E74000F6E700F015F87CBD084B00930192052315
:10E750000922EDE7FCF7B8FE7CBD00006C2000202C
:10E7600069D5030025D20300B9D203008DCF030081
:10E7700070B50546002903D00A798868114601E082
:10E7800000210846FEF774FD154C02280ED0032820
:10E7900006D0042816D006220B212846FDF77AFA67
:10E7A00000F0AEF8E1684018E06070BD07220B2170
:10E7B0002846FDF76FFA0028F2D000221146FCF738
:10E7C00019FFEDE701220B212846FDF763FA002827
:10E7D00003D000221146FCF70DFF0120E070DFE7B7
:10E7E0006C20002038B5002804D08178891EC9B279
:10E7F000001D01E000210846FEF73AFD0F4C0228FB
:10E8000012D003280AD0042810D00098C1B20B20DF
:10E81000FFF780FD01460B2000F0A8F900F070F82A
:10E82000A1684018A06038BD0721F4E701210B2042
:10E8300000F09CF901202070F0E7000090200020FB
:10E84000F0B58DB06846FDF7C3FC68460078012836
:10E8500002D008200DB0F0BD032636030199B06840
:10E86000FEF712F916498968814201D00B20F1E7C1
:10E87000144D134C0127EF70883C2068002802D10A
:10E880006068002801D00620E4E70A2028701821DB
:10E8900006A8FCF796F90A48AF70F43009900120F9
:10E8A00080020A90A0680890B068079001980690CE
:10E8B00005480B9006A800F027F80020CAE70000E2
:10E8C0006822002048200020F5F1030008B50A4620
:10E8D00001466B460848FFF766FA0849009B0A683C
:10E8E000D2180A60012803D0002802DA0020C043B1
:10E8F00008BD002008BD000060310020BC200020C1
:10E9000010B5FDF793FE10BD38B504000F481CD0BC
:10E91000E168002919D06168002916D00C48FFF77A
:10E9200031FA20690090A368E26821686068FDF709
:10E9300083FE30210748FCF744F906480649416048
:10E940006169816005490020086038BDFFFFFFFF55
:10E950006031002038360020F5DD0300BC200020A7
:10E9600010B50A48FDF70EFD012807D0411C07D05D
:10E97000022808D00028F4D1042010BD022010BDC8
:10E980000020C04310BD032010BD00003836002019
:10E9900070B50D00044604D1002211461046FCF764
:10E9A00029FE002C04D1002211461046FCF722FE5D
:10E9B0002878207069886170090AA170A988E170BF
:10E9C000090A2171E8886071000AA07170BD000019
:10E9D00010B58178022916D3C4782300FCF734FCE3
:10E9E0000D13080B11171F2B1313330E142E1300C6
:10E9F0000023184A29E00123174A26E00123174A79
:10EA000023E0FCF7CBFD10BDFFF7ECFE10BDFEF7D9
:10EA100095FB0421FFF77EFC0146042010E0FEF781
:10EA20007DFB04460521FFF775FC0146052000F03B
:10EA30009DF8002CEAD0FEF701FD10BD03210C204B
:10EA400000F094F810BD064A012301462046FFF766
:10EA500095F810BD69D5030025D20300B9D2030093
:10EA60008DCF0300F8B50025204C01276570204E9E
:10EA700034E0AA2807D0E17800290BD0AB2807D0D2
:10EA8000AC2804D004E0A7706560E57026E0AA20F9
:10EA9000E57001E0AB2809D0A17800291ED001293A
:10EAA00006D0022908D0032918D109E0E77015E043
:10EAB000B0700220A07011E0F0700320A07004E09C
:10EAC000616872181071491C61606068B178801CBF
:10EAD000814203DCA5700648FFF77AFF03480C303B
:10EAE00000F04DF8411CC4D1F8BD0000902000207A
:10EAF0009C27002010B50B6889680868441C0C60CE
:10EB00001A5410BDF8B507460E460C46002008E022
:10EB1000395CAA2901D0AB2901D1641CA4B2401CE4
:10EB2000C0B2B042F4D3A41CFF2C1CD8AA2000F021
:10EB300027F9E0B200F024F9102000F021F90025B7
:10EB40000FE0785DAA2801D0AB2806D1AB2000F0F9
:10EB500017F9785DAA2807D0AB2000F011F96D1CD9
:10EB6000EDB2B542EDD3F8BDAC20F6E708B56A4684
:10EB70001070517002216846FFF7C4FF08BD10B540
:10EB800072B6FCF77BFB62B610BD000010B5044600
:10EB90000948102200212060FCF78AFC002806D1D9
:10EBA0001022FF212068FCF783FC002801D0002000
:10EBB00010BD012010BD0000E0FF030070B5064647
:10EBC00010480125044606220021FCF771FC0028AC
:10EBD00006D10622FF212046FCF76AFC00280AD055
:10EBE0000949002506223046FBF78CFF7079C021C9
:10EBF0000843707104E0062221463046FBF782FF8D
:10EC0000284670BDF0FF0300A4000010FEB5684662
:10EC100000F034F8002802D16846FFF7CFFF00204B
:10EC200069460A5CD2430A54401CC0B20628F8D395
:10EC30004879C0221043104D487100240520071B5D
:10EC40006846C05D0009FFF7E5F861006618A85541
:10EC50006846C05D0007000FFFF7DCF871194870C7
:10EC6000052C06D03A20641C8870062CE6DB02488E
:10EC7000FEBD0020F7E700006836002070B50646AC
:10EC800010480125044606220021FCF711FC00284B
:10EC900006D10622FF212046FCF70AFC00280AD0F4
:10ECA0000949002506223046FBF72CFF7079C02168
:10ECB0000843707104E0062221463046FBF722FF2C
:10ECC000284670BD80100010A400001010B5094C3B
:10ECD000207800280DD060780028FCD10649042057
:10ECE00008600220FCF7C0F900F05EF900206060C7
:10ECF000207010BDC020002080E100E03EB51A4A1F
:10ED00000121117000215170516002230424174A1F
:10ED1000002808D115482430046015480069400ACD
:10ED2000C007C00F1ED009206A461070FF20507027
:10ED3000D070907011710F480290684600F068F929
:10ED40000D484460411541600220FCF78DF9032114
:10ED50000220FCF793F90948046004490C2028318B
:10ED600008603EBD53623EBDC02000200007005039
:10ED70000005005000E0D7010023004000E100E062
:10ED800010B500F093F910BD10B5044602E0641C04
:10ED900000F08CF920780028F9D110BD3EB5164D51
:10EDA00000242878002806D068780028FCD16C6000
:10EDB0002C70FFF78BFF012028706C7009206946CA
:10EDC0006C6008700A204870FF20C87088700C7151
:10EDD0000A480290684600F01BF909480424446080
:10EDE000411541600220FCF73FF901210220FCF7A8
:10EDF00045F9044804603EBDC020002000E0D70172
:10EE00000023004000E100E0014948607047000035
:10EE1000C020002070B501240B49600408600B4934
:10EE200040108860094940398860094D6C602F2086
:10EE3000FBF79AFDAC60074D00242F206C61FBF7B7
:10EE400093FD2C7170BD000080E100E04013014093
:10EE5000001001405021002010B5054A14210C205B
:10EE6000FCF7AEFC002801D0FCF74CF910BD000007
:10EE7000BC2F0020F7B582B002981446806A0F4676
:10EE8000002833D0029800252030009028E0029816
:10EE9000816A0C2068430E18217830794A1C227050
:10EEA000C01C785420781622411C21703A542078D6
:10EEB000C119308800F0BCFA21784018C0B2207027
:10EEC000B288002A09D0B16800290FD0C019FBF719
:10EED00019FE20783179401820706D1C0098EDB231
:10EEE000007BA842D3D8002005B0F0BD0720FBE787
:10EEF00010B500221146FCF77DFB10BD00B593B0A4
:10EF00001B4810901B48119010A91B48FCF712FEDB
:10EF1000002803D000221146FCF76CFB4021684614
:10EF2000FBF74FFE15A16846FCF792FF16A102A859
:10EF3000FCF78EFF19A108A8FCF78AFFFFF766FE11
:10EF4000014604A8FCF784FF0120014608A81031FF
:10EF500001770020014608A841776846FCF7CAFE01
:10EF6000002803D000221146FCF744FB13B000BD7B
:10EF700055E60300F1EE0300742700205269676133
:10EF8000646F2C204C4C430052696761646F2053BE
:10EF9000656375726520444655000000332E322E9D
:10EFA000302028343229000010B5134800210170A8
:10EFB000124A0120D060506011480160114B4A1E76
:10EFC0009A60C2604261826002610D484030C16255
:10EFD0000D480C2302780D4C202A02D292001219FF
:10EFE00013604278202A02D2920012191360016045
:10EFF0004160816010BD0000C8200020002000405A
:10F0000000250040002300407C360020000700500F
:10F0100070B504003BD0FFF7C7FF60781C4920287B
:10F0200000D2C86020781B4A202805D24861207889
:10F030000C23800080180360257900230120002D17
:10F040000FD0A5780326AD00AD182E60E578AD0091
:10F05000AA181360E2780A61A2788A600C4A4032EA
:10F06000D06200220C4DD243AA60A2684A620422F8
:10F070000A600A4AD06050604969202902D21060B3
:10F0800007498B601CCC07491CC10749087070BD3B
:10F0900000250040000700500023004000200040F1
:10F0A000002100407C360020C820002070B51049A7
:10F0B000097800291AD00F49CA68202A16D20E4BA7
:10F0C00001229A60CC680325A6000C4C36193560E5
:10F0D000C8610B48C1690129FCD10021C161DA6016
:10F0E00008480C21407880000019016070BD0000C4
:10F0F000C8200020002500400020004000070050EC
:10F10000002100407C36002010B508461146C0465C
:10F11000C04610BD002803D00249C86000207047D7
:10F120000E2070477421002070B5002901D08C0793
:10F1300001D0072070BD064C0125A1606280054901
:10F14000636010DF0028F5D1257016202EDF70BD1A
:10F150007421002009F1030011DF002801D00121F2
:10F1600000E00021014A1170704700007421002066
:10F17000002803D002490861002070470E20704724
:10F1800074210020F3B583B0044604984168806878
:10F1900000680D1A28D0A0880027A84200D2054692
:10F1A000134801902646E088D536029014E0218964
:10F1B0000298081A01990840305C009002462046E7
:10F1C0000499FFF797FC2189019A00981140705427
:10F1D0002089401C20817F1CAF42E8D3A088401BBF
:10F1E0000004000CA08000D0062005B0F0BD000097
:10F1F000FF03000070B5084C0D46E268A1692B467C
:10F20000891802460020FEF71DFC002803D1E068A3
:10F210004019E060002070BD4820002010B5FEF7C6
:10F2200019FC10BD70B50C00054604D10022114632
:10F230001046FCF7DFF9002D04D1002211461046DC
:10F24000FCF7D8F9207828702088FF2109020840AF
:10F25000000A6870206809020840000CA870206845
:10F26000000EE87020792871207A68712089000AE0
:10F27000A871A068000CE87170BD0000012002496F
:10F28000000508607047000000E200E0F0B5174F8D
:10F290002421BC6841430D1939694A1C09D0242234
:10F2A0004A4316196B687268934204D8D21A726086
:10F2B00029623861F0BD0A4602E00A46396A9B1BA2
:10F2C0004E1C0BD024264E4337197E689E42F4D341
:10F2D00024264E4336197768FF1A77606B602962DF
:10F2E00024214A4311190862F0BD0000502100207A
:10F2F00070B5194C2269A5681346114606E0814293
:10F3000007D00A46242671434919096A4E1CF6D1D2
:10F3100070BD002EFCD08A420CD1242043435819E2
:10F32000006A2061401C05D10C4B0120986000232D
:10F3300063616071242041434819242341685A4382
:10F34000006A52191062421CE2D024225043401934
:10F3500042685118416070BD5021002000100140EA
:10F36000F8B51D4C2569681C35D01C48002640683E
:10F370006169401A07023F0A19E024204543A0684A
:10F380002A185068B84214D8A3693F1A8619156A1A
:10F39000002B09D0D16990699847002807D0002236
:10F3A0001146FCF727F902E09169D0698847681C8B
:10F3B000E3D1A178E078814206D1401CC0B2E07070
:10F3C000022801D10020E07003490006800D1C31A5
:10F3D0000E50FFF753FFF8BD5021002000150140EB
:10F3E00030B5002305E004780D78401C6C402343C1
:10F3F000491C521EF7D2002B01D0012030BD002045
:10F4000030BD000010B501460748FBF74DFF064828
:10F410000C384178002906D1012141700021034AAE
:10F420000846FCF73DF910BD9C20002065EA03006A
:10F430000870000A48700220704710B50446FBF7B8
:10F44000C2FB0002E178000A0906084310BD000073
:10F4500038B51549154A488890420FD04A78144C5F
:10F46000521CD2B24A70237B934208D3083175DF15
:10F47000002803D0A169002900D0884738BD0025A5
:10F480004D70217C002907D03B2176DF002803D076
:10F49000A169002900D0884761690029EED068463B
:10F4A0000570884738BD0000D0200020FFFF000015
:10F4B0008836002012494868C005C00D19D01038A0
:10F4C00040B2002807DA0207120F083A92089200A9
:10F4D0005118C96904E081080A4A89008918096835
:10F4E0008007C00EC1400806800F012803D0032802
:10F4F00003D00220704700207047012070470000B1
:10F5000000ED00E000E400E042788378521C934272
:10F5100000D100220378934201D1002070470A6095
:10F52000416840781822504308187047F8B51546CE
:10F53000069C1E4607460222009400F00AF80028A6
:10F5400006D13346102229463846009400F001F8CF
:10F55000F8BDFFB583B0074600200C9C8646267890
:10F5600005463AE07868A90041180A886846828012
:10F570004988C1800022694601A865DF002810D1B2
:10F58000684601780598814226D17046002801D04E
:10F59000002200E002222078891841181F2902D990
:10F5A0000C2007B0F0BD7146002908D1401CC0B244
:10F5B000411C069B049A21701A540120864621782A
:10F5C00006980A18694601A865DF0028E9D169464E
:10F5D00020780978401820706D1C3888A842C1DC5A
:10F5E0007046002804D020780699801B401E88555C
:10F5F0000020D6E710B586B004A8FFF7C7FA0028A8
:10F600002FD00C21184A1023501802920391009019
:10F61000019300215C30049AFEF7DDF800281DD12B
:10F62000114A30232C321046144611463C30FEF766
:10F630008DF8002812D10C4905AA1C3108464C301F
:10F64000FEF797F8002809D10598102806D1102256
:10F6500021460498FFF7C4FE002802D00B2006B014
:10F6600010BD0020FBE700000C22002010B5094C63
:10F6700048DF002803D000221146FBF7BBFFFCF750
:10F680008FF8A078032803D0042801D00528EFD1F3
:10F6900010BD000008200020002201E00270401C84
:10F6A000491EFBD27047000023D1BCEA5F782315C6
:10F6B000DEEF121200000000020000000000000057
:10F6C0000000000000000000020000000000000038
:10F6D0000000000000000000000000000094020094
:10F6E0000084020004000000000000000000000090
:10F6F0000000000000000000020000000000000008
:10F70000000000000000000028F703000020002097
:10F7100088010000AEAD030040F7030088210020FF
:10F72000981D000004A90300D10563CA9DC6A40367
:10F730002AFFFF3202052A9D28002003BA24F40084
:020000041000EA
:0410140000A803002D
:040000050003A8C18B
:00000001FF
