:020000040007F3
:10500000E88C00204954070051540700535407000E
:10501000555407005754070059540700000000007A
:105020000000000000000000000000005B540700CA
:105030005D540700000000005F5407006154070042
:10504000A9570700635407003D5A0700635407003F
:105050006354070063540700635407006354070058
:105060006354070063540700635407006354070048
:105070006354070063540700635407006354070038
:105080006354070001580700635407006354070086
:105090002558070063540700295807006354070088
:1050A0006354070063540700635407006354070008
:1050B0006354070063540700000000000000000074
:1050C00063540700635407006354070063540700E8
:1050D0006354070063540700635407000000000096
:1050E00000000000000000000000000000000000C0
:1050F00000000000000000000000000000000000B0
:10510000000000000000000000000000000000009F
:10511000000000000000000000000000000000008F
:10540000DFF80CD000F07AF800480047ED8707007D
:10541000E88C0020056885F308884068FF2464B2A2
:10542000EFF30585002D01D1A64600472546064627
:1054300021273FBAF0B40024002500260027F0B44D
:10544000F92040B200470000064880470648004760
:10545000FEE7FEE7FEE7FEE7FEE7FEE7FEE7FEE724
:10546000FEE7FEE74D58070001540700202A04DB41
:10547000203A00FA02F1002070479140C2F1200367
:1054800020FA03F319439040704740EA01039B0759
:1054900003D009E008C9121F08C0042AFAD203E0A9
:1054A00011F8013B00F8013B521EF9D27047D2B20D
:1054B00001E000F8012B491EFBD270470022F6E7FD
:1054C00010B513460A4604461946FFF7F0FF20467A
:1054D00010BD421C10F8011B0029FBD1801A704737
:1054E00030B504460020034600E05B1C934203D223
:1054F000E05CCD5C401BF8D030BD0000064C074D91
:1055000006E0E06840F0010394E807009847103493
:10551000AC42F6D3FFF778FF7CA207009CA20700FD
:1055200030B58C1810F8012B12F00F0301D110F8D0
:10553000013B120906D110F8012B03E010F8015BC2
:1055400001F8015B5B1EF9D101E001F8013B521E3D
:10555000FBD1A142E6D3002030BD00000748002166
:10556000074A017002F5845002602022C0E901213F
:10557000C16001614161816108467047882C00204B
:10558000A8520020F0B5194A0646916861B35569E2
:105590001020691A01F01F01D2F800700B46012497
:1055A00001EB411C07EB8C0CB44506D1956904FA5C
:1055B00001F675400020956104E0491C01F01F01CF
:1055C0008D42EDD1491C956901F01F0104FA03F3E6
:1055D0001D420AD19368002B07D05B1E936053686D
:1055E0005B1C53600B46F1E70420F0BD28630020EC
:1055F000064980230A7C0968521E02F01F0202EB52
:10560000421203EB8202885000207047286300207A
:1056100070B5D0B1C9B10F4AD368C3B15B1ED360B6
:1056200093685B1C93605369156803EB431405EBA7
:1056300084060660802000EB84005B1C285808600C
:1056400003F01F005061002070BD0E2070BD0420CB
:1056500070BD00002863002010B5E9B100220A6087
:10566000104A5368E3B1802818D85B1E5360D06895
:10567000401CD0601069136800EB401403EB8403F6
:105680000B60012383409169401C194300F01F0007
:1056900091611061002010BD0E2010BD0C2010BDC6
:1056A000042010BD2863002000F01F02012191405A
:1056B0004009800000F1E020C0F88012704700F03F
:1056C0001F02012191404009800000F1E020C0F854
:1056D0008012704700F01F020121914040098000B4
:1056E00000F1E020C0F88011704700F01F02012196
:1056F00091404009800000F1E020C0F8001170479F
:1057000000F01F02012191404009800000F1E020DB
:10571000C0F80011704700F01F02012191404009BC
:10572000800000F1E020C0F80011704700F01F0277
:10573000012191404009800000F1E020C0F80012F2
:1057400070474907090E002806DA00F00F0000F143
:10575000E02080F8141D704700F1E02080F800146C
:1057600070474907090E002806DA00F00F0000F123
:10577000E02080F8141D704700F1E02080F800144C
:1057800070470000BFF34F8F05480168054A01F4D8
:10579000E06111430160BFF34F8F00BFFDE70000E0
:1057A0000CED00E00400FA052DE9F0414FF480779C
:1057B000384603F021F90124104EA50748B13846B8
:1057C00003F021F90120C5F808037470002001F0EE
:1057D0007BFB4FF48277384603F00EF900280BD09C
:1057E000384603F010F90220C5F80803B470BDE88C
:1057F000F041012001F068BBBDE8F081A068002005
:1058000007480021C0F84011C0F84411C0F8481101
:10581000C0F84C11C0F80011C0F8041104F068BBC6
:105820000010014004F0DCBA074810B5406830B100
:105830008047002807D0BDE8104000F02DBBBDE830
:10584000104002F0A5BE10BD582D002070B5714863
:105850000023021D0178101D0125062907D11478A7
:10586000240704D10478C4F30314032C02D00629BE
:1058700004D00FE0694E684C74670EE0147824077A
:1058800008D10478C4F30314032C06D0042C04D0EC
:10589000052C02D0062909D010E04FF08054D4F82E
:1058A00044425F4EC4F34234346002E0147824076B
:1058B00004D10478C4F30314032C02D0062906D0C3
:1058C00011E0584C266826F0807626600EE01478A9
:1058D000240708D10478C4F30314032C06D0042C45
:1058E00004D0052C02D006290AD011E04FF08044E4
:1058F000C4F80C31C4F81031494C241F236002E075
:105900001478240704D10478C4F30314032C02D0C0
:10591000062905D00CE0424A0321643211600AE0F6
:105920001478240704D10478C4F30314032C02D0A0
:1059300006290DD06AE03C4A052111603A497831C8
:105940000D60394908310B603F21121D116002E0E2
:10595000117809075AD10078C0F30310052855D1F2
:1059600032480068324908603048001D0068091D4F
:1059700008602E4808300068091D08602B480C306C
:105980000068091D0860294810300068091D08607A
:10599000264814300068091D086024481830006843
:1059A00023492031086021481C300068091D086027
:1059B0001E4820300068091D08601C48243000681B
:1059C000091D0860194828300068091D086017483B
:1059D0002C300068091D08601448303000681449F4
:1059E00040310860114834300068091D08600F48D4
:1059F00038300068091D08600C483C300068091DFB
:105A000008600A4840300068091D08600A490948D2
:105A1000086070BDE00F00F00DF0ADBA00C00740A7
:105A20003C050040FCED00E010560040040400106E
:105A300020C500400090D003002C002070B50D4C14
:105A4000D4F808010025012808D10B4841680B480B
:105A5000006809B1C0B28847C4F80851D4F82401DD
:105A6000012801D1C4F82451BDE870400220FFF79D
:105A70001BBE000000200040C02C00201825004064
:105A800002E008C8121F08C1002AFAD17047704707
:105A9000002001E001C1121F002AFBD17047000065
:105AA0000121202803DA81400548014003E0402815
:105AB00002DA2038814009B1012070470020704788
:105AC000FC06FFBC38B5062565F30700009400F01E
:105AD000BDFE38BD10B5C168002902DC4FF0FF30B3
:105AE00010BDD0E90112895C82680368521C92FBE8
:105AF000F3F403FB14228260C268521EC26008469F
:105B000010BD10B5C26803689A4201DB002010BDC9
:105B10008268C3681A44036892FBF3F403FB1422FF
:105B200043689954C168491CC160012010BD2DE92A
:105B3000FC47002517880646158090F82D0014466E
:105B4000894630B13A462146484600F0C7FB050079
:105B500009D1B0784FF00C0A18B32088C846001D50
:105B6000B84202D95046BDE8FC87684679DF002874
:105B7000F9D12088032108F8001020881921401C41
:105B800080B2208008F800102088401C80B220805D
:105B900000EB0801BDF8000004F016FA2188084463
:105BA0002080F0780222C8B1218896F9033001F1F3
:105BB000030C4846BC45D5D8425421884FF0010C0F
:105BC000491C89B2218000F801C02188491C89B292
:105BD000218009F801302088401C20807068B8B10D
:105BE000218890F9003001F1030C4846BC45B9D832
:105BF000425421880A22491C89B2218042542188BA
:105C0000491C89B2218009F801302088401C20807D
:105C1000308950B1CDE900474B460622022106F1FA
:105C2000080004F03DFA05009DD1308A50B1CDE95D
:105C300000474B460722032106F1100004F030FA1A
:105C4000050090D1308B50B1CDE900474B4615226D
:105C5000142106F1180004F023FA050083D1306AFC
:105C600030B13B462246494601F05EFA0500DBD1E1
:105C7000706A30B13B462246494602F035FE0500C7
:105C8000D2D196F82C0038B13B46224649463046E0
:105C900003F06AFE0500C7D1307838B13B46224692
:105CA0004946304602F052FE0500BDD128465AE76B
:105CB00030B518488FB0062500798DF83A0049F2C2
:105CC0003000ADF8380038216846FFF7F7FB0220B6
:105CD0008DF8000001200024ADF808000EA88DF812
:105CE000024003908DF803502146684600F04EFABA
:105CF00008B100F0D1F807484FF4C87110380460BB
:105D000044608460C46004700472418184810FB077
:105D100030BD0000F430002010B5064CA0780028FB
:105D200006D1054873DF08B100F0B6F80120A07075
:105D300010BD0000302C0020E430002006E000BF41
:105D400010F8013B8B4201D000207047521EF7D261
:105D5000012070471FB58178891ECCB2A1074FF092
:105D600003011CD10091A108001DCDE90110684676
:105D700001F032FD039001000B4807D009290AD039
:105D8000C9B2032002F04DFF014608E081682144BA
:105D90008160012103E081682144816007210320A3
:105DA00003F0E6FB1FBD0000142C00202DE9FF418D
:105DB000054608790E46810701D0032239E02C49B7
:105DC0000090FFF749FC010011D1294CB168143C47
:105DD000009A6069FFF759FB0098FFF709FC010082
:105DE00005D169462248FFF713FC010004D028467C
:105DF00001F044FDBDE8FF81032001900098800878
:105E000002906069039001A801F0E6FC07000BD046
:105E1000092F17D06069FFF7B5FB010002D02846B3
:105E200001F02CFD3946E2E730792169012208446E
:105E300020610321284600F033FB0028DAD000F06F
:105E40002BF8D7E730792169014421616078002877
:105E5000D0D0A089401E0004000CA081CAD12846E1
:105E600000F0EAFA08B100F017F86089A081C1E7F4
:105E7000442C0020BFF34F8F05480168054A01F408
:105E8000E06111430160BFF34F8F00BFFDE70000E9
:105E90000CED00E00400FA050EB500210091CDE9FB
:105EA00001106A4644F20100FFF7E4FF0EBD000056
:105EB0002DE9F84F254C8146924660880E46814276
:105EC00041D800274FF6FF788DF80070684600F043
:105ED0001FF922786078A188884201DA401C00E02E
:105EE0000020C0B2904204D19DF8000000F034F9C7
:105EF00027E065786078884201DA401C00E00020E5
:105F000060709DF8000000F027F9454519D0A068A1
:105F1000B9F1000F40F835A00DD066B16188E06896
:105F2000324605FB01004946FFF7AFFAA06800EBD7
:105F3000C500868002E000EBC50087800020BDE838
:105F4000F88F0420FBE70920F9E70000282D002046
:105F500010B50E4C03E0401C00E0002020702078BB
:105F60006178814210D022786188E068A36802FBE2
:105F7000010003EBC20153F8322089889047207852
:105F8000A1888842E9DAE6E710BD0000282D00204C
:105F900030B5CB0008339DB293074FF0000401D019
:105FA000072030BD044B9A602A44DA605C701C7094
:105FB00058809980002030BD282D0020074B5B6859
:105FC00023B12AB120B10068037C1BB108207047BF
:105FD000072070474174426100207047482D00201F
:105FE0000649496839B130B1416921B100210174D4
:105FF000022103F059BF082070470000482D0020FF
:10600000D4255346180000000303012E00000001B0
:10601000060203004C78B0492DE9F0470746984640
:106020001446894690074FF0000526D12CB303F0A3
:1060300035FC134E06F11000C6F80C800570457053
:1060400080F8029044607560357075701420FFF719
:1060500036FB06211420FFF784FB1420FFF750FBCA
:106060000848076006211120FFF77BFB0548001F49
:106070000068B0600020BDE8F0870720FBE7000063
:10608000382D0020081501402DE9FC47DFF87890F5
:10609000D9F8043073B368B3052902D20720BDE8EC
:1060A000FC87436933B3437C012B25D0002704468A
:1060B0000025884616468DF80050684600F028F8FE
:1060C00001A803F0D5FFC8B1012101700F49446058
:1060D0000968C0E90218C0E904769DF8040089F84F
:1060E00001009DF8000000F037F81420FFF71EFBB8
:1060F0002846D4E70820D2E70F46D8E704259DF8C4
:10610000000000F029F8F3E7482D002004150140B5
:1061100030B5EFF3108172B60D4A9468012324B1B3
:106120000370002900D162B630BD93604FF0E023C8
:10613000D3F88051074C25401560C3F88041D3F84F
:10614000844154605A17C3F8842100220270E8E7A2
:10615000B4680020FC06FFBC0B498A68002A11D0F5
:1061600000280FD1EFF3108072B60B684FF0E022D9
:10617000C2F800314B68C2F8043100228A6000285E
:1061800000D162B670470000B4680020F0B50C463C
:1061900093B01F210726ADF80010ADF804100027BA
:1061A00050B1C17849070DD56A4602A9FFF7BFFC77
:1061B000002808D102AD02E00025ADF800706CB1F6
:1061C000E07810B1304613B0F0BD01AA0AA920460C
:1061D000FFF7ADFC0028F6D10AAA02E00022ADF8D4
:1061E0000470BDF80400C3B2BDF80000C1B2284677
:1061F00072DFE8E770B5054601461C220F48FFF73D
:1062000044F90F4C00262670286830B1016861609F
:106210004068A060201D7ADF02E00948001D7BDF96
:1062200000280AD14FF6FF7060806670BDE87040AC
:10623000044A00210448FFF7C1BE70BD84680020F5
:10624000C82C002011A0070064A2070070B51E4CE6
:10625000068800231B49E289102E15D01B4D112EF4
:106260001CD0122E29D0502E17D130F8061F914283
:1062700013D14189022910D10C3000F0F0F988B116
:10628000BDE8704000F0C4BF84884C800469CC60D5
:10629000406908614B70002AF2D070BD4FF6FF7064
:1062A00048804B702868FFF79BFE0028F5D0A16955
:1062B0000029F2D0BDE8704008478268CA60C06813
:1062C0000861DDE7C82C00208468002064A2070074
:1062D00001480068FFF784BE64A207007CB505464C
:1062E00008880C460930904201D90C207CBD6846D4
:1062F0006DDF0028FAD121880820685420881B21EE
:10630000401C80B2208029542088401C80B220800C
:106310002844DDF801100160BDF805108180208857
:10632000801D80B220809DF80010490800D0012116
:1063300029542088401C208000207CBD30B585B0C9
:106340000D46040033D08DB3286878B3194B4FF64F
:10635000FF7020800FCB0DF1040C8CE80F0049F288
:106360003000ADF8000001A8811E63DF00281BD1BA
:10637000A21C69460120A0DF002815D19DF802006B
:106380002071204601F07AFB00280DD1204601F053
:10639000D4F9002808D128682062686800B16062DA
:1063A000054901200870002005B030BDFFE70E2030
:1063B000FAE7000054A20700802C00203EB5002818
:1063C00034D0002932D0026A002A2FD00A88102A3D
:1063D0001BD0112A2BD0502A19D0512A26D104467D
:1063E00011F8060F022821D14888E28990421DD178
:1063F0002046891C02F0C0FD002817D0616A0029E0
:1064000014D003B0BDE830400847898811E0CA883D
:10641000C3889A420AD109228DF800200A7C1231E1
:106420008DF804200291026A694690473EBD4FF6FE
:10643000FF7101803EBD000070B588B050B3028886
:10644000A2F57F43FF3B27D0144A127822B3134BA7
:1064500011225B1C0E0A1A7059709E700E0CDE70B1
:10646000090E0024197101250521ADF818100094BA
:10647000019402940394C189ADF8001006A9CDE9F6
:1064800002138DF80250ADF8044000886946A6DF7B
:1064900008B070BD0E20FBE70820F9E7802C002033
:1064A00030B585B028B30388A3F57F44FF3C22D0E4
:1064B000124B1B78FBB1114B10255B1C00241D7087
:1064C00059709A7001250321ADF8101000940194C1
:1064D00002940394C189ADF8001004A9CDE9021318
:1064E0008DF80250ADF8044000886946A6DF05B07B
:1064F00030BD0E20FBE70820F9E70000802C0020CB
:106500007FB5044601208DF8060041F60A00ADF87B
:106510000400454A01A90120A0DF00287ED122887D
:1065200004F13C0552B140482B46801C009042F6D5
:106530002920616800F078FC002873D1228952B1CB
:1065400039482B460A30009042F62420E16800F0DA
:106550006BFC002866D1228A52B133482B46123098
:10656000009042F62520616900F05EFC002859D1B8
:10657000228B52B12C482B461A30009042F627202D
:10658000E16900F051FC00284CD1228C52B1264820
:106590002B462230009042F62620616A00F044FC2F
:1065A00000283FD1228D52B11F482B462A3000903F
:1065B00042F62820E16A00F037FC002832D1216B36
:1065C00071B102A803F0EAFB17482B463230009065
:1065D000082202A942F6232000F026FC002821D13F
:1065E000606B58B110492B463A310091027901682D
:1065F00042F62A2000F018FC002813D1A16B81B1CB
:1066000002A802F0C5FE08482B464230009007223F
:1066100002A942F6502000F007FC00E002E000284A
:1066200000D1002004B070BDDC2C002010B5044661
:10663000FFF70CFE21460448FFF7C0FE2046BDE8E8
:10664000104002F053BC0000F430002070B5044646
:106650000D460846FEF73DFF2080656070BD00785E
:1066600000F001007047000030B51E498DB00A1DD2
:106670000DF11C0C3CCA8CE83C0009680B9120B160
:1066800007A818DF08B1FFF707FC4FF4EA2013DF73
:1066900008B1FFF701FC0023BC2213490BA803F04B
:1066A000E3FA08B1FFF7F8FB6A460121002003F086
:1066B000C5FA8321ADF8101008B1FFF7EDFB0120FA
:1066C0008DF81400684603F0AFFA08B1FFF7E4FB59
:1066D000064803F00DFB002801D0FFF7DDFB0DB0ED
:1066E00030BD000068A2070038690020999D0700AE
:1066F000F8B54FF44056B068D0E90054684600F051
:1067000007FA00980078012802D008B1FF2811D1BB
:10671000A8070FD1A5F10055B5F1011F0AD2E00776
:1067200009D0B068A04205D8C0F5E42100EB5100C3
:10673000A04201D80020F8BD0120F8BD11DF0849B2
:10674000C0200860BFF34F8F06480168064A01F475
:10675000E06111430160BFF34F8F00BFFDE7000010
:106760001C0500400CED00E00400FA0508B5684681
:1067700000F0CEF900980178A52904D04078AA2825
:1067800001D0002008BD012008BD10B501F065FA58
:1067900018B900F006FF002810D001F021FA08B166
:1067A000FFF77AFB01F059FA08B1FFF775FB00F02B
:1067B000D9FE041E01D0FFF76FFB204610BD00007C
:1067C00000B587B01422084901A8FEF75EFE0598BF
:1067D0000DF1040C00909CE80F0000F037F803F076
:1067E00001FD07B0002000BD2CA207002DE9F041FB
:1067F0000746124C00200E461546E0700146104A2E
:106800001048FFF7DBFBA0B9C4E9025601F08EF88F
:1068100078B90C48002239460068FFF735FC40B9CA
:10682000094803F035F801F0F9FA03F0DBFCE078F1
:1068300010B10020BDE8F0810120FBE7042C00200E
:106840001D6A070018A20700D56A07002DE9F84362
:1068500005460E4617461C466846DDF8209000F0B7
:1068600057F915F0FF013C48DFF8F0804FF00105C3
:106870004FF002024FF0FE0318D001291CD003296B
:1068800024D00024022934D0062945D0FD22042931
:106890004ED0052955D0072929D198F80100B0B369
:1068A00001F0B6FA052088F802001EE04460057089
:1068B000437088F8022040E0F11921444160A5218D
:1068C00001704370C0F81490866007E000990B785F
:1068D000037049684160AA2141708660C0E9037471
:1068E00088F802201C4800F080F888F80350BDE8C2
:1068F000F883009E317801290AD049B1FF2907D0D9
:106900004460037043708460C4600461E8E71FE082
:10691000017071684160F5E798F8010028B101F055
:1069200077FA042088F80200E1E701F053FAF8E76B
:1069300044600270009949784170074800F055F8AA
:10694000D5E700990B780370496841604270F4E71D
:1069500001F040FAA6E70000C82D0020042C00201A
:1069600010B501F001FCBDE810400249012001F022
:106970000BBC0000998007002DE9FF4100244FF473
:10698000405825462646D8F8087008E0320B01200A
:106990000021FEF76BFD04430D4306F58056B74218
:1069A000F4D809480560001F0460084B0FCB8DE840
:1069B0000F00684618DF4446D8F8080013DFA068C7
:1069C00002F012F8BDE8FF81040600401CA2070097
:1069D00038B50446684600F09BF800980021425CF8
:1069E0006254491C1829FAD338BD70B505464FF4D6
:1069F000FC2418222146012001F0AEFB08B1FFF76C
:106A00004BFA18232A462146012001F0C5FB002835
:106A100003D0BDE87040FFF73FBA70BD05488078ED
:106A200008B1012804D10021034A0846FFF740BA03
:106A300070470000042C0020C55A070001488068F8
:106A400000F014B8042C002010B5074CA07828B929
:106A5000607808B902F076FE0120A070E068BDE819
:106A6000104000F003B80000042C002070B505466B
:106A70000948807804280CD0084C2068FFF7B0FA49
:106A8000002807D129462068BDE870400022FFF7A2
:106A9000FBBA082070BD0000042C002018A20700DB
:106AA00001480068FFF79CBA18A2070010B5084C0F
:106AB000A0786178084309D101F08CF90120607059
:106AC000FFF7C2FFBDE8104001F0DAB910BD0000C9
:106AD000042C002070B50C4A0025141F2178515C4D
:106AE000814200D025702178525C824201D1491C3C
:106AF0002170C8B2042805D10021044A0846FFF7D6
:106B0000D7F9257070BD0000082C0020AD6A070081
:106B1000014901607047000000E007002DE9F04FD7
:106B200085B006464FF0000BDFF8C8924FE162785F
:106B3000012A43D0022A7DD0032AF7D1DDE0207854
:106B4000AC49C0F1080224310144736830469847CB
:106B5000002870DB2178C1F10801814208D099F842
:106B60000020104489F80000012005B0BDE8F08F36
:106B7000A04D5946243595F807C00CF07F03DA0F75
:106B80000620120242EA13622F5C1B02FB184A41E4
:106B9000401E40B20028F4DA5FEA0C6003D5002002
:106BA0005B4260EB0202B06A06EBC000C0E904324F
:106BB00084F800B0B06A401CB06200E0B06A0328FC
:106BC000BDDBD6E904206169531840EBE1706168D0
:106BD0004FEAE172C91A82412DDB0220C6F828B0C3
:106BE0006070F4E04F464FF0000AD7E90232D01A45
:106BF000B0EB040C7BEB050C01DA04465D46D017C4
:106C0000111B70EB050101DA05461446386922466E
:106C1000C11873683046984700280CDBC11780EA1A
:106C2000040281EA05031A4303D04FF0010A044627
:106C30000D4601E057E083E0BB68019300933B6998
:106C40000293D7F81C80CDF810803B6A0020039394
:106C50000146B946D7F818E01AE000BF18EB000368
:106C600051EBE87211D44FEAEE7CB3EB0E0772EBF6
:106C70000C020ADA009A029FDDF80CC01218BF5C01
:106C80001CF803303B44029FBB54401C41F10001FF
:106C9000021B71EB0502E1DB01990919C9F8081023
:106CA000D9F814201219C9F81420049A1219C9F835
:106CB0001C20D6E904321B1B62EB0502C6E9043234
:106CC000D9F80C00814209D14C46B268D4E90310CE
:106CD0004FF0020A9047C4F808B002E0BAF1000F82
:106CE00001D0504641E7D6E9044554EA05007FF457
:106CF00079AF032189F8011069E0D6E90657CA1770
:106D000069187A41C317401A934119DBD4E902107C
:106D1000401A421B7BEB070101DA5F460546C84675
:106D2000D6E90610014348D0D8F81010D8F808006A
:106D30007368014400242A4630469847002802DA46
:106D40004FF0FF3011E7C11780EA050281EA07031F
:106D50001A4302D0012405460F46D8F808104046D1
:106D60004A19C8F80820D8F80C108A4207D1B2682E
:106D70000224D8F8100090474046C8F808B00146F1
:106D8000406940194861D6E90620521B60EB0700B4
:106D9000C6E906200CB12046E7E6531B70EB07035B
:106DA00001DA07461546C8688968401A421B7BEB22
:106DB0000702B5DA05465F46B2E7326AD8F81C101A
:106DC0005118C8F81C104FF0010188F80110D9F8CB
:106DD0001410D9F804004C468142FFF6A8AEA16811
:106DE00031B1B268206990470220C4F808B0BCE60F
:106DF0000020BAE6902C002001484069704700004E
:106E0000902C002030B5074C039DA1610021E16169
:106E1000C4E90131616121702062C4E9035201209B
:106E2000607030BD902C00202DE9F0438FB01E46DD
:106E3000DDF8589015460F00804602D10020FFF77C
:106E40002BF815B90020FFF727F81C216846FEF73C
:106E500035FB00249DF80000039440F002008DF8FB
:106E60000000012001948DF83600049405940694E6
:106E7000ADF834800C9430788DF8300070788DF84F
:106E800031009DF83200142120F00600801C20F013
:106E900019008DF8320007A8FEF710FB0DA8079027
:106EA0000CA808900748ADF82450ADF82640ADF87E
:106EB00028500B974B4607AA69460088A2DF0FB0FF
:106EC000BDE8F083DC2C002070B5084C050009D02B
:106ED00010342168002907D00868206049682846D6
:106EE0008847F6E70834F4E770BD0000A06800208A
:106EF0002DE9F04142EA0304069EA40702D01020C7
:106F0000BDE8F0810E4C2578102D01D30420F7E761
:106F100067783D4405F00F0505EB850504EB850515
:106F2000287169710020C5E90460C5E90223207851
:106F3000411C217008B900F005F80020E0E70000CE
:106F4000A46B002070B519480178002919D0417848
:106F500001EB810100EB81046079241D022811D02E
:106F600004280ED1216960684FF0805508442969D2
:106F7000B0FBF1F028DF112803D02069296908440B
:106F8000206170BDD4E903100D1A4FF480518D4279
:106F900000DD0D46A168626801441044AA0829DF9B
:106FA0001128EED020692844EAE70000A46B0020F5
:106FB0002DE9F05F26484168F1B3DFF898B00E681C
:106FC0008146DBF8004087688078E11B21F07F452F
:106FD000ED1CB0B9DFF880804FF48030C8F844036E
:106FE000C8F804031120FEF76AFB1120FEF788FBA6
:106FF0004FF0010AC8F800A02F2001F011FD89F818
:1070000002A0B54200D23546124BE8193C3320F0BD
:107010007F401860DBF800105A46091B21F07F41C1
:10702000001B20F07F40C91C81420FD910681860F6
:107030002F2001F0F5FC00E004E0BDE8F05F112036
:10704000FEF774BBBDE8F05F02F028BCBDE8F09F1E
:10705000382D002004150140001001402DE9F041B9
:1070600003F086F800281DD10A2200212C48FEF7E3
:1070700065FEB0B12B4E01200503F07028484FF497
:10708000FE272A463946FE30FEF7FFF9244C10222F
:10709000FE3404F57E6000218046FEF74FFE48B9BD
:1070A00002E00B20BDE8F0811022FF214046FEF7F0
:1070B00045FE18B129462046FEF700FA184810226E
:1070C00000211638FEF73AFE30B9154904F57E68FE
:1070D00016390FC988E80F00114806220021801FC9
:1070E000FEF72CFE68B90E49002052390A18C0F18B
:1070F0000503234492F84C20401C83F8F02F062807
:10710000F4DB2A463946002001F026F82B462246B9
:107110003946002001F040F8032070700020C1E7DC
:10712000AA310020582C00202DE9F041178806468E
:10713000B81D14460D46984202D90C20BDE8F081D6
:107140003188072206290AD34FF4486C4FF6FF73A3
:10715000614501D9994202D17088062801D21046B2
:10716000ECE7604501D99842F9D1994203D09842A1
:1071700001D08142F3D80520E85520881221401C17
:1071800080B2208029542088401C80B22080411980
:10719000308802F019FF2188084480B2208041190C
:1071A000708802F011FF2188084420800020C5E784
:1071B000FEF772BE30B5144C87B04FF4C870E08053
:1071C00018206080102020800025A5801C216846A2
:1071D000FEF774F940F6CD40CDE900404FF4804011
:1071E000029003208DF80C000848ADF80E508DF881
:1071F0001050CDE905506846FEF7FCFF002801D08D
:10720000FEF74AFE07B030BD4E2C0020B1710700DA
:10721000F8B5134801F0F8F9114D0026114C0C3D5A
:1072200030B16169B9B101208DF80000684611E004
:10723000287820B1616971B18DF80060F6E768784F
:1072400058B1A168084800220068FEF71DFF10B180
:10725000A16901B188472E70F8BD6168F2E70000AE
:10726000D42C00208468002064A2070070B500239D
:107270005A1E094E0BE0C45C6240072402F001056F
:107280006D42354085EA5202641EF7D55B1C8B4285
:10729000F1D3D04370BD00002083B8ED00F002B8F8
:1072A000002070472DE9F041074658681C46401EF3
:1072B00015460E46102806D2A168002903DB04F10A
:1072C0002408102935DD1020BDE8F081D4E9010142
:1072D000814201D0084622E0E16869B9002007E058
:1072E0002218117D491C11F0FF0111750FD1401CAE
:1072F00021698142F4DC0AE02169401E814206DCFA
:107300002218117D491C11F0FF011175F4D041467E
:1073100004F1140001F04AFA0028D5D1A060421C03
:10732000A26010F8080017F8011B484006F8010B8E
:107330006D1E002DCAD10020C6E72DE9F0410E4692
:10734000DDE90754074615F0FF0F01D0E8B200E071
:1073500010202061102802DD1020BDE8F081E90432
:1073600002D5C0F110002061104601F037FA10205C
:10737000C4E900700020A06005F48050E0600020A7
:107380002218315C11756168401C8142F8DCA80448
:107390001AD5E06848B1481E13E02218117D491C37
:1073A00011F0FF0111750FD1401C21698142F4DCFD
:1073B0000AE02218117D491C11F0FF01117503D15B
:1073C000401E21698142F4DD04F1240104F114001E
:1073D000BDE8F04101F0EAB9024610B50B4611468E
:1073E000034800F073FD002800D0082010BD000005
:1073F000C031002010B58AB008A802F031F9224C43
:1074000080B1224A0C23102102F10C008DE80F00FC
:107410000B4600218830089A00F0A5FD80B10620B7
:107420000AB010BD0020A07020216846FEF746F883
:107430001648202269460C30FEF752F808BB0FE0D0
:107440004FF44050E1698068884206D16846FFF7F2
:10745000BFFA9DF80000FD2813D10120A07001E0C3
:10746000A07850B120216846FEF728F8074820226E
:1074700069460C30FEF734F818B10820607000201F
:10748000CEE70820CCE70000582C00202C3100204B
:1074900008B5102000900E488078002816D00D49BD
:1074A0006A4601F1A40000F028FD70B90098102888
:1074B0000BD1084910222C31064802F05BFD20B99F
:1074C0004FF4FE200068002800D00B2008BD00000B
:1074D000582C00201C31002038B50F4C4FF440557B
:1074E0000020A268A96800F037FE08B1FEF7D4FCBE
:1074F000A968A368C1F5E42001EB5002002000F068
:107500004BFE050006D1002363F30700A368009635
:10751000FFF79CF9284638BD2C31002008B5054BF3
:10752000032161F307000ECB0094FFF78FF90020D1
:1075300008BD00002C31002038B5094B012060F354
:107540000704186801F0DAFB4FF4405189680844D9
:107550000ECB00902046FFF779F9002038BD0000DF
:107560002C31002000B58BB004A8FFF731FA079842
:1075700000280CD0069860B10699099808440021AB
:10758000CDE90010079880080290684618DF0BB01C
:1075900000BD4FF440508068C0F5E42100EB51007D
:1075A000EDE700B58BB004A8FFF712FA07980028A2
:1075B0000FD0069878B106990998084403210091E4
:1075C0004FF4EA21CDE9011007988008039068463E
:1075D00018DF0BB000BD4FF440508068C0F5E421C7
:1075E00000EB5100EAE7000010B50A46022810D06F
:1075F00003281DD005281BD0072819D182B10B21E3
:10760000104601F00EFB01460B20BDE8104001F0D2
:10761000AFBF0121104601F004FB01460120F4E751
:1076200004480078002803D1BDE8104001F0ACBD4B
:1076300010BD0000142C002010B50B460146022896
:1076400023D01E4803290ED0052925D0072933D180
:107650004BB30B21184601F000FB02460B211848E2
:10766000FEF71EFF07E063B1C088A0F57F41FF3938
:1076700022D0132176DF00281ED0BDE81040FEF78F
:107680000BBC1046FDF77EFFF5E70121184601F01F
:10769000E4FA02460121E2E70921184601F0DDFA89
:1076A00002460921DBE7C078002805D1BDE810407B
:1076B0000021034801F094BD10BD0000302C0020D3
:1076C000F43000201FB503230093CDE90101900899
:1076D0000390684618DF04B010BD000010B50446E2
:1076E0000E484178012903D0022905D0082010BD99
:1076F0000021418102214170FFF7A0F90028F6D155
:10770000064B5C220A330649204600F03FFA002867
:10771000EDD1BDE81040FFF7A1BC0000582C0020BF
:10772000583100201FB501230093CDE901019008D5
:107730000390684618DF04B010BD30B58FB0054621
:107740001C216846FDF7BAFE00249DF80000019454
:1077500040F018008DF800000394049405940694FA
:1077600028798DF8360049F23200ADF834000C94D7
:107770009DF83000142120F0FF008DF830009DF8B6
:10778000310020F00F00401C20F0F00010308DF888
:1077900031009DF8320020F00600801C20F0080027
:1077A00040F011008DF8320007A8FDF787FE0DA804
:1077B00007900CA80890ADF824401720ADF826409B
:1077C000ADF828000B94688805F10E0307AA6946F6
:1077D000A2DF0FB030BD000070B5060004D0307AD3
:1077E000800703D0102070BD0E2070BD2148224CB0
:1077F000006850B14FF44051E2698968914204D168
:1078000001F07CFAE1690844E0616078082803D05F
:10781000092803D0082070BD092060707068616974
:10782000850020692844884204D94FF0FF30206148
:107830000C2070BDFFF702F90028FAD1B668A078D5
:1078400028B129463046FFF7C7FD0028F1D121694C
:10785000E0692B4601443246002000F09DFC0028E0
:10786000E7D121692944216162699142E1D009206F
:1078700070BD00002C310020582C002010B50A46A5
:1078800004460321104601F0E8F902460321204690
:10789000FEF706FE002803D0BDE81040FEF7FCBA54
:1078A00010BD0000074810B540780C2801D0082012
:1078B00010BDFFF7F5F8034820304068BDE81040E0
:1078C00000470000582C002070B5164C0025607849
:1078D000092802D00A2806D101250B206070D4E9BE
:1078E0000401884201D0082070BDFFF7A7F80028E6
:1078F000FAD1FFF7CDFD70B97DB14FF440508068EB
:10790000C0F5E42100EB51006169FFF7AFFC0649C7
:107910004968814201D00B2070BD0C2060700020AE
:1079200070BD0000582C0020B431002030B587B065
:107930001949002000F028FC01A8FFF749F89DF83C
:1079400005100025154C4FF44050FD2907D18168E2
:10795000C1F5E42201EB52010968491C16D0806888
:10796000C0F5E42200EB52015208002000F0F4FBC5
:1079700010B1657007B030BD05213046334661F364
:1079800007001A4611460097FEF760FF2561257132
:10799000012060700020EDE7B9800700582C00201E
:1079A00010B504460F484178062902D0072906D1B0
:1079B00003E00021018107214170006908B108201E
:1079C00010BDFFF73BF80028FAD1064B2022083300
:1079D0000549204600F0DAF80028F1D1BDE8104052
:1079E000FFF708BD582C00203831002070B50F4C2F
:1079F00005460E4660780A2801D0082070BDFFF7C2
:107A00001DF80028FAD16DB1A07828B1314628467A
:107A1000FFF7E2FC0028F1D13146284601F058FC7E
:107A20000128EBD0BDE8704001F09ABC582C002032
:107A300010B504460F484178082902D00D2906D117
:107A400003E0002181810D214170006908B1082007
:107A500010BDFEF7F3FF0028FAD1064B0C220C33C1
:107A60000549204600F092F80028F1D1BDE8104009
:107A700001F0EABB582C0020B431002030B58FB0A3
:107A800005461C216846FDF719FD00249DF80000FD
:107A9000019440F00E008DF80000039404940594C6
:107AA000069428798DF8360049F23100ADF834009B
:107AB0000C949DF83000142120F00F00401C20F0A1
:107AC000F00010308DF830009DF8310020F00F00EC
:107AD000401C20F0F00010308DF831009DF832008D
:107AE00020F00600801C20F0180040F001008DF806
:107AF000320007A8FDF7E2FC0DA807900CA808903B
:107B00008020ADF826400B94ADF82400ADF8280095
:107B10006888AB1D07AA6946A2DF0FB030BD000020
:107B200010B54FF440500D4C806886B0C0F5E4218C
:107B300000EB5100E06106206070207910B16846CA
:107B4000FEF746FFA369002B06D006B00022BDE871
:107B5000104011460220184706B010BD582C0020D6
:107B600010B54FF44050052281680748C16142704A
:107B70004269002000F0F0FA002803D0BDE8104070
:107B8000FEF78AB910BD0000582C002070B51646CB
:107B900042681D4694001A881319B34201DD0C2077
:107BA00070BD8368501822461946FDF76EFC288880
:107BB000204480B22880B04201D0092070BD00204E
:107BC00070BD00000149886170470000582C0020FA
:107BD00038B5072565F307000094FEF737FE38BD7A
:107BE0002DE9F04186B06846FEF7F2FE02980028C3
:107BF0002BD0059A00F580504FF48051904227D940
:107C0000A2F5805044081046029A00EB44068718FB
:107C10004FF440500D46806801EB440890420ED26C
:107C200004F5805004220146FFF77CFD00280CD1AA
:107C3000294604220846FFF775FD002805D1BA1B26
:107C400023464146304600F038F806B0BDE8F081E2
:107C5000029A0598FFF766FDF7E730B58FB002A8E6
:107C6000FEF7B6FE0498002817D0079A00F580505A
:107C70004FF48051904216D9A2F580504308104627
:107C80004FF44054049AA468049D024400EB43005E
:107C900001EB4301AC4202D20E200FB030BD121AEC
:107CA00000F00BF8F9E70AAB032083E8070004981B
:107CB00080080D900AA818DFEFE72DE9F0411C4677
:107CC00017460D460646FFF7FDFC002818D0B5F50F
:107CD000805F07D92346291B301B1A46FFF7EDFFAB
:107CE00000280DD13A4629463046FFF71BFD0028F3
:107CF00006D13A4629463046BDE8F041FFF7E2BCDE
:107D0000BDE8F0810148007870470000582C002041
:107D100070B5294C05466078012803D0042805D0A9
:107D2000082070BD0020E08004206070FEF786FE11
:107D30000028F6D1204B0C229B1D20492846FFF736
:107D400025FF0028EDD11D48816819B102684AB9A4
:107D500042683AB903689A0704D14268900701D192
:107D6000880701D0062070BD981808446061B2F5FC
:107D7000104F13D810494FF44054203143B1A2683A
:107D8000C2F5E222824209D30D4A0A600D4A0DE093
:107D9000A368C3F5E423B0EB530F01D90C2070BDE9
:107DA000094B0B600AB1094A00E0094A4A600968B8
:107DB0008847002070BD0000582C00202C31002086
:107DC000617B070039750700217B07001D750700DF
:107DD000D974070010B50D4CE088A0F57F41FF393C
:107DE00005D0132176DF50B1FEF756F807E0A078F2
:107DF00028B174DF08B1FEF74FF80020A070FEF73D
:107E000067FA08B1FEF748F8002010BD302C0020BA
:107E100010B501F097FC002010BD0000154910B509
:107E200000200871144801F0F5FE002820D1134805
:107E3000FFF7C8FEFDF792FB002819D100F0E4F926
:107E400001F0D8FDFDF734FFFFF7B4F90948183009
:107E5000017821F0720141F00101303121F08001FF
:107E600001700721417010218170FDF755FF00203E
:107E700010BD0000302C00202D6607003976070069
:107E800010B501F0CBFC0A4801F002FD09A001F099
:107E9000BBFC01F0FBFB01F0B7FC0D2001F0B2FCD4
:107EA0000A2001F0AFFC0848FFF78CFE002010BD4F
:107EB000999F07005269674466752F332E332E3120
:107EC00020283436292F0000E97507002DE9F041FC
:107ED000164604461D460F461A46983000F0CAFF63
:107EE000002808D104F110032A4631463846BDE87F
:107EF000F041FFF7D3B9BDE8F081F0B589B0044691
:107F0000102015460E46089008AA04A904F198000E
:107F100000F00AFF002824D108AA694604F14800AD
:107F200000F002FF00281CD104F11000FFF7B8F99F
:107F3000002816D100236A4604AF08980AE0E15CE5
:107F400012F803C081EA0C0117F803C081EA0C01A2
:107F5000F1545B1C834202D229689942EFD8002079
:107F60002B6009B0F0BD2DE9FF4F9FB08946DDE9D8
:107F70002CBA044607AD10260BAF31462846DDF873
:107F8000BC8002F041F9DDE921234946384600F082
:107F90001DFF00285DD132462946384600F06AFFB1
:107FA000002856D152465946384600F063FF002853
:107FB0004FD11020059005AA2146384600F0B4FEA6
:107FC000002846D11021284602F01EF901208DF824
:107FD0002B00DDE9212304F148004946074600F063
:107FE000F5FE002835D132462946384600F042FFDA
:107FF00000282ED1B8F1000006D0024638462E994E
:1080000000F038FF002824D104F110024FF4805111
:1080100000208DE80700DDE9212321464846FFF7CF
:108020008CF9002815D1DDE9212304F19800494697
:10803000044600F0CBFE00280BD11021284602F0A8
:10804000E3F802208DF82B0032462946204600F046
:1080500011FF23B0BDE8F08F0E4910B50A784C78B7
:108060000023A24212D0521CD2B20A70022A00D1BE
:108070000B70084A0B78183252F823200260886887
:10808000104420F07F408860012010BD0360002074
:1080900010BD0000382D002006488378022B03D144
:1080A000022901D103218170100001D0FDF7F4BE37
:1080B00070470000042C002070B5254C1E4686B089
:1080C000A3691546CBB322460229527802D004296F
:1080D00034D117E0092A04D0032A06D00A2A0DD089
:1080E0002CE032462946032006E00020E070012003
:1080F000207032462946052098471FE0324629461F
:108100000720F9E7052A19D14FF4405189688142C7
:1081100014D114220F4901A8FDF7B7F905980DF104
:10812000040C00909CE80F00FEF790FB06206070A6
:10813000324629460220A369DEE7FFE7280004D083
:1081400006B0BDE87040FDF7A7BE06B070BD0000E8
:10815000582C002040A2070008B5002300920A46D0
:108160000421FEF7C5FE08BD10B54FF4A271044806
:10817000FDF7A4F9034800210160416010BD000033
:10818000A46B0020702D0020024A42F8201000202D
:1081900070470000702D002008B5009313460A4672
:1081A0000221FEF7A5FE08BD70B5154D29780029FE
:1081B00024D069780D2201EB810105EB8104241D97
:1081C000022804D1D4E90301814213DB0022D4E95F
:1081D0000103617824780B4E56F82440A047687854
:1081E000401C00F00F0068702878401E10F0FF005F
:1081F000287003D0BDE87040FEF7A4BE70BD00003B
:10820000A46B0020702D002000B585B021A19DF841
:10821000100020F00F00401C20F0F00010308DF80E
:108220001000062204A87CDF08B1FDF735FE00200F
:10823000029003901021ADF80C00ADF808104FF437
:10824000C8701821ADF80E00ADF80A1002A87ADF48
:1082500008B1FDF721FE0DF1010001F043FA50B124
:108260009DF8000020F0FE00801C8DF8000068469C
:1082700001F05AFA09E0684601F056FA9DF800004C
:1082800020F0FE00801C8DF8000068466CDF05B011
:1082900000BD00005269674466750000FEB50446E3
:1082A00088781D46801EC3B2980701D0032125E0BF
:1082B00000200C2C12D2DFE804F01106080A11117C
:1082C0001111110C0E10022008E0012006E003201D
:1082D00004E0052002E0062000E007200090980856
:1082E000091DCDE9010168469047092809D050EAE7
:1082F000050106D0214600F094FC0146204601F01D
:1083000037F9FEBDFEB516460546DDE908240879B5
:10831000800701D0032210E000938868029008795A
:10832000800801906846904709280ED050EA040161
:108330000BD0314600F091FC024631462846FEF74C
:10834000AFF8002801D0FDF7A7FDFEBDF0B5002273
:1083500013464FF6FF740F292DD805883DBB077BC8
:108360004E1E0125B540AF4225DB20E0057B9DB9BF
:10837000068806B3458800F10D0705F1010C1FFAC8
:108380008CFCA0F802C0ED5DC572B44502D1002599
:108390004580058080250573C67AEDB204EA420265
:1083A0002E4201D042F001026D0805735B1C8B4226
:1083B000DCDB1046F0BD2046F0BD00000148007A2D
:1083C00070470000302C00202DE9F04F89B01D4689
:1083D0001746040017D0B1B1ADB14FF00009C5F890
:1083E0000090CDE904174FF0020B4FF6FF784FF0E5
:1083F000050A0695A67A072E76D2DFE806F0091C54
:108400003945546070004FF0FF3009B0BDE8F08F7F
:1084100001212046FFF79AFF404501D1484601E07F
:1084200020BB2BE0A072C0B2B042E3D12868B842B2
:108430005DD10120E9E704A802900698059900683B
:10844000884213D208212046FFF780FF40450DD017
:10845000C2B2208904F1D501C0F30903401C208178
:10846000CA542046029901F045F8D7E70120D9E720
:1084700059462046FFF76AFF404501D15846D1E7EB
:1084800008EA0021E18005E008212046FFF75EFFB1
:10849000404501D10320C5E7E1880143491CE18043
:1084A000A4F8049012E049462046FFF74FFF4045EC
:1084B00001D10420B6E708EA0021A18006E00821E6
:1084C0002046FFF743FF0146404501D15046A9E74A
:1084D000A0880843401CA0800620A3E704E004A96C
:1084E000204601F00FFC9DE76FF001008DE70020B2
:1084F0008BE710B504464FF499610D30FCF7DEFFB1
:108500000020A072208060802073E072A080E08054
:10851000208110BD70B51D461346040019D0C1B1AD
:10852000BDB12088D0F1C80216D09A4200D31A46B5
:10853000164604F10D0210443246FCF7A6FF2088CF
:10854000304420802E602088D0F1C80006D0002062
:1085500070BD4FF0FF3070BD00202860012070BD5D
:1085600008B5002000906B460448FFF72DFF002857
:1085700002DA4FF0FF3008BD009808BD48630020C4
:108580000A2801D2303000E05730C0B270470000F6
:10859000F8B51C4C2078002832D0E068002658B18D
:1085A0000025607800282BD1684648DF052805D0D3
:1085B00030B1FDF771FC0AE00125F2E7012606E083
:1085C000009800F00DFB216909B1009888479DB91A
:1085D0006078002814D16088ADF800006946A06872
:1085E00061DF052803D020B1FDF756FC04E001252A
:1085F00002E0D4E902018847002ED2D0002DE6D057
:10860000F8BD0000582D0020054940880A88904296
:1086100004D34988884201D8012070470020704760
:10862000CC2C002006490120086006480168C1F3EF
:1086300000410029FAD104490020887070470000E9
:108640000C00004018040040A06800202DE9F04311
:10865000264CA4F110092278D9F8048099F8035027
:10866000404694F801C0D9F8086031E002EB4203BB
:108670006168521C01EBC301A378D2B2934200D1CE
:1086800000220B78022B02D0032B21D11DE00346E0
:108690004F68194603E0B94203D00B46C969B9B126
:1086A000F9E7A9B18B4205D1C06918B9104E01256F
:1086B000B56000260F68C969D96149B10B683B44B0
:1086C0000B6005E00174C06900E000210028F9D1C9
:1086D0009445CBD1C9E9010689F80350404502D041
:1086E0000120BDE8F0830020FBE70000482D0020BA
:1086F000001001402DE9F0412A4F0446002607F101
:108700001005D7F804803EE002D02046E4691DE061
:108710002878696800EB4002401CC0B201EBC2013E
:108720002870AA78904200D12E700A784868012AF1
:108730002BD1027C4ABB8A684260CA6882600A699F
:10874000C26049698161F97801B146604368BA68DD
:10875000DFF854C0991A21F07F41614502D2826846
:10876000114406E0D11A826821F07F418A4202D981
:10877000511A016000E006604660012186600174C4
:10878000C66101F073FB002CBED12878697888425D
:10879000BED17968414502D00120BDE8F0810020BA
:1087A000FBE70000382D0020FFFF7F0010B50C46CE
:1087B000014610220848FCF768FE0748103843DFDE
:1087C00008B1012010BD0449102210312046FCF7E9
:1087D0005CFE002010BD0000882D00200146102204
:1087E0000148FCF752BE0000782D002008B568460D
:1087F00000F036FF08B101F0EDFB394F00252E46A1
:108800003868C4B2A4F1C0000F2808D8FDF770FF83
:1088100028B1386800F00F003860FEF7ADF8B12CD1
:1088200002D0B22C02D003E0012501E001252E4642
:10883000642000F0F0F800232A4A05211846FDF7CD
:10884000EBFB08B1FDF728FBFEF78AF8FDF78EFF7A
:1088500078B1FDF79AFF08B1FDF71EFB0120FDF787
:1088600003FF01F039F8FDF7ABFF38B1FDF714FB5A
:1088700004E00120FDF7F8FE01F02EF8FF210020B2
:108880003BDF08B1FDF708FB4FF480344FF4F028CC
:108890004FF4A02715B9FDF72BFF08B94FF470145A
:1088A000304600F067FF3A4641462046FDF79EFFFE
:1088B000044600F047FF24B1FDF71AFF08B1FDF7A9
:1088C0003DFF01F009FA0A2000F0A5F8FFF71AFAB7
:1088D00008B101F07FFB0A2000F09DF8FCF752FF81
:1088E0001C050040C068002070B5144682880E4602
:1088F00005462088111D0144921C994201D8FE2A88
:1089000001D90C2070BD521C32542088FF21401C1C
:1089100080B2208031542088401C80B22080811990
:10892000288801F051FB2188084480B22080AA8861
:1089300042B1A96841B13044FCF7A7FD2088A9885D
:1089400008442080002070BD072070BDF8B50E4699
:10895000017814460546012901D1687830B1208894
:10896000821C9A422DD8012902D006E00720F8BDCA
:1089700069780144891C994223D8181A801E87B24D
:10898000ADF800702188B01C084469467DDF0028DE
:10899000EDD12878022805D1BDF80010B94201D8E0
:1089A00009210AE00821012805D16878B84202D8D7
:1089B000ADF8000001E0ADF80070BDF80000FE2841
:1089C00001D90C20F8BD2288401CB0542088401CDE
:1089D00080B2208031542088401C2080BDF80010D7
:1089E000084420800020F8BD4FF0E0224FF0FF3116
:1089F000C2F88011FCF70EBD00F18040006800282D
:108A000000D00120704708B500F1804000210160CE
:108A10000068009008BD4FF47A71484300F046B8F2
:108A200000283ED01F49204A096800BF00BF00BF90
:108A300000BF00BF00BF00BF00BF91422FD000BFEA
:108A400000BF00BF00BF00BF00BF00BF00BF00BF2E
:108A500000BF00BF00BF00BF00BF00BF00BF00BF1E
:108A600000BF00BF00BF00BF00BF00BF00BF00BF0E
:108A700000BF00BF00BF00BF00BF00BF00BF00BFFE
:108A800000BF00BF00BF00BF00BF00BF00BF00BFEE
:108A900000BF00BF00BF00BF00BF00BF00BF401E3F
:108AA000C3D17047002C00200024F40000283ED0E1
:108AB0001F49204A096800BF00BF00BF00BF00BFB8
:108AC00000BF00BF00BF91422FD000BF00BF00BF5A
:108AD00000BF00BF00BF00BF00BF00BF00BF00BF9E
:108AE00000BF00BF00BF00BF00BF00BF00BF00BF8E
:108AF00000BF00BF00BF00BF00BF00BF00BF00BF7E
:108B000000BF00BF00BF00BF00BF00BF00BF00BF6D
:108B100000BF00BF00BF00BF00BF00BF00BF00BF5D
:108B200000BF00BF00BF00BF00BF401EC3D17047E1
:108B3000002C00200024F40010B50B4C207808B164
:108B4000852010BD0020A06060602061E0600621EB
:108B500000F04BF801F0BAF8012108B903480160B0
:108B60002170002010BD0000A06800201805004002
:108B700008B500208DF800006846FDF7C9FA0648E0
:108B8000C168491EC160C06808B9FFF74BFD9DF878
:108B90000000FDF7E1FA08BDA068002010B506212D
:108BA000002000F022F8BDE81040FFF7E1BF000010
:108BB00038B500208DF800006846FDF7A9FA074C8B
:108BC000207808B9FFF7B8FFE068401CE06001209A
:108BD000A0709DF80000FDF7BFFA38BDA068002026
:108BE000002801D1FEF770B970474907090E002827
:108BF00006DA00F00F0202F1E02282F8141D03E011
:108C000000F1E02282F8001400F01F0201219140DF
:108C10004009800000F1E020C0F88012C0F8001187
:108C2000704708280BD003DC38B1062811D108E0C2
:108C30000B280AD00C280CD105E001207047022037
:108C400070470320704704207047042903D00A2985
:108C500001D0062070470520704708280ED005DC9B
:108C600050B1042816D0062804D109E00B280BD0F7
:108C70000C2807D009207047012070470220704758
:108C80000320704704207047042901D00A2903D12A
:108C9000052070470B2901D0062070470820704737
:108CA00030B541EA4201DDE9034541EA8301800034
:108CB00041EA042100F1A04041EA0541C0F8001753
:108CC00030BD0022800000F1A04042EA8101C0F8DE
:108CD000001770471CB500220B4600921146019206
:108CE000FFF7DEFF1CBD1CB5002100910B460122E1
:108CF00001911146FFF7D4FF1CBD00000949002077
:108D00000A684FF4405189688A4209D9511A080B00
:108D100000030905090D01D000F5805000F58050D1
:108D2000704700002C3100202DE9F0410E464168CB
:108D300015460446112906D2A268102A03DC04F164
:108D40000C00914203DD4FF01000BDE8F08113D01C
:108D500001F1010262604FF080030B544FF00002FA
:108D600004E000BF01F1010363600A54D4E9011378
:108D70009942F7DB012200E00022002104EB0213FC
:108D80000DE0621803EB010C177F9CF82CC0491C06
:108D900087EA0C0792F80CC087EA0C071773A268E1
:108DA0008A42EED80146FFF701FD0028CDD103E04D
:108DB0002118097B3154401CA168814202D92968DD
:108DC0008142F5D828600020BFE700002DE9F04778
:108DD00004468A464FF0870910251046FFF7FEFC2F
:108DE00004F12C001021064601F00EFA3146084627
:108DF000FFF7DCFC002834D1B5F1010604EB0012CA
:108E000092F82C10CF0900210BE05318491C93F85D
:108E10002CC093F82D804FEA4C0C4CEAD81C83F8F8
:108E20002CC0B142F1DB0FB14B4600E000235119D9
:108E300011F82B2F83EA42020A70A0B1401C0228CD
:108E4000DCDB0020C4F800A0C4E90105102104F116
:108E50001C0001F0D9F9102104F10C0001F0D4F943
:108E60000020BDE8F0872C340FCC84E80F000120EF
:108E70003C3CC3E72DE9F04188464168154604466D
:108E8000112906D2A068102803DC04F10C068142E7
:108E900028DD1020BDE8F081D4E90101884212D11B
:108EA000002005E021180A7B0B7F5A400A73401C02
:108EB000A1688142F6D804F11C013046FFF776FC28
:108EC0000028E7D16060A1680F1AAF4200D92F4691
:108ED00030443A464146FCF7D8FA6068ED1B384406
:108EE000B8446060002DD7D10020D3E770B5214C85
:108EF00005460188E08852292AD00BDC102918D0B9
:108F000011291DD013291AD1002304F11802194682
:108F10007FDF08E0552920D0562910D1A9790029F2
:108F20000DD1132176DF002809D0BDE87040FCF791
:108F3000B3BFFDF789FDA888E0800020A07070BD58
:108F4000207808B9FCF7E8FE4FF6FF70E08070BDAE
:108F500000231A461946A9DFE5E7E888C01E80B25B
:108F60002081802800D380202081A8888321ADDF44
:108F7000D9E70000302C00202DE9F0418AB002270B
:108F80004FF0010804468DF80C708DF812800889A6
:108F9000ADF814004889ADF8160001F10C00002668
:108FA000CDE90606ADF81C7009A8ADF81E60089062
:108FB0000D46618A208807AAA5DF18B1616AC1B190
:108FC000884716E009A8FDF74AFB90B1ADF810609C
:108FD000208803A9A8DF002812D1297B0E294DD2B1
:108FE000DFE801F04C141B1E2022244C38112628E7
:108FF0002A2D40F2FD10ADF81000208803A9A8DF4B
:109000000AB0BDE8F0818DF8006001E08DF80080C5
:10901000226A6946204690471AE08DF80070F7E70B
:10902000032026E0042024E0052022E0062020E0A2
:109030000B201EE00C201CE003220C2103E0FFF7B4
:10904000BDF902460D212046FDF72AFA0028D7D1A6
:109050000020D5E76889032805D20322082120468D
:10906000FDF71EFACCE7B5F80D00ADF8040018B115
:1090700007208DF80000CBE70820FAE70322EEE78F
:1090800070B504460B78012221480D2B28D2DFE869
:1090900003F02426282C071720363B31272A2E00E0
:1090A000FEF712FC0421FFF7D8FD024604212046FA
:1090B000FDF7F6F9002813D0BDE87040FCF7ECBED0
:1090C000FEF788FE08B1FCF7E7FEFEF7EBFB002891
:1090D00006D0BDE87040FEF77BBD062108E00271B6
:1090E00070BD022104E0032102E0042100E005211B
:1090F000017170BD2046BDE8704000F00BB84270B1
:1091000089884181818170BD00214170418170BD9C
:10911000302C00207CB5174A012314790022072C3B
:1091200012D2DFE804F011040A1222181C00124BBC
:10913000CDE900320223012204E0104ACDE90023E8
:1091400001230222FFF7DEF87CBD0D4ACDE90023A2
:1091500006230A22F6E7BDE87C4000F041B8094B3F
:10916000CDE9003205230922ECE7BDE87C40FCF79D
:109170001DBE0000302C0020117D0700A1790700E2
:10918000317A0700DD76070038B520B18178891E75
:10919000C9B2001D01E000210846FEF727FC0F4C74
:1091A000022812D003280AD0042810D00098C1B297
:1091B0000B20FFF736FD01460B2000F0D9F900F037
:1091C000A1F8A1680844A06038BD0721F4E7012197
:1091D0000B2000F0CDF901202070F0E7142C0020C6
:1091E00070B5054619B10A798868114601E0002179
:1091F0000846FEF7FBFB134C02280ED0032806D0CE
:10920000042814D006220B212846FDF749F900F066
:1092100079F821690844206170BD07220B21284696
:10922000FDF73EF90028F2D0FCF736FEEFE7012209
:109230000B212846FDF734F908B1FCF72DFE01207B
:10924000E070E4E7302C0020F0B58DB06846FDF703
:10925000BFFB9DF80000012802D008200DB0F0BD32
:109260004FF440560199B068FEF700F81449896838
:10927000814201D00B20F1E7124D114C0127883CAF
:109280002F71206808B9606808B10620E6E70A2057
:109290006870182106A8FCF711F9EF700A480990C8
:1092A0004FF480500A90A0680890B0680790019829
:1092B000069006480B9006A800F026F80020CDE79F
:1092C000B4310020582C0020A8420020719D0700D6
:1092D00008B50A4601466B460848FFF71BF90849DE
:1092E000009B01280A681A440A6003D0002802DAA9
:1092F0004FF0FF3008BD002008BD0000486300208B
:10930000BC2C0020FDF778BD38B504004FF0FF30CD
:109310001CD0E168002919D06168002916D00C48DA
:10932000FFF7E7F820690090D4E90010D4E9023291
:10933000FDF768FD30210748FCF7C0F805480649ED
:1093400041606169816005490020086038BD000006
:10935000486300202068002061850700BC2C0020A5
:1093600010B50A48FDF7DAFB012807D0411C07D0E9
:10937000022808D00028F4D1042010BD022010BD1E
:109380004FF0FF3010BD032010BD0000206800200A
:1093900070B50D00044602D10020FCF77DFD14B924
:1093A0000020FCF779FD2878207069886170090A2F
:1093B000A170A988E170090A2171E8886071000A2A
:1093C000A07170BD10B58178022942D3C4780D2CEC
:1093D0003FD2DFE804F03E070A1018202C3E3E364C
:1093E0000D14300000231B4A2DE001231A4A2AE005
:1093F00001231A4A27E0BDE81040FCF7ABBCBDE8EA
:109400001040FFF7C1BEFEF75FFA0421FFF709FC29
:109410000146042011E0FEF745FA04460521FFF756
:1094200000FC0146052000F0A3F8002C11D0BDE897
:109430001040FEF7CDBB03210C20BDE8104000F02A
:1094400097B8074A012301462046BDE81040FEF7C1
:1094500025BF10BD117D0700A1790700317A0700F3
:10946000DD7607002DE9F041204C002501276570CD
:109470001F4E32E0AA2806D0E17859B1AB2807D0B8
:10948000AC2804D004E0A7706560E57025E0AA2050
:10949000E57001E0AB2808D0A178F1B1012906D030
:1094A000022908D0032918D109E0E77015E0B0704F
:1094B0000220A07011E0F0700320A07004E0616849
:1094C0007218491C107161606068B178801C81421B
:1094D00003DCA5700648FFF775FF04480C3000F068
:1094E00051F8411CC6D1BDE8F0810000142C0020C9
:1094F000E02D002010B50C6889680868431C0B60DB
:10950000225410BD2DE9F04107460E460C460020BE
:1095100008E0395CAA2901D0AB2901D1641CA4B2AE
:10952000401CC0B2B042F4D3A41CFF2C1CD8AA200B
:1095300000F068F9E0B200F065F9102000F062F97F
:1095400000250FE0785DAA2801D0AB2806D1AB201A
:1095500000F058F9785DAA2808D0AB2000F052F945
:109560006D1CEDB2B542EDD3BDE8F081AC20F5E75E
:1095700008B58DF800008DF8011002216846FFF74C
:10958000C1FF08BD00B572B6FCF7A4FA62B600BD13
:109590002DE9F0410446FBF791FF062223A1204666
:1095A000FBF773FF4FF08050D0F81011802930D0B6
:1095B000D0F81011B1F5807F2DD0D0F81011B1F591
:1095C000007F2AD01BA500BFD0F80C11102926D08F
:1095D000D0F80C11202924D0D0F80C01402822D03A
:1095E00015A72846FBF775FFC6B2A01D32462946CF
:1095F000FBF74BFFB61DF5B23846FBF76AFFC6B264
:10960000601932463946FBF740FFA819C0B2BDE8E1
:10961000F0810AA5D8E70BA5D6E70CA5D4E70DA7DE
:10962000DFE70DA7DDE70DA7DBE700006E5246354B
:10963000322F00003F3F3F003F3F00003132382FC4
:10964000000000003235362F000000003531322F87
:1096500000000000313600003332000036340000D4
:1096600010B504460848102200212060FCF766FB74
:1096700028B91022FF212068FCF760FB08B1002008
:1096800010BD012010BD0000E0FF07002DE9FC41E6
:109690006D46681C00F026F8684600F045F8A846BC
:1096A0000F4D0024C4F1050101EB0807787800098B
:1096B000FEF766FF04EB4406A855787800F00F002B
:1096C000FEF75EFF7119052C487007D03A20641C24
:1096D0008870062CE6DB0248BDE8FC810020F6E736
:1096E0005068002070B506460D4801250446062244
:1096F0000021FCF723FB28B90622FF212046FCF7B6
:109700001DFB08B1074C002520683060A088B080A0
:109710001DB9707940F0C0007071284670BD00001E
:1097200080100010A400001000214218491C53783A
:10973000C9B2DB4353700629F7D3817941F0C001E8
:109740008171704770B50A4C207800280FD060787E
:109750000028FCD104204FF0E0210025C1F8800151
:109760000220FBF7A1FF00F0A3F96560257070BD32
:10977000C02C00203EB51E49012200240A704C7006
:109780004C6048B901210820FFF79BFA194800688E
:10979000000A10F0010F26D008208DF80000FF20ED
:1097A0008DF801008DF803008DF802001248029038
:1097B0008DF80440684600F0B1F910480421C0F863
:1097C00004134115C0F804130220FBF76DFF0621B6
:1097D0000220FBF7B6FF0220FBF787FF03210620DC
:1097E000FFF76FFA3EBD0649022008603EBD00004B
:1097F000C02C00201005005000E0D70100200040E0
:109800002007005000F0DAB910B5044602E0641CED
:1098100000F0D4F920780028F9D110BD3EB5194DDB
:109820000024287830B168780028FCD16C602C7056
:10983000FFF788FF012028706C706C6008208DF89D
:10984000000006208DF80100FF208DF803008DF840
:1098500002000D4802908DF80440684600F05EF961
:109860000A480421C0F804134115C0F8041302206B
:10987000FBF71AFF02210846FBF763FF0220FBF704
:1098800034FF3EBDC02C002000E0D7010020004086
:109890000149486070470000C02C002070B50126C7
:1098A00070044FF0E0210025C1F88001084C401001
:1098B000C4F84803C4F8080366602F20FFF7B0F827
:1098C000A660044C2F20A560FFF7AAF8A57070BD14
:1098D00000100140382D002010B5064A14210C203C
:1098E000FCF756FB002803D0BDE81040FCF7D4BAC3
:1098F00010BD0000F469002010B50446FCF7D0F854
:1099000040B1002C09DA04F00F0000F1E02090F8DB
:10991000140D06E042F2010010BD04F1E02090F8C1
:1099200000044109082914D299B1012911D0042950
:109930000FD005290DD00B480122816861B1610962
:1099400050F8213004F01F04A240134340F82130A6
:1099500005E042F2020010BD2046FBF7DCFE0020CD
:1099600010BD0000B46800202DE9F0410746806A70
:1099700014468846C8B3002531E000BFB96A05EB3C
:10998000450001EB8006B088801CFE2802D90C201F
:10999000BDE8F0812288401C08F8020020881622C9
:1099A000401C80B2208008F800202088401C80B233
:1099B000208000EB0801308800F006FB2188084475
:1099C00080B22080B28842B1B16871B14044FBF7E7
:1099D0005CFD2088B188084420806D1CEDB297F8AA
:1099E0002C00A842CAD80020D2E7FFE70720CFE723
:1099F000FCF752BA00B597B020481090204811905B
:109A000010A92048FCF79AFC08B1FCF745FA402160
:109A10006846FBF753FD1CA16846FCF717FE1CA126
:109A200002A8FCF713FE1FA108A8FCF70FFEFFF722
:109A30002DFE014604A8FCF709FE142112A8FFF729
:109A4000A7FD12A906A8FCF701FE9DF83C0020F036
:109A50000F00401C20F0F00010308DF83C009DF805
:109A60003D0020F0FF008DF83D006846FCF748FD02
:109A7000002801D0FCF710FA17B000BD8190070054
:109A8000F1990700F430002052696761646F0000AB
:109A900052696761646F205365637572652044463F
:109AA00055000000332E332E312028343629000093
:109AB00070B516480024164904700120C86048603B
:109AC00014480460601EC1F8080312490C31086094
:109AD0001049143108600F49083108600D491031F0
:109AE00008600C486C3004600B4D2878202802D2A6
:109AF0000321FFF7EFF86878202802D20321FFF74F
:109B0000E9F82C606C60AC6070BD00006C2D00202A
:109B10000020004000250040986B002070B5040034
:109B200042D0FFF7C5FF6078202801D21F490860A6
:109B30001E4E20780836202804D230602078032179
:109B4000FFF7C8F82079012588B1A078FFF7CBF896
:109B5000E0780021FFF7BEF81449E078091D08609D
:109B60001249A078091F086010486030056010484D
:109B70004FF0FF31C0F808130C4AA1681832116089
:109B80000A4A04210C3A1160C560456031682029F9
:109B900003D205600021C0F80811064894E80E00C1
:109BA00080E80E000448057070BD00000C250040E0
:109BB00000200040986B00206C2D002070B50646F8
:109BC0001048007800281CD00F480168202918D2BE
:109BD0000E4C0125A5600068FFF785F80A48103093
:109BE000C0F80060D4F81C010128FBD10020C4F8A3
:109BF0001C01E560064803214078BDE87040FFF78E
:109C000069B870BD6C2D00200C250040002000407C
:109C1000986B002018B10349C860002070470E20DF
:109C200070470000582D00201CB503490191009198
:109C3000694660DF1CBD0000002C002070B50E4698
:109C4000054614461C211046FBF738FC01202080F5
:109C50000021A16120752672657205B1A0720020F5
:109C600070BDFCF707B900002DE9F041074619B1B6
:109C700088074FF0000402D00720BDE8F081114DA5
:109C80004FF0E0200126A9606A806B60D0F80001E7
:109C900010F0010F03D034460020FBF71BFD0A49EA
:109CA000384610DF070005D014B10020FBF733FD64
:109CB0003846E2E72E70FEF77BFFBDE8F041162044
:109CC000FFF71ABE582D0020639C0700014800785A
:109CD00070470000582D002010B511DF040003D19B
:109CE00002490870FEF75AFF204610BD582D00208B
:109CF00018B103490861002070470E20704700002A
:109D0000582D00202DE9F05F8A460446DAE901105B
:109D100000680D1A28D0A0880027A84200D2054666
:109D200004F1D50640F2FF38B4F806B014E02189FA
:109D3000A1EB0B0000EA08005146305C8146024668
:109D40002046FFF7D7FB218901EA080106F80190B8
:109D50002089401C20817F1CAF42E8D3A088401B93
:109D60000004000CA08000D00620BDE8F09F000099
:109D700070B5084C0D462B462269E1691144024634
:109D80000020FEF709FA002803D120692844206149
:109D9000002070BD582C0020FEF706BA70B50C00EC
:109DA000054602D10020FCF777F815B90020FCF732
:109DB00073F8207828702088000A68702068000CEA
:109DC000A8702068000EE87020792871207A6871E8
:109DD0002089000AA871A068000CE87170BD00001D
:109DE0002DE9F84F204C00256846D4E901B6FEF76E
:109DF00033F98046FEF72AFC0746A946B8F1000F62
:109E000025D00023009ACC46606819E00768014617
:109E1000974202D9BA1A026014E0C1F800C0D1F822
:109E20000C80D21BC8693B448A46B8F1000F07D0AA
:109E3000F71827F07F47C1E90178CAF81C500D4692
:109E40000028E3D160602846FEF754FC04E0284671
:109E5000FEF750FC00B917B15846FDF7A9F884F891
:109E60000390BDE8F88F0000382D00200D4B10B591
:109E7000596831B102680C68A24204D8A21A0A607B
:109E8000C161586010BD0B4603E00B46C969121B47
:109E900021B10C689442F8D3A41A0C600260C1612D
:109EA000D86110BD382D00207CB5064600240D4633
:109EB0008DF800406846FCF72BF901A800F0D8F8AF
:109EC00070B10570094946609DF8040048709DF81E
:109ED0000000FCF741F91420FBF728FC20467CBD6C
:109EE00004249DF80000FCF737F9F7E7482D00201F
:109EF0002DE9F0411D4D6C68002C35D01C48002721
:109F00000068A968B846401A20F07F462068B04231
:109F100015D82246361A0744E469107C68B182F8E5
:109F20001080EB6833B1D2E90501984728B1FBF7FF
:109F3000B3FF02E0D2E905108847002CE6D129786A
:109F40006878814206D1401CC0B26870022801D1F5
:109F500085F8018005486978183040F82170BDE81F
:109F6000F0411420FBF7E2BBBDE8F081382D002062
:109F70000415014030B5002306E000BF10F8014B86
:109F800011F8015B6C402343521EF7D20BB1012044
:109F900030BD002030BD000010B501460848FBF779
:109FA000B0FD07480C384178002908D101214170E3
:109FB0000021BDE81040034A0846FBF779BF10BDF9
:109FC000202C0020659407000870000A48700220C9
:109FD0007047000010B54FF01020D0F80812C943A8
:109FE00011F0FF0F0ED1084A012111600021C0F8C5
:109FF0000812064801680029FCD00A20FEF70BFD74
:10A00000FBF7C0FB10BD000004E5014000E4014087
:10A0100038B515494888A0F57F42FF3A23D04A78E1
:10A02000124C521CD2B24A70237B93420AD3091DB0
:10A0300075DF002817D0A169002914D001B0BDE850
:10A040003040084700254D70217C29B13B2176DF47
:10A0500010B1A16901B188476169002903D08DF869
:10A0600000506846884738BDC82C0020846800200E
:10A070000A4A10B553789478591CC9B28C4200D161
:10A08000002114788C4201D1002010BD017050686D
:10A0900003EB430100EBC10010BD0000482D002080
:10A0A0002DE9FC411646DDE90854CDE900541F4670
:10A0B0008046022200F00CF8002807D1CDE90054B8
:10A0C0003B4610223146404600F002F8BDE8FC81D4
:10A0D0002DE9FC5F0026DDE90C4B994692468E4641
:10A0E00080462788354630E0D8F80400002200EB8F
:10A0F000850069460068019001A865DF002830D11D
:10A100009DF8000050451FD10EB1002100E0022152
:10A11000228808441118594522D846B9521C90B2D9
:10A12000208009F800E02088401C2080012621883A
:10A1300001A801EB0902694665DF002811D12088DA
:10A140009DF80010084420806D1CB8F80000A8425B
:10A15000CADC56B12088C01B401E80B2FF2802D93D
:10A160000C20BDE8FC9F09F807000020F9E700007B
:10A1700030B587B004A8FFF773FA70B3184A0C2102
:10A18000102402F10C00CDE90221CDE900042346A0
:10A1900000215C30049AFDF7E6FED8B9104A30235E
:10A1A0002C321546114602F13C00FDF78FFE88B9AE
:10A1B0000B4905AA1C3101F14C000594FDF79DFEE9
:10A1C00040B90598102805D1102229460498FFF7B8
:10A1D000D1FE10B10B2007B030BDFFE70020FAE739
:10A1E0005831002010B5074C3EDF08B1FBF754FE94
:10A1F000FBF7AEFEA078032803D0042801D0052881
:10A20000F2D110BD042C0020002201E000F8012B47
:10A21000491EFBD270470000A82D0020020000005C
:10A22000000000000000000000000000020000002C
:10A23000000000000000000000000000000000001E
:10A24000040000000000000000000000000000000A
:10A25000000000000202FBC2FCA8CC93304C561751
:10A260000000C841646800200010020002000000E5
:10A270000000000000000000000000009CA2070099
:10A28000002C00207801000020550700B8A207002C
:10A29000782D0020705F0000905A0700550090D084
:10A2A000030516CA9DC6A43202F5E12E002004FF64
:08A2B000FFFF14014200000051
:020000041000EA
:041014000050070081
:020000041000EA
:0410180000D00700FD
:04000005000754019B
:00000001FF
