:020000040007F3
:10500000506E0020395507004155070043550700F1
:1050100045550700475507004955070000000000A7
:105020000000000000000000000000004B550700D9
:105030004D550700000000004F550700515507006F
:105040005355070053550700855A0700535507006D
:105050005355070053550700535507005355070094
:105060005355070053550700535507005355070084
:105070005355070053550700535507005355070074
:10508000535507004958070053550700535507006B
:105090006D58070053550700715807005355070016
:1050A0005355070053550700535507005355070044
:1050B0005355070053550700000000000000000092
:1050C0005355070053550700535507005355070024
:1050D00053550700535507005355070000000000C3
:1050E00000000000000000000000000000000000C0
:1050F00000000000000000000000000000000000B0
:10510000000000000000000000000000000000009F
:10511000000000000000000000000000000000008F
:10540000DFF80CD000F0F2F800480047D58807001C
:10541000506E0020401E00BF00BF00BF00BF00BF95
:1054200000BF00BF00BF00BF00BF00BF00BF00BF84
:1054300000BF00BF00BF00BF00BF00BF00BF00BF74
:1054400000BF00BF00BF00BF00BF00BF00BF00BF64
:1054500000BF00BF00BF00BF00BF00BF00BF00BF54
:1054600000BF00BF00BF00BF00BF00BF00BF00BF44
:1054700000BF00BF00BF00BF00BF00BF00BF00BF34
:1054800000BF00BF00BFC5D170470000056885F3AD
:1054900008884068FF2464B2EFF30585002D01D130
:1054A000A64600472546064621273FBAF0B4002409
:1054B000002500260027F0B4F92040B20047000084
:1054C000401E00BF00BF00BF00BF00BF00BF00BF45
:1054D00000BF00BF00BF00BF00BF00BF00BF00BFD4
:1054E00000BF00BF00BF00BF00BF00BF00BF00BFC4
:1054F00000BF00BF00BF00BF00BF00BF00BF00BFB4
:1055000000BF00BF00BF00BF00BF00BF00BF00BFA3
:1055100000BF00BF00BF00BF00BF00BF00BF00BF93
:1055200000BF00BF00BF00BF00BF00BF00BF00BF83
:1055300000BFC5D1704700000648804706480047B5
:10554000FEE7FEE7FEE7FEE7FEE7FEE7FEE7FEE733
:10555000FEE7FEE79558070001540700202A04DB08
:10556000203A00FA02F1002070479140C2F1200376
:1055700020FA03F319439040704740EA01039B0768
:1055800003D009E008C9121F08C0042AFAD203E0B8
:1055900011F8013B00F8013B521EF9D27047D2B21C
:1055A00001E000F8012B491EFBD270470022F6E70C
:1055B00010B513460A4604461946FFF7F0FF204689
:1055C00010BD421C10F8011B0029FBD1801A704746
:1055D00030B504460020034600E05B1C934203D232
:1055E000E05CCD5C401BF8D030BD0000064C074DA0
:1055F00006E0E06840F0010394E8070098471034A3
:10560000AC42F6D3FFF700FFC8A00700E8A00700F0
:1056100030B58C1810F8012B12F00F0301D110F8DF
:10562000013B120906D110F8012B03E010F8015BD1
:1056300001F8015B5B1EF9D101E001F8013B521E4C
:10564000FBD1A142E6D3002030BD00000748002175
:10565000074A017002F5907002600822C0E901213A
:10566000C160016141618161084670477C2C002066
:10567000A0470020F0B5194A0646916861B3556904
:105680001020691A01F00701D2F800700B460124BE
:1056900001EBC10C07EB8C0CB44506D1956904FAFB
:1056A00001F675400020956104E0491C01F00701F6
:1056B0008D42EDD1491C956901F0070104FA03F30D
:1056C0001D420AD19368002B07D05B1E936053687C
:1056D0005B1C53600B46F1E70420F0BDC04800207E
:1056E000064920230A7C0968521E02F0070202EBD9
:1056F000C20203EB8202885000207047C04800209D
:1057000070B5D0B1C9B10F4AD368C3B15B1ED360C5
:1057100093685B1C93605369156803EBC30405EB46
:1057200084060660202000EB84005B1C285808607B
:1057300003F007005061002070BD0E2070BD0420F2
:1057400070BD0000C048002010B5E9B100220A6019
:10575000104A5368E3B1202818D85B1E5360D06804
:10576000401CD0601069136800EBC00403EB840395
:105770000B60012383409169401C194300F007002E
:1057800091611061002010BD0E2010BD0C2010BDD5
:10579000042010BDC048002000F01F0201219140EC
:1057A0004009800000F1E020C0F88012704700F04E
:1057B0001F02012191404009800000F1E020C0F863
:1057C0008012704700F01F020121914040098000C3
:1057D00000F1E020C0F80011704700F01F02012125
:1057E00091404009800000F1E020C0F800117047AE
:1057F00000F01F02012191404009800000F1E020EB
:10580000C0F8001270474907090E002806DA00F0B8
:105810000F0000F1E02080F8141D704700F1E02037
:1058200080F8001470474907090E002806DA00F0D6
:105830000F0000F1E02080F8141D704700F1E02017
:1058400080F800147047000007480021C0F840119C
:10585000C0F84411C0F84811C0F84C11C0F800114C
:10586000C0F8041104F070BA0010014004F008BA46
:10587000074810B5406830B18047002807D0BDE820
:10588000104000F05DBBBDE8104002F0C3BE10BD8B
:10589000582D002070B571480023021D0178101D9D
:1058A0000125062907D11478240704D10478C4F30C
:1058B0000314032C02D0062904D00FE0694E684C73
:1058C00074670EE01478240708D10478C4F3031435
:1058D000032C06D0042C04D0052C02D0062909D0B4
:1058E00010E04FF08054D4F844425F4EC4F3423489
:1058F000346002E01478240704D10478C4F303145C
:10590000032C02D0062906D011E0584C266826F058
:10591000807626600EE01478240708D10478C4F35A
:105920000314032C06D0042C04D0052C02D0062925
:105930000AD011E04FF08044C4F80C31C4F81031A3
:10594000494C241F236002E01478240704D1047812
:10595000C4F30314032C02D0062905D00CE0424AFC
:105960000321643211600AE01478240704D104781A
:10597000C4F30314032C02D006290DD06AE03C4A7C
:10598000052111603A4978310D60394908310B60C1
:105990003F21121D116002E0117809075AD10078E9
:1059A000C0F30310052855D1324800683249086019
:1059B0003048001D0068091D08602E480830006846
:1059C000091D08602B480C300068091D0860294833
:1059D00010300068091D0860264814300068091D51
:1059E00008602448183000682349203108602148A5
:1059F0001C300068091D08601E4820300068091D21
:105A000008601C4824300068091D086019482830C7
:105A10000068091D086017482C300068091D0860DF
:105A2000144830300068144940310860114834305F
:105A30000068091D08600F4838300068091D0860BB
:105A40000C483C300068091D08600A484030006876
:105A5000091D08600A490948086070BDE00F00F0A0
:105A60000DF0ADBA00C007403C050040FCED00E081
:105A7000105600400404001020C500400090D003E0
:105A80006C2D002070B50D4CD4F8080100250128BC
:105A900008D10B4841680B48006809B1C0B288477B
:105AA000C4F80851D4F82401012801D1C4F82451C4
:105AB000BDE870400220FFF76FBE000000200040EC
:105AC000842C00201825004002E008C8121F08C1DD
:105AD000002AFAD170477047002001E001C1121F6F
:105AE000002AFBD1704738B5062565F307000094FE
:105AF00000F034FF38BD10B5C168002902DC4FF05A
:105B0000FF3010BDD0E90112895C82680368521C25
:105B100092FBF3F403FB14228260C268521EC2603F
:105B2000084610BD10B5C26803689A4201DB002028
:105B300010BD8268C3681A44036892FBF3F403FB48
:105B4000142243689954C168491CC160012010BDEA
:105B50002DE9FC5F0025168807461580406B14462A
:105B60008946A8464FF00C0A11234FF0020B98B15A
:105B700001784846032E48D380F800B02288521C92
:105B800092B2228083542288521C92B2228009F859
:105B900002102088401C20803A6BDAB120884946E8
:105BA00000F11205B54230D80B5420881023401C58
:105BB00080B220800B542088401C20800F20238836
:105BC000155C401ECD54238840B25B1C2380002806
:105BD000F5DA454697F82E0030B13346224649465D
:105BE00002F06AFD050011D197F82D0030B1324660
:105BF0002146484600F002FC050007D1B87820B3E2
:105C00002088C846001DB04202D95046BDE8FC9F1E
:105C1000684679DF0028F9D12188032008F80100BF
:105C200020881921401C80B2208008F800102088AC
:105C3000401C80B2208000EB0801BDF8000004F099
:105C4000EFF80146208808442080F878B8B122880F
:105C500097F90310D31C4846B342D6D800F802B0D7
:105C600022880123521C92B2228083542288521C23
:105C700092B2228009F802102088401C20807868A7
:105C8000B8B1218890F90020CB1C4846B342BCD85B
:105C900000F801B021880A23491C89B221804354AD
:105CA0002188491C89B2218009F801202088401CE4
:105CB0002080388950B1CDE900464B4606220221AA
:105CC00007F1080004F015F905009FD1388A50B19A
:105CD000CDE900464B460722032107F1100004F0EE
:105CE00008F9050092D1388B50B1CDE900464B46FA
:105CF0001522142107F1180004F0FBF8050085D1E6
:105D0000386A30B133462246494601F07DFA050033
:105D1000DBD1786A30B133462246494602F058FE5C
:105D20000500D2D197F82C0038B1334622464946B7
:105D3000384603F089FD0500C7D1387838B13346BD
:105D400022464946384602F075FE0500BDD1284678
:105D50005CE7000030B519488FB0062500798DF852
:105D60003A0049F23000ADF8380038216846FFF7B4
:105D70001DFC02208DF8000001200024ADF8080071
:105D80000EA88DF8024003908DF803502146684616
:105D900000F092FA08B100F0D3F80848182118383A
:105DA000FFF704FC05484FF4C871183804704460CC
:105DB0000472018244820FB030BD000030430020E5
:105DC00010B5064CA078002806D1054873DF08B14D
:105DD00000F0B6F80120A07010BD0000342C0020A7
:105DE0001843002006E000BF10F8013B8B4201D0B1
:105DF00000207047521EF7D2012070472DE9FF4165
:105E0000054608790E46810701D0032239E02C4966
:105E10000090FFF799FC010011D1294CB168103CAA
:105E2000009A2069FFF7A9FB0098FFF759FC0100D1
:105E300005D169462248FFF763FC010004D02846DB
:105E400001F076FDBDE8FF810320019000988008F5
:105E500002902069039001A801F028FD07000BD0F3
:105E6000092F17D02069FFF705FC010002D0284652
:105E700001F05EFD3946E2E73079E168012208442D
:105E8000E0600321284600F09BFB0028DAD000F0F8
:105E900057F8D7E73079E1680144E160607800287D
:105EA000D0D06089401E0004000C6081CAD1284611
:105EB00000F052FB08B100F043F820896081C1E78F
:105EC000442C00201FB58178891ECCB2A1074FF069
:105ED00003011CD10091A108001DCDE90110684605
:105EE00001F0E4FC039001000B4807D009290AD017
:105EF000C9B2032002F01CFE014608E0816821447B
:105F00008160012103E08168214481600721032031
:105F100003F06EFA1FBD0000582C0020BFF34F8F16
:105F200005480168054A01F4E06111430160BFF3CF
:105F30004F8F00BFFDE700000CED00E00400FA0504
:105F40000EB500210091CDE901106A4644F201002E
:105F5000FFF7E4FF0EBD000070B50F4B05460520AE
:105F60001C785E78A64216D01C7818789E88B042BD
:105F700001DA401C00E0002018705E88D86804FB3D
:105F800006002860986800EBC4039B880B8050F8DB
:105F900034001060002070BDC82C00200EB504E055
:105FA000029ABDF804100098904702AA01A9684619
:105FB000FFF7D2FF0028F3D00EBD000030B5CB00B4
:105FC00008339DB293074FF0000401D0072030BD85
:105FD000044B9A602A44DA605C701C705880998087
:105FE000002030BDC82C00200148006800F0FEB839
:105FF000C4A007000148806800F0BABD002C002052
:10600000D4255346180000000302002A00000001B6
:10601000010203004C78B0492DE9F84F254C814628
:10602000924660880E46814241D800274FF6FF789D
:106030008DF80070684600F001F922786078A18838
:10604000884201DA401C00E00020C0B2904204D136
:106050009DF8000000F016F927E065786078884226
:1060600001DA401C00E0002060709DF8000000F0A4
:1060700009F9454519D0A068B9F1000F40F835A0DD
:106080000DD066B16188E068324605FB01004946E3
:10609000FFF773FAA06800EBC500868002E000EB12
:1060A000C50087800020BDE8F88F0420FBE70920A9
:1060B000F9E70000C82C0020074B9B6823B12AB1E8
:1060C00020B10068037C1BB108207047072070478F
:1060D0004174426100207047D82C00202DE9F04720
:1060E0008046994614460F4690074FF0000634D17B
:1060F0001C4D8CB303F036FB0320C5F814902870B8
:1061000004F11800002107EB4703AC6004EBC10267
:10611000491C167056709770506000EBC30003293D
:10612000F4DBEE606E70AE701420FFF740FB0621CA
:106130001420FFF778FB1420FFF74FFB0A49C1F842
:10614000008006211120FFF76EFB0748001F006842
:1061500028610020BDE8F08701E00720FAE7AE6083
:10616000FBE70000D82C0020081501402DE9F8437A
:10617000DFF870900D461746D9F80810044651B361
:106180004CB3052D02D20720BDE8F883606910B337
:10619000607C012821D0002603F078FED9F8081091
:1061A000804601EBC800694603F08FFEB8B10121BB
:1061B00000F8041B0C4910C0096880E8E200D9F817
:1061C000081001EBC8009DF8001041701420FFF783
:1061D0000FFB0020D8E70820D6E72E46DCE7042096
:1061E000D2E70000D82C002004150140F8B5124E6B
:1061F0000446B168E1B1DCB16069C8B10027277419
:1062000003F044FE0546B068694600EBC50003F0A4
:106210005CFE78B1022101704460B0689DF8001006
:1062200000EBC50041701420FFF7E2FA3846F8BDD4
:106230000820F8BD0420F8BDD82C002030B5EFF3BD
:10624000108172B60D4A9468012324B103700029AD
:1062500000D162B630BD93604FF0E023D3F8805197
:10626000074C25401560C3F88041D3F88441546041
:106270005A17C3F8842100220270E8E7444E002038
:10628000FC06FFBC0B498A68002A11D000280FD1F8
:10629000EFF3108072B60B684FF0E022C2F80031C5
:1062A0004B68C2F8043100228A60002800D162B62F
:1062B00070470000444E0020F0B50C4693B01F21FB
:1062C0000726ADF80010ADF80410002750B1C178D2
:1062D00049070DD56A4602A9FFF73AFC002808D104
:1062E00002AD02E00025ADF800706CB1E07810B1AD
:1062F000304613B0F0BD01AA0AA92046FFF728FCDA
:106300000028F6D10AAA02E00022ADF80470BDF818
:106310000400C3B2BDF80000C1B2284672DFE8E74E
:1063200070B5054601461C220F48FFF726F90F4CB1
:1063300000262670286830B1016861604068A0605E
:10634000201D7ADF02E00948001D7BDF00280AD10A
:106350004FF6FF7060806670BDE87040044A00210F
:106360000448FFF7A9BE70BD284E0020F82C00207D
:106370002D9E0700C4A0070070B51E4C068800259E
:106380001B49E289102E15D01B4B112E1CD0122E4A
:1063900029D0502E17D130F8061F914213D14189D0
:1063A000022910D1007B10F0010F11D0BDE8704020
:1063B00000F09EBF83884B808369CB60C069086111
:1063C0004D70002AF2D070BD4FF6FF7048804D70BE
:1063D0001868FFF70BFF0028F5D0A1690029F2D05B
:1063E000BDE8704008478268CA60C0680861DDE7A0
:1063F000F82C0020284E0020C4A007007CB50546DC
:1064000008880C460930904201D90C207CBD6846B2
:1064100071DF0028FAD121880820685420881B21C8
:10642000401C80B2208029542088401C80B22080EB
:106430002844DDF801100160BDF805108180208836
:10644000801D80B220809DF8001001B101212954E7
:106450002088401C208000207CBD000030B585B025
:106460000D46040033D08DB3286878B3194B4FF62E
:10647000FF7020800FCB0DF1040C8CE80F0049F267
:106480003000ADF8000001A8811E63DF00281BD199
:10649000A21C69460120A0DF002815D19DF802004A
:1064A0002071204601F044FB00280DD1204601F068
:1064B000AEF9002808D128682062686800B16062DF
:1064C000054901200870002005B030BDFFE70E200F
:1064D000FAE70000B4A007008D2C00203EB500288C
:1064E00034D0002932D0026A002A2FD00A88102A1C
:1064F0001BD0112A2BD0502A19D0512A26D104465C
:1065000011F8060F022821D14888E28990421DD156
:106510002046891C02F070FC002817D0616A00290F
:1065200014D003B0BDE830400847898811E0CA881C
:10653000C3889A420AD109228DF800200A7C1231C0
:106540008DF804200291026A694690473EBD4FF6DD
:10655000FF7101803EBD000070B588B050B3028865
:10656000A2F57F43FF3B27D0144A127822B3134B86
:1065700011225B1C0E0A1A7059709E700E0CDE7090
:10658000090E0024197101250521ADF81810009499
:10659000019402940394C189ADF8001006A9CDE9D5
:1065A00002138DF80250ADF8044000886946A6DF5A
:1065B00008B070BD0E20FBE70820F9E78D2C002005
:1065C00030B585B028B30388A3F57F44FF3C22D0C3
:1065D000124B1B78FBB1114B10255B1C00241D7066
:1065E00059709A7001250321ADF8101000940194A0
:1065F00002940394C189ADF8001004A9CDE90213F7
:106600008DF80250ADF8044000886946A6DF05B059
:1066100030BD0E20FBE70820F9E700008D2C00209C
:106620007FB5044601208DF8060041F60A00ADF85A
:106630000400454A01A90120A0DF00287ED122885C
:1066400004F13C0552B140482B46801C009042F6B4
:106650002920616800F06CFC002873D1228952B1B6
:1066600039482B460A30009042F62420E16800F0B9
:106670005FFC002866D1228A52B133482B46123083
:10668000009042F62520616900F052FC002859D1A3
:10669000228B52B12C482B461A30009042F627200C
:1066A000E16900F045FC00284CD1228C52B126480B
:1066B0002B462230009042F62620616A00F038FC1A
:1066C00000283FD1228D52B11F482B462A3000901E
:1066D00042F62820E16A00F02BFC002832D1216B21
:1066E00071B102A803F0AAFA17482B463230009085
:1066F000082202A942F6232000F01AFC002821D12A
:10670000606B58B110492B463A310091027901680B
:1067100042F62A2000F00CFC002813D1A16B81B1B5
:1067200002A802F075FD08482B464230009007226F
:1067300002A942F6502000F0FBFB00E002E0002836
:1067400000D1002004B070BD0C2D002010B504460F
:10675000FFF712FE21460448FFF7C0FE2046BDE8C1
:10676000104002F011BB00003043002070B5044619
:106770000D460846FEF725FF2080656070BD0000CD
:1067800030B51C498BB00A1D0DF1140C3CCA8CE8C5
:106790003C000968099120B105A818DF08B1FFF78E
:1067A000CFFB4FF4EA2013DF08B1FFF7C9FB00234A
:1067B0004822114909A803F0C7F908B1FFF7C0FB47
:1067C00001216A46084603F0A9F908B1FFF7B8FBB2
:1067D00001208DF80C00684603F096F908B1FFF728
:1067E000AFFB064803F0D4F9002801D0FFF7A8FB5F
:1067F0000BB030BD64A00700682F0020399C070053
:10680000F8B54FF44056B068D0E90054684600F03F
:1068100003FA00980078012802D008B1FF2811D1AE
:10682000A8070FD1A5F10055B5F1011F0AD2E00765
:1068300009D0B068A04205D8C0F5E42100EB5100B2
:10684000A04201D80020F8BD0120F8BD11DF0849A1
:10685000C0200860BFF34F8F06480168064A01F464
:10686000E06111430160BFF34F8F00BFFDE70000FF
:106870001C0500400CED00E00400FA0508B5684670
:1068800000F0CAF900980178A52904D04078AA2818
:1068900001D0002008BD012008BD10B501F033FA79
:1068A00018B900F0E8FE002810D001F0EFF908B1A7
:1068B000FFF746FB01F027FA08B1FFF741FB00F0B4
:1068C000BBFE041E01D0FFF73BFB204610BD0000BD
:1068D00000B587B01422084901A8FEF74EFE0598BE
:1068E0000DF1040C00909CE80F0000F037F803F065
:1068F0009FFB07B0002000BD8CA007002DE9F041F0
:106900000746124C00200E461546E0700146104A1C
:106910001048FFF7D1FBA0B9C4E9025601F060F8B6
:1069200078B90C48002239460068FFF71FFC40B9CF
:10693000094802F011FF01F0C1FA03F079FBE07899
:1069400010B10020BDE8F0810120FBE7002C002001
:106950002D6B070078A00700D96B07002DE9F843DD
:1069600005460E4617461C466846DDF8209000F0A6
:1069700053F915F0FF013C48DFF8F0804FF00105B6
:106980004FF002024FF0FE0318D001291CD003295A
:1069900024D00024022934D0062945D0FD22042920
:1069A0004ED0052955D0072929D198F80100B0B358
:1069B00001F07EFA052088F802001EE044600570B0
:1069C000437088F8022040E0F11921444160A5217C
:1069D00001704370C0F81490866007E000990B784E
:1069E000037049684160AA2141708660C0E9037460
:1069F00088F802201C4800F080F888F80350BDE8B1
:106A0000F883009E317801290AD049B1FF2907D0C7
:106A10004460037043708460C4600461E8E71FE071
:106A2000017071684160F5E798F8010028B101F044
:106A30003FFA042088F80200E1E701F01BFAF8E7CA
:106A400044600270009949784170074800F055F899
:106A5000D5E700990B780370496841604270F4E70C
:106A600001F008FAA6E7000074310020002C002095
:106A700010B501F0C7FBBDE810400249012001F04C
:106A8000D1BB0000398107002DE9FF4100244FF4FC
:106A9000405825462646D8F8087008E0320B0120F9
:106AA0000021FEF75BFD04430D4306F58056B74217
:106AB000F4D809480560001F0460084B0FCB8DE82F
:106AC0000F00684618DF4446D8F8080013DFA068B6
:106AD00000F0A0F8BDE8FF81040600407CA007009C
:106AE00038B50446684600F097F800980021425CEB
:106AF0006254491C1829FAD338BD70B505464FF4C5
:106B0000FC2418222146012001F074FB08B1FFF794
:106B100017FA18232A462146012001F08BFB002892
:106B200003D0BDE87040FFF70BBA70BD0548807810
:106B300008B1012804D10021034A0846FFF76CBAC6
:106B400070470000002C0020E75A070010B5074CE2
:106B5000A07828B9607808B902F058FD0120A0702B
:106B6000E068BDE8104000F003B80000002C0020F1
:106B700070B505460948807804280CD0084C206878
:106B8000FFF734FB002807D129462068BDE8704094
:106B90000022FFF7EBBA082070BD0000002C002097
:106BA00078A0070001480068FFF720BB78A0070025
:106BB00010B5084CA0786178084309D101F05AF962
:106BC00001206070FFF7C2FFBDE8104001F0A8B9D6
:106BD00010BD0000002C002070B50C4A0025141FC9
:106BE0002178515C814200D025702178525C82422C
:106BF00001D1491C2170C8B2042805D10021044AE2
:106C00000846FFF709FA257070BD0000042C00202B
:106C1000B16B0700FEF73ABC014901607047000004
:106C200000E007002DE9F04F85B006464FF0000B5D
:106C3000DFF8C8924FE16278012A43D0022A7DD062
:106C4000032AF7D1DDE02078AC49C0F108022431F5
:106C50000144736830469847002870DB2178C1F101
:106C60000801814208D099F80020104489F80000FA
:106C7000012005B0BDE8F08FA04D5946243595F8A8
:106C800007C00CF07F03DA0F0620120242EA1362FB
:106C90002F5C1B02FB184A41401E40B20028F4DA68
:106CA0005FEA0C6003D500205B4260EB0202B06A31
:106CB00006EBC000C0E9043284F800B0B06A401CA2
:106CC000B06200E0B06A0328BDDBD6E90420616948
:106CD000531840EBE17061684FEAE172C91A8241D2
:106CE0002DDB0220C6F828B06070F4E04F464FF06C
:106CF000000AD7E90232D01AB0EB040C7BEB050C8A
:106D000001DA04465D46D017111B70EB050101DA6C
:106D10000546144638692246C118736830469847BC
:106D200000280CDBC11780EA040281EA05031A433C
:106D300003D04FF0010A04460D4601E057E083E01E
:106D4000BB68019300933B690293D7F81C80CDF890
:106D500010803B6A002003930146B946D7F818E03B
:106D60001AE000BF18EB000351EBE87211D44FEAB0
:106D7000EE7CB3EB0E0772EB0C020ADA009A029F6C
:106D8000DDF80CC01218BF5C1CF803303B44029FB6
:106D9000BB54401C41F10001021B71EB0502E1DB19
:106DA00001990919C9F80810D9F814201219C9F85D
:106DB0001420049A1219C9F81C20D6E904321B1BAE
:106DC00062EB0502C6E90432D9F80C00814209D110
:106DD0004C46B268D4E903104FF0020A9047C4F859
:106DE00008B002E0BAF1000F01D0504641E7D6E901
:106DF000044554EA05007FF479AF032189F80110B6
:106E000069E0D6E90657CA1769187A41C317401ACC
:106E1000934119DBD4E90210401A421B7BEB0701B6
:106E200001DA5F460546C846D6E90610014348D058
:106E3000D8F81010D8F808007368014400242A46D6
:106E400030469847002802DA4FF0FF3011E7C117AB
:106E500080EA050281EA07031A4302D001240546AD
:106E60000F46D8F8081040464A19C8F80820D8F844
:106E70000C108A4207D1B2680224D8F8100090475B
:106E80004046C8F808B00146406940194861D6E953
:106E90000620521B60EB0700C6E906200CB1204615
:106EA000E7E6531B70EB070301DA07461546C8688F
:106EB0008968401A421B7BEB0702B5DA05465F463C
:106EC000B2E7326AD8F81C105118C8F81C104FF0FD
:106ED000010188F80110D9F81410D9F804004C46C3
:106EE0008142FFF6A8AEA16831B1B268206990472F
:106EF0000220C4F808B0BCE60020BAE6982C0020B6
:106F00000148406970470000982C002030B5074CBC
:106F1000039DA1610021E161C4E90131616121703A
:106F20002062C4E903520120607030BD982C00201B
:106F30002DE9F0438FB01E46DDF8589015460F003E
:106F4000804602D10020FEF7FBFF15B90020FEF7B6
:106F5000F7FF1C216846FEF729FB00249DF800007E
:106F6000039440F002008DF80000012001948DF898
:106F70003600049405940694ADF834800C9430786F
:106F80008DF8300070788DF831009DF832001421B2
:106F900020F00600801C20F019008DF8320007A8B0
:106FA000FEF704FB0DA807900CA808900748ADF861
:106FB0002450ADF82640ADF828500B974B4607AA51
:106FC00069460088A2DF0FB0BDE8F0830C2D0020D9
:106FD0002DE9F04142EA0304069EA40702D01020E6
:106FE000BDE8F0810E4C2578102D01D30420F7E781
:106FF00067783D4405F00F0505EB850504EB850535
:10700000287169710020C5E90460C5E90223207870
:10701000411C217008B900F005F80020E0E70000ED
:107020005C46002070B519480178002919D04178D4
:1070300001EB810100EB81046079241D022811D04D
:1070400004280ED1216960684FF0805508442969F1
:10705000B0FBF1F028DF112803D02069296908442A
:10706000206170BDD4E903100D1A4FF480618D4288
:1070700000DD0D46A168626801441044AA0829DFBA
:107080001128EED020692844EAE700005C46002081
:107090002DE9F05F2648C168F1B3DFF898B00E68BB
:1070A0008146DBF800400769C078E11B21F07F458D
:1070B000ED1CB0B9DFF880804FF48030C8F844038D
:1070C000C8F804031120FEF772FB1120FEF785FBC0
:1070D0004FF0010AC8F800A02F20FEF79BF989F8AD
:1070E00003A0B54200D23546124BE8193C3320F0DC
:1070F0007F401860DBF800105A46091B21F07F41E1
:10710000001B20F07F40C91C81420FD91068186015
:107110002F20FEF77FF900E004E0BDE8F05F1120CA
:10712000FEF766BBBDE8F05F02F01CBBBDE8F09F58
:10713000D82C002004150140001001402DE9F04139
:1071400002F03EFF00281DD10A2200212C48FEF744
:1071500049FEB0B12B4E01200503B07028484FF412
:10716000FE272A463946FE30FEF707FA244C102245
:10717000FE3404F57E6000218046FEF733FE48B9F8
:1071800002E00B20BDE8F0811022FF214046FEF70F
:1071900029FE18B129462046FEF708FA18481022A1
:1071A00000211638FEF71EFE30B9154904F57E6839
:1071B00016390FC988E80F00114806220021801FE8
:1071C000FEF710FE68B90E49002052390A18C0F1C6
:1071D0000503234492F84C20401C83F8F02F062826
:1071E000F4DB2A463946002001F004F82B462246FB
:1071F0003946002001F01EF8032030700020C1E75E
:107200001A320020102C00202DE9F0411788064684
:10721000B81D14460D46984202D90C20BDE8F081F5
:107220003188072206290AD34FF4486C4FF6FF73C2
:10723000614501D9994202D17088062801D21046D1
:10724000ECE7604501D99842F9D1994203D09842C0
:1072500001D08142F3D80520E85520881221401C36
:1072600080B2208029542088401C80B2208041199F
:10727000308802F0D5FD2188084480B22080411971
:10728000708802F0CDFD2188084420800020C5E7E9
:10729000FEF756BE30B5144C87B04FF4C870E0808E
:1072A0000920608020800025A5801C216846FEF70B
:1072B0007DF940F6CD40CDE900404FF4804002908A
:1072C00003208DF80C000948ADF80E508DF81050D1
:1072D000CDE905506846FFF723F8002801D0FEF7F6
:1072E0002FFE07B030BD00004E2C00209172070029
:1072F000F8B5134801F0D2F9114D0026114C0C3DA0
:1073000030B16169B9B101208DF80000684611E023
:10731000287820B1616971B18DF80060F6E768786E
:1073200058B1A168084800220068FEF71FFF10B19D
:10733000A16901B188472E70F8BD6168F2E70000CD
:10734000042D0020284E0020C4A0070070B50023A3
:107350005A1E094E0BE0C45C6240072402F001058E
:107360006D42354085EA5202641EF7D55B1C8B42A4
:10737000F1D3D04370BD00002083B8ED00F002B817
:10738000002070472DE9F041074658681C46401E12
:1073900015460E46102806D2A168002903DB04F129
:1073A0002408102935DD1020BDE8F081D4E9010161
:1073B000814201D0084622E0E16869B9002007E077
:1073C0002218117D491C11F0FF0111750FD1401CCD
:1073D00021698142F4DC0AE02169401E814206DC19
:1073E0002218117D491C11F0FF011175F4D041469E
:1073F00004F1140001F04EFA0028D5D1A060421C1F
:10740000A26010F8080017F8011B484006F8010BAD
:107410006D1E002DCAD10020C6E72DE9F0410E46B1
:10742000DDE90754074615F0FF0F01D0E8B200E090
:1074300010202061102802DD1020BDE8F081E90451
:1074400002D5C0F110002061104601F03BFA102077
:10745000C4E900700020A06005F48050E0600020C6
:107460002218315C11756168401C8142F8DCA80467
:107470001AD5E06848B1481E13E02218117D491C56
:1074800011F0FF0111750FD1401C21698142F4DC1C
:107490000AE02218117D491C11F0FF01117503D17A
:1074A000401E21698142F4DD04F1240104F114003D
:1074B000BDE8F04101F0EEB9024610B50B461146A9
:1074C000034800F053FD002800D0082010BD000044
:1074D0003032002010B58AB008A802F001F8224C22
:1074E00080B1224A0C23102102F10C008DE80F001C
:1074F0000B4600218830089A00F085FD80B10620F7
:107500000AB010BD0020607020216846FEF74EF8DA
:107510001648202269460C30FEF75AF808BB0FE0E7
:107520004FF44050A1698068884206D16846FFF751
:10753000D7FA9DF80000FD2813D10120607001E00A
:10754000607850B120216846FEF730F807482022C5
:1075500069460C30FEF73CF818B108202070002076
:10756000CEE70820CCE70000102C00209C31002042
:1075700008B5102000900E484078002816D00D491C
:107580006A4601F1A40000F008FD70B900981028C7
:107590000BD1084910222C31064802F017FC20B903
:1075A0004FF4FE200068002800D00B2008BD00002A
:1075B000102C00208C31002038B50F4C4FF4405572
:1075C0000020A268A96800F015FE08B1FEF7B8FC1B
:1075D000A968A368C1F5E42001EB5002002000F087
:1075E00029FE050006D1002363F30700A368009677
:1075F000FFF7B4F9284638BD9C31002008B5054B8B
:10760000032161F307000ECB0094FFF7A7F90020D8
:1076100008BD00009C31002038B5012161F307004E
:107620004FF44051034B8C680ECB0094FFF796F952
:10763000002038BD9C31002000B58BB004A8FFF7B6
:107640004FFA079800280CD0069860B1069909985F
:107650000844002100910190079880080290684634
:1076600018DF0BB000BD4FF440508068C0F5E42136
:1076700000EB5100EDE700B58BB004A8FFF730FA3E
:10768000079800280FD0069878B106990998084401
:10769000032100914FF4EA21CDE9011007988008F9
:1076A0000390684618DF0BB000BD4FF4405080686F
:1076B000C0F5E42100EB5100EAE7000010B50B46ED
:1076C0000146022823D01E4803290ED0052925D0C3
:1076D000072933D14BB30B21184601F006FA0246B5
:1076E0000B211848FEF76CFF07E063B1C088A0F5D6
:1076F0007F41FF3922D0132176DF00281ED0BDE85C
:107700001040FEF71DBC1046FDF7B4FFF5E7012160
:10771000184601F0EAF902460121E2E7092118467C
:1077200001F0E3F902460921DBE7C078002805D122
:10773000BDE810400021034801F066BC10BD000008
:10774000342C00203043002010B50A46022810D007
:1077500003281DD005281BD0072819D182B10B2181
:10776000104601F0E5F901460B20BDE8104001F09C
:107770003FBE0121104601F0DBF901460120F4E78C
:1077800004480078002803D1BDE8104001F070BC27
:1077900010BD0000582C00201FB503230093CDE935
:1077A000010190080390684618DF04B010BD000086
:1077B00010B504460E480178012903D0022905D0EE
:1077C000082010BD0021018102210170FEF712FC8A
:1077D0000028F6D1064B5C2208330649204600F00B
:1077E0002BFA0028EDD1BDE81040FFF7A7BC000040
:1077F000102C0020C83100201FB501230093CDE9D3
:10780000010190080390684618DF04B010BD30B540
:107810008FB005461C216846FDF7C8FE00249DF880
:107820000000019440F018008DF8000003940494C7
:107830000594069428798DF8360049F23200ADF8A7
:1078400034000C949DF83000142120F0FF008DF8D6
:1078500030009DF8310020F00F00401C20F0F000B7
:1078600010308DF831009DF8320020F00600801CA9
:1078700020F0080040F011008DF8320007A8FDF755
:1078800095FE0DA807900CA80890ADF8244017208D
:10789000ADF82640ADF828000B94688805F10E037A
:1078A00007AA6946A2DF0FB030BD000070B5060020
:1078B00004D0307A800703D0102070BD0E2070BD38
:1078C0001A4C2078082803D0092803D0082070BD5E
:1078D00009202070706821698500E068284488428A
:1078E00004D94FF0FF30E0600C2070BDFEF782FB42
:1078F0000028FAD1B668607828B129463046FFF7EB
:10790000DBFD0028F1D1E168A0692B460144324635
:10791000002000F08FFC0028E7D1E1682944E160F5
:1079200022699142E1D0092070BD0000102C002096
:1079300010B50A4604460321104601F0D6F8024667
:1079400003212046FEF73CFE002803D0BDE810408E
:10795000FEF7F6BA10BD0000074810B500780C28F5
:1079600001D0082010BDFFF71DF903481C30406806
:10797000BDE8104000470000102C002070B5164CE8
:1079800000252078092802D00A2806D101250B20DD
:107990002070D4E90301884201D0082070BDFEF7B1
:1079A00029FB0028FAD1FFF7E3FD70B97DB14FF450
:1079B00040508068C0F5E42100EB51002169FFF7D9
:1079C000C5FC06494968814201D00B2070BD0C20DE
:1079D0002070002070BD0000102C002024320020F8
:1079E00030B587B01949002000F01CFC01A8FFF752
:1079F00077F89DF805100025154C4FF44050FD29EF
:107A000007D18168C1F5E42201EB52010968491CE4
:107A100016D08068C0F5E42200EB52015208002025
:107A200000F0E8FB10B1257007B030BD05213046ED
:107A3000334661F307001A4611460097FEF78EFFA2
:107A4000E560E570012020700020EDE75981070016
:107A5000102C002010B504460F480178062902D0EA
:107A6000072906D103E00021C18007210170C06809
:107A700008B1082010BDFEF7BDFA0028FAD1064B68
:107A800020229B1D0549204600F0D6F80028F1D1A0
:107A9000BDE81040FFF71EBD102C0020A8310020CB
:107AA00070B50F4C05460E4620780A2801D00820F4
:107AB00070BDFEF79FFA0028FAD16DB1607828B149
:107AC00031462846FFF7F8FC0028F1D13146284618
:107AD00001F03EFB0128EBD0BDE8704001F080BB17
:107AE000102C002010B504460F480178082902D058
:107AF0000D2906D103E0002141810D210170C068EC
:107B000008B1082010BDFEF775FA0028FAD1064B1F
:107B10000C220A330549204600F08EF80028F1D1E6
:107B2000BDE8104001F0D0BA102C00202432002013
:107B300030B58FB005461C216846FDF737FD00249F
:107B40009DF80000019440F00C008DF800000394B3
:107B500004940594069428798DF8360049F2310092
:107B6000ADF834000C949DF83000142120F0FF0093
:107B70008DF830009DF8310020F00F00401C20F0FF
:107B8000F00010308DF831009DF8320020F0060032
:107B9000801C20F0180040F001008DF8320007A88A
:107BA000FDF704FD0DA807900CA808901420ADF86F
:107BB0002440ADF82640ADF828000B946888AB1D32
:107BC00007AA6946A2DF0FB030BD000010B54FF420
:107BD00040500D4C806886B0C0F5E42100EB5100A8
:107BE000A06106202070E07810B16846FEF778FFAB
:107BF0006369002B06D006B00022BDE81040114694
:107C00000220184706B010BD102C002010B54FF40C
:107C10004050052281680748816102700269002096
:107C200000F0E8FA002803D0BDE81040FEF788B95C
:107C300010BD0000102C002070B5164642681D468D
:107C400094001A881319B34201DD0C2070BD8368BB
:107C5000501822461946FDF790FC2888204480B22F
:107C60002880B04201D0092070BD002070BD000006
:107C70000149486170470000102C002038B50725E5
:107C800065F307000094FEF769FE38BD2DE9F04169
:107C900086B06846FEF724FF029800282BD0059A8C
:107CA00000F580504FF48051904227D9A2F58050C2
:107CB00044081046029A00EB440687184FF44050DF
:107CC0000D46806801EB440890420ED204F58050C6
:107CD00004220146FFF790FD00280CD1294604221A
:107CE0000846FFF789FD002805D1BA1B2346414607
:107CF000304600F038F806B0BDE8F081029A0598E9
:107D0000FFF77AFDF7E730B58FB002A8FEF7E8FE7F
:107D10000498002817D0079A00F580504FF480513E
:107D2000904216D9A2F58050430810464FF44054B3
:107D3000049AA468049D024400EB430001EB430154
:107D4000AC4202D20E200FB030BD121A00F00BF878
:107D5000F9E70AAB032083E80700049880080D9038
:107D60000AA818DFEFE72DE9F0411C4617460D463B
:107D70000646FFF711FD002818D0B5F5805F07D93A
:107D80002346291B301B1A46FFF7EDFF00280DD1B3
:107D90003A4629463046FFF72FFD002806D13A46DD
:107DA00029463046BDE8F041FFF7F6BCBDE8F0815A
:107DB00070B5294C05462078012803D0042805D049
:107DC000082070BD0020A08004202070FEF712F96A
:107DD0000028F6D1204B0C221B1D20492846FFF716
:107DE0002BFF0028EDD11D48816819B102684AB9FE
:107DF00042683AB903689A0704D14268900701D1F2
:107E0000880701D0062070BD981808442061B2F59B
:107E1000104F13D810494FF440541C3143B1A2689D
:107E2000C2F5E222824209D30D4A0A600D4A0DE0F2
:107E3000A368C3F5E423B0EB530F01D90C2070BD48
:107E4000094B0B600AB1094A00E0094A4A60096817
:107E50008847002070BD0000102C00209C310020BD
:107E60000D7C070019760700CD7B0700FD75070024
:107E7000B975070010B50D4CE088A0F57F41FF39BA
:107E800005D0132176DF50B1FEF75AF807E0A0784D
:107E900028B174DF08B1FEF753F80020A070FEF798
:107EA000A3F808B1FEF74CF8002010BD342C0020D8
:107EB00010B501F0ABFB002010BD0000154910B556
:107EC00000200871144801F015FE002820D1134845
:107ED000FFF7CEFEFDF7BAFB002819D100F0E2F95A
:107EE00001F0F8FCFDF736FFFFF7D4F9094814302C
:107EF000017821F0720141F00101303121F080015F
:107F000001700721417010218170FDF759FF002099
:107F100010BD0000342C00204D670700BD7607001F
:107F200010B501F0DFFB0A4801F016FC09A001F0D2
:107F3000CFFB01F00DFB01F0CBFB0D2001F0C6FBE8
:107F40000A2001F0C3FB0848FFF792FE002010BD95
:107F5000F19D07005269674466752F332E322E302B
:107F600020283432292F0000497707002DE9F041FD
:107F7000164604461D460F461A46983000F0C8FEC5
:107F8000002808D104F110032A4631463846BDE8DE
:107F9000F041FFF7F3B9BDE8F081F0B589B00446D0
:107FA000102015460E46089008AA04A904F198006E
:107FB00000F008FE002824D108AA694604F1480010
:107FC00000F000FE00281CD104F11000FFF7D8F9E2
:107FD000002816D100236A4604AF08980AE0E15C45
:107FE00012F803C081EA0C0117F803C081EA0C0102
:107FF000F1545B1C834202D229689942EFD80020D9
:108000002B6009B0F0BD2DE9FF4F9FB08946DDE937
:108010002CBA044607AD10260BAF31462846DDF8D2
:10802000BC8002F017F8DDE921234946384600F00C
:108030001BFE00285DD132462946384600F068FE16
:10804000002856D152465946384600F061FE0028B5
:108050004FD11020059005AA2146384600F0B2FD08
:10806000002846D11021284601F0F4FF01208DF8A8
:108070002B00DDE9212304F148004946074600F0C2
:10808000F3FD002835D132462946384600F040FE3F
:1080900000282ED1B8F1000006D0024638462E99AD
:1080A00000F036FE002824D104F110024FF4805174
:1080B00000208DE80700DDE9212321464846FFF72F
:1080C000ACF9002815D1DDE9212304F198004946D7
:1080D000044600F0C9FD00280BD11021284601F00C
:1080E000B9FF02208DF82B0032462946204600F0C9
:1080F0000FFE23B0BDE8F08F0E4910B54A788C789A
:108100000023A24212D0521CD2B24A70022A00D1DD
:108110004B70084A4B78183252F8232002600869E5
:10812000104420F07F400861012010BD0360002052
:1081300010BD0000D82C002006488378022B03D104
:10814000022901D103218170100001D0FDF7F8BE92
:1081500070470000002C002070B5244C1E4686B0ED
:1081600063691546BBB322460229127802D004295E
:1081700032D115E0092A04D0032A06D00A2A0BD0EE
:108180002AE032462946032004E00020A07032464F
:108190002946052098471FE0324629460720F9E77F
:1081A000052A19D14FF440518968814214D1142213
:1081B0000F4901A8FDF7E1F905980DF1040C0090B5
:1081C0009CE80F00FEF7CAFB0620207032462946C5
:1081D00002206369DEE7FFE7280004D006B0BDE8AF
:1081E0007040FDF7ADBE06B070BD0000102C002041
:1081F000A0A0070008B5002300920A460421FEF75C
:10820000E7FE08BD10B54FF4A2710448FDF7CEF9A2
:10821000034800210160416010BD00005C46002061
:10822000742C0020024A42F8201000207047000001
:10823000742C002008B5009313460A460221FEF76D
:10824000C7FE08BD70B5154D2978002924D069787E
:108250000D2201EB810105EB8104241D022804D1CC
:10826000D4E90301814213DB0022D4E901036178E0
:1082700024780B4E56F82440A0476878401C00F044
:108280000F0068702878401E10F0FF00287003D09F
:10829000BDE87040FEF7C6BE70BD00005C46002021
:1082A000742C002030B585B01EA19DF8100020F080
:1082B0000F00401C20F0F00010308DF81000062256
:1082C00004A87CDF08B1FDF73BFE0020029003907C
:1082D000ADF80C0009214FF4C870ADF80810ADF8E6
:1082E0000E00ADF80A1002A87ADF08B1FDF728FEEB
:1082F0006D46681C01F068F9012418B9681C01F08A
:1083000005F928B18DF80040684600F0BBF904E09B
:10831000684600F0B7F98DF800406946002070DF2C
:1083200005B030BD5269674466750000FEB516465B
:108330000546DDE908240879800701D0032210E012
:1083400000938868029008798008019068469047F9
:1083500009280ED050EA04010BD0314600F0C5FBCD
:10836000024631462846FEF72BF9002801D0FDF7DA
:10837000E7FDFEBDFEB5044688781D46801EC3B2EB
:10838000980701D0032125E000200C2C12D2DFE851
:1083900004F01106080A11111111110C0E1002201F
:1083A00008E0012006E0032004E0052002E00620AA
:1083B00000E0072000909808091DCDE901016846FA
:1083C0009047092809D050EA050106D0214600F05F
:1083D000AFFB0146204601F00BF8FEBDF0B50022D0
:1083E00013464FF6FF740F292DD805883DBB077B38
:1083F0004E1E0125B540AF4225DB20E0057B9DB92F
:10840000068806B3458800F10D0705F1010C1FFA37
:108410008CFCA0F802C0ED5DC572B44502D1002508
:108420004580058080250573C67AEDB204EA4202D4
:108430002E4201D042F001026D0805735B1C8B4295
:10844000DCDB1046F0BD2046F0BD2DE9F04F89B0D1
:108450001D461746040017D0B1B1ADB14FF0000969
:10846000C5F80090CDE904174FF0020B4FF6FF78E6
:108470004FF0050A0695A67A072E76D2DFE806F0B9
:10848000091C3945546070004FF0FF3009B0BDE859
:10849000F08F01212046FFF7A1FF404501D148465A
:1084A00001E020BB2BE0A072C0B2B042E3D128684B
:1084B000B8425DD10120E9E704A802900698059929
:1084C0000068884213D208212046FFF787FF404505
:1084D0000DD0C2B2208904F1D501C0F30903401CBC
:1084E0002081CA542046029900F044FFD7E70120BA
:1084F000D9E759462046FFF771FF404501D158465C
:10850000D1E708EA0021E18005E008212046FFF7D5
:1085100065FF404501D10320C5E7E1880143491CBF
:10852000E180A4F8049012E049462046FFF756FF88
:10853000404501D10420B6E708EA0021A18006E009
:1085400008212046FFF74AFF0146404501D1504629
:10855000A9E7A0880843401CA0800620A3E704E008
:1085600004A9204601F01EFB9DE76FF001008DE796
:1085700000208BE710B504464FF499610D30FDF7EC
:1085800015F80020A072208060802073E072A08027
:10859000E080208110BD70B51D461346040019D03F
:1085A000C1B1BDB12088D0F1C80216D09A4200D323
:1085B0001A46164604F10D0210443246FCF7DDFF60
:1085C0002088304420802E602088D0F1C80006D05A
:1085D000002070BD4FF0FF3070BD002028600120EA
:1085E00070BD000008B5002000906B460448FFF7FE
:1085F0002CFF002802DA4FF0FF3008BD009808BDBC
:10860000004900200A2801D2303000E05730C0B2C3
:1086100070470000F8B51A4C207800282ED0206949
:1086200028B10026E06820B1002526B110E001261F
:10863000F8E70125F9E7684652DF052803D020B1A5
:10864000FDF77EFC04E0012602E0216900988847DE
:1086500085B96088ADF800006946A06861DF05282B
:1086600003D020B1FDF76CFC04E0012502E0D4E961
:1086700002018847002EDED0002DD6D0F8BD0000C4
:10868000582D002000214218491C5378C9B2DB4301
:1086900053700629F7D3C02181717047054940887E
:1086A0000A88904204D34988884201D80120704743
:1086B00000207047FC2C002030B51488E51C9D423A
:1086C00001D90C2030BD02250D5513881C245B1CDC
:1086D0009BB21380CC5413885B1C9BB2138001287F
:1086E00007D0022807D0032807D0042807D0072086
:1086F00030BD002004E0012002E0CD5401E0032061
:10870000C8541088401C1080002030BD2DE9F0476F
:10871000DFF8ACA0DAF80C009AF8004080469AF82E
:108720000460DAF80890DAF810703AE009EBC40552
:108730002A7833E002EB42016B68521C03EBC10163
:10874000AB78D2B2934200D100220B78022B02D038
:10875000032B23D11FE0D1F804C00346014603E0F8
:10876000614503D00B46C969C1B1F9E7B1B18B428C
:1087700005D1C06918B9134F0126BE600027D1F892
:1087800000C0C969D96149B10B6863440B6005E059
:108790000174C06900E000210028F9D16978914294
:1087A000C8D1641EE4B2C1D2CAE903078AF80460E2
:1087B000404502D00120BDE8F0870020FBE7000023
:1087C000D82C0020001001402DE9F04705462F4825
:1087D000002680460778D0F80C904BE0D8F80800C7
:1087E00000EBC70440E002D02846ED691EE0207887
:1087F000616800EB4002401CC0B201EBC201207076
:10880000A278904200D126700A784868012A2DD1BA
:10881000027C5ABB8A684260CA6882600A69C26088
:108820004969816198F8041001B146604268D8F83E
:108830001030DFF85CC0D11A21F07F41614502D2CF
:108840008268114406E0991A826821F07F418A42C9
:1088500002D9511A016000E006604660012186607D
:108860000174C66101F052FA002DBCD12078617804
:108870008842BCD17F1EFFB2B0D2D8F80C10494557
:1088800002D00120BDE8F0870020FBE7D82C0020B3
:10889000FFFF7F0010B50C46014610220848FCF788
:1088A0006CFE074810384DDF08B1012010BD0449A7
:1088B000102210312046FCF760FE002010BD0000A1
:1088C000802D0020014610220148FCF756BE000012
:1088D000702D00203A4F00252E463868C4B2A4F10E
:1088E000C0000F2808D8FDF78BFF28B1386800F0CA
:1088F0000F003860FEF7C8F8B12C02D0B22C02D0BD
:1089000003E0012501E001252E46642000F0E0F897
:1089100000232C4A05211846FDF7E0FB08B1FDF7BE
:108920000FFBFEF7A5F8FDF7A9FF78B1FDF7B5FF3E
:1089300008B1FDF705FB0120FDF722FF00F030FF35
:10894000FDF7C6FF38B1FDF7FBFA04E00120FDF7A3
:1089500017FF00F025FFFF2045DF08B1FDF7F0FA13
:108960004FF480344FF4F0284FF4A02715B9FDF7E9
:1089700047FF08B94FF47014304600F05FFE3A46E6
:1089800041462046FDF7BAFF044600F03FFE24B101
:10899000FDF736FF08B1FDF759FF01F0EFF80A20A7
:1089A00000F096F8BFF34F8F07480168074A01F4BB
:1089B000E06111430160BFF34F8F00BFFDE700008E
:1089C0001C050040A02D00200CED00E00400FA057D
:1089D00070B5144682880E4605462088111D014454
:1089E000921C994201D8FE2A01D90C2070BD521C5C
:1089F00032542088FF21401C80B2208031542088CE
:108A0000401C80B220808119288801F009FA218851
:108A1000084480B22080AA8842B1A96841B130449C
:108A2000FCF7ABFD2088A98808442080002070BD99
:108A3000072070BDF8B50E46017814460546012999
:108A400001D1687830B12088821C9A422DD8012942
:108A500002D006E00720F8BD69780144891C9942DC
:108A600023D8181A801E87B2ADF800702188B01C78
:108A7000084469467DDF0028EDD12878022805D119
:108A8000BDF80010B94201D809210AE008210128E7
:108A900005D16878B84202D8ADF8000001E0ADF821
:108AA0000070BDF80000FE2801D90C20F8BD228816
:108AB000401CB0542088401C80B220803154208853
:108AC000401C2080BDF80010084420800020F8BD24
:108AD00031B540F2E73404E0401E00902046FCF738
:108AE000EFFC00980028F7D138BD08280ED005DC2F
:108AF00050B1042816D0062804D109E00B280BD069
:108B00000C2807D0092070470120704702207047C9
:108B10000320704704207047042901D00A2903D19B
:108B2000052070470B2901D00620704708207047A8
:108B300008280BD003DC38B1062811D108E00B2837
:108B40000AD00C280CD105E00120704702207047A4
:108B50000320704704207047042903D00A2901D05C
:108B6000062070470520704730B541EA4201DDE933
:108B7000034541EA8301800041EA042100F1A0405D
:108B800041EA0541C0F8001730BD0022800000F125
:108B9000A04042EA8101C0F8001770471CB50022CE
:108BA0000B46009211460192FFF7DEFF1CBD1CB57B
:108BB000002100910B46012201911146FFF7D4FFDD
:108BC0001CBD00002DE9F0410E46416815460446E3
:108BD000112906D2A268102A03DC04F10C0091428C
:108BE00003DD4FF01000BDE8F08113D001F1010268
:108BF00062604FF080030B544FF0000204E000BFAE
:108C000001F1010363600A54D4E901139942F7DBCF
:108C1000012200E00022002104EB02130DE06218A3
:108C200003EB010C177F9CF82CC0491C87EA0C074A
:108C300092F80CC087EA0C071773A2688A42EED834
:108C40000146FFF727FE0028CDD103E02118097B5C
:108C50003154401CA168814202D929688142F5D86B
:108C600028600020BFE700002DE9F04704468A464F
:108C70004FF0870910251046FFF724FE04F12C0061
:108C80001021064601F0E6F931460846FFF702FEDC
:108C9000002834D1B5F1010604EB001292F82C1033
:108CA000CF0900210BE05318491C93F82CC093F80E
:108CB0002D804FEA4C0C4CEAD81C83F82CC0B142F2
:108CC000F1DB0FB14B4600E00023511911F82B2FB7
:108CD00083EA42020A70A0B1401C0228DCDB0020BB
:108CE000C4F800A0C4E90105102104F11C0001F042
:108CF000B1F9102104F10C0001F0ACF90020BDE83D
:108D0000F0872C340FCC84E80F0001203C3CC3E7F3
:108D10002DE9F0418846416815460446112906D2DE
:108D2000A068102803DC04F10C06814228DD102025
:108D3000BDE8F081D4E90101884212D1002005E0AC
:108D400021180A7B0B7F5A400A73401CA16881429C
:108D5000F6D804F11C013046FFF79CFD0028E7D14E
:108D60006060A1680F1AAF4200D92F4630443A46DE
:108D70004146FCF702FC6068ED1B3844B844606073
:108D8000002DD7D10020D3E770B51A4C05460188D5
:108D9000E088132923D006DC102913D0112917D11C
:108DA0002078B0B117E052291FD0552910D1A979E8
:108DB00000290DD1132176DF002809D0BDE87040CD
:108DC000FDF7BEB8FDF7C2FEA888E0800020A070C5
:108DD00070BDFCF7F5FF4FF6FF70E08070BD00231B
:108DE000044A194614327FDFE6E700231A46194683
:108DF000A9DFE1E7342C0020F0B58BB002274FF05B
:108E0000010E04468DF80C708DF812E00889ADF85B
:108E100014004889ADF8160001F10C0000260896F0
:108E20000690ADF8207007A8ADF8226009900D46B5
:108E3000618A208808AAA5DF18B1616AC9B188478C
:108E400017E09DF81C0010F0010F12D0ADF8106073
:108E5000208803A9A8DF002812D1297B0D2947D239
:108E6000DFE801F046131A1D1F2123463210252783
:108E7000290040F2FD10ADF81000208803A9A8DFFA
:108E80000BB0F0BD8DF8006001E08DF800E0226AC3
:108E900069462046904715E08DF80070F7E70320FB
:108EA00021E004201FE005201DE006201BE00B2030
:108EB00019E00C2017E003220C212046FDF780FB6F
:108EC0000028DDD10020DBE76889032805D20322D2
:108ED00008212046FDF774FBD2E7B5F80D00ADF888
:108EE000040018B107208DF80000D0E70820FAE749
:108EF0000322EEE770B504460B78012224480D2BBF
:108F000020D2DFE803F0292B2D310717203B403614
:108F10001F2F3300FEF732FD0421FFF7E6FD024666
:108F200004212046FDF74CFB00280BD0BDE8704023
:108F3000FDF706B8FEF79EFF08B1FDF701F8FEF752
:108F40000BFD28B970BDFEF795FF08B1FCF7F8FFDF
:108F5000BDE87040FEF792BE062108E0027170BDC8
:108F6000022104E0032102E0042100E00521017157
:108F700070BD2046BDE8704000F00CB84270898892
:108F80000181418170BD00214170018170BD0000EF
:108F9000342C00207CB5174A012314790022072CB9
:108FA00012D2DFE804F011040A1222181C00124B3E
:108FB000CDE900320223012204E0104ACDE900236A
:108FC00001230222FFF7B2F97CBD0D4ACDE900234F
:108FD00006230A22F6E7BDE87C4000F015B8094BED
:108FE000CDE9003205230922ECE7BDE87C40FCF71F
:108FF00005BF0000342C0020B17D0700557A070022
:10900000E57A0700B177070070B5054619B10A790E
:109010008868114601E000210846FEF741FD134C27
:1090200002280ED0032806D0042814D006220B21D3
:109030002846FDF7C5FA00F0A5F8E1680844E060AD
:1090400070BD07220B212846FDF7BAFA0028F2D09E
:10905000FCF776FFEFE701220B212846FDF7B0FA77
:1090600008B1FCF76DFF0120E070E4E7342C00202C
:1090700038B520B18178891EC9B2001D01E00021F8
:109080000846FEF70DFD0F4C022812D003280AD027
:10909000042810D00098C1B20B20FFF749FD01460B
:1090A0000B2000F0A5F900F06DF8A1680844A0605D
:1090B00038BD0721F4E701210B2000F099F90120C8
:1090C0002070F0E7582C0020F0B58DB06846FDF711
:1090D00007FD9DF80000012802D008200DB0F0BD6A
:1090E0004FF440560199B068FEF730F91549896888
:1090F000814201D00B20F1E7134D124C0127883C2F
:10910000EF70206808B9606808B10620E6E70A2019
:109110002870182106A8FCF749FA0A48AF70F43005
:1091200009904FF480500A90A0680890B0680790AA
:109130000198069005480B9006A800F025F800203D
:10914000CCE7000024320020102C0020119C0700E6
:1091500008B50A4601466B460848FFF71CFA08495D
:10916000009B01280A681A440A6003D0002802DA2A
:109170004FF0FF3008BD002008BD0000004900206E
:10918000C42C0020FDF7BCBE38B504004FF0FF3002
:109190001CD0E168002919D06168002916D00C485C
:1091A000FFF7E8F920690090D4E90010D4E9023211
:1091B000FDF7ACFE30210748FCF7F8F905480649F1
:1091C00041606169816005490020086038BD000088
:1091D00000490020D84D0020E5850700C42C002060
:1091E00010B50A48FDF71EFD012807D0411C07D025
:1091F000022808D00028F4D1042010BD022010BDA0
:109200004FF0FF3010BD032010BD0000D84D0020EE
:1092100070B50D00044602D10020FCF791FE14B990
:109220000020FCF78DFE2878207069886170090A9B
:10923000A170A988E170090A2171E8886071000AAB
:10924000A07170BD10B58178022942D3C4780D2C6D
:109250003FD2DFE804F03E070A1018202C3E3E36CD
:109260000D14300000231B4A2DE001231A4A2AE086
:1092700001231A4A27E0BDE81040FCF723BEBDE8F1
:109280001040FFF7F5BEFEF779FB0421FFF750FC15
:109290000146042011E0FEF75FFB04460521FFF7BD
:1092A00047FC0146052000F0A3F8002C11D0BDE8D2
:1092B0001040FEF7E3BC03210C20BDE8104000F095
:1092C00097B8074A012301462046BDE81040FFF742
:1092D00051B810BDB17D0700557A0700E57A070047
:1092E000B17707002DE9F041204C0025012765707A
:1092F0001F4E32E0AA2806D0E17859B1AB2807D03A
:10930000AC2804D004E0A7706560E57025E0AA20D1
:10931000E57001E0AB2808D0A178F1B1012906D0B1
:10932000022908D0032918D109E0E77015E0B070D0
:109330000220A07011E0F0700320A07004E06168CA
:109340007218491C107161606068B178801C81429C
:1093500003DCA5700648FFF775FF04480C3000F0E9
:1093600051F8411CC6D1BDE8F0810000582C002006
:109370005843002010B50C6889680868431C0B60CE
:10938000225410BD2DE9F04107460E460C46002040
:1093900008E0395CAA2901D0AB2901D1641CA4B230
:1093A000401CC0B2B042F4D3A41CFF2C1CD8AA208D
:1093B00000F08CF9E0B200F089F9102000F086F995
:1093C00000250FE0785DAA2801D0AB2806D1AB209C
:1093D00000F07CF9785DAA2808D0AB2000F076F97F
:1093E0006D1CEDB2B542EDD3BDE8F081AC20F5E7E0
:1093F00008B58DF800008DF8011002216846FFF7CE
:10940000C1FF08BD00B572B6FCF775FB62B600BDC2
:109410002DE9F0410446FCF7C9F8062223A12046B5
:10942000FCF7ABF84FF08050D0F81011802930D005
:10943000D0F81011B1F5807F2DD0D0F81011B1F512
:10944000007F2AD01BA500BFD0F80C11102926D010
:10945000D0F80C11202924D0D0F80C01402822D0BB
:1094600015A72846FCF7ADF8C6B2A01D324629461E
:10947000FCF783F8B61DF5B23846FCF7A2F8C6B281
:10948000601932463946FCF778F8A819C0B2BDE831
:10949000F0810AA5D8E70BA5D6E70CA5D4E70DA760
:1094A000DFE70DA7DDE70DA7DBE700006E524635CD
:1094B000322F00003F3F3F003F3F00003132382F46
:1094C000000000003235362F000000003531322F09
:1094D0000000000031360000333200003634000056
:1094E00010B504460848102200212060FCF77AFCE1
:1094F00028B91022FF212068FCF774FC08B1002075
:1095000010BD012010BD0000E0FF070070B5064649
:109510000D480125044606220021FCF763FC28B90A
:109520000622FF212046FCF75DFC08B1074C002510
:1095300020683060A088B0801DB9707940F0C0000C
:109540007071284670BD0000F0FF0700A4000010F5
:109550002DE9FC41684600F037F810B96846FFF77E
:10956000D5FF002069460A5CD2430A54401CC0B2B1
:109570000628F8D39DF80500124D40F0C0008DF884
:1095800005000024884600BFC4F1050718F807004D
:109590000009FFF737F804EB4406A85518F8070050
:1095A00000F00F00FFF72EF87119052C487007D056
:1095B0003A20641C8870062CE6DB0248BDE8FC817A
:1095C0000020F6E7DC48002070B506460D4801256E
:1095D000044606220021FCF705FC28B90622FF21DB
:1095E0002046FCF7FFFB08B1074C002520683060DF
:1095F000A088B0801DB9707940F0C0007071284615
:1096000070BD000080100010A400001070B50A4C5E
:10961000207800280FD060780028FCD104204FF07B
:10962000E0210025C1F880010220FCF7B5F800F028
:10963000AFF96560257070BD842C00203EB51E49D1
:10964000012200240A704C704C6048B901210820A6
:10965000FFF79BFA19480068000A10F0010F26D0A6
:1096600008208DF80000FF208DF801008DF8030020
:109670008DF80200124802908DF80440684600F010
:10968000BDF910480421C0F804134115C0F80413B3
:109690000220FCF781F806210220FCF7B4F8022032
:1096A000FCF790F803210620FFF76FFA3EBD06494C
:1096B000022008603EBD0000842C002010050050F0
:1096C00000E0D701002000402007005000F0E6B97C
:1096D00010B5044602E0641C00F0E0F92078002890
:1096E000F9D110BD3EB5194D0024287830B1687805
:1096F0000028FCD16C602C70FFF788FF01202870D7
:109700006C706C6008208DF8000006208DF8010058
:10971000FF208DF803008DF802000D4802908DF8AF
:109720000440684600F06AF90A480421C0F80413AE
:109730004115C0F804130220FCF72EF80221084658
:10974000FCF761F80220FCF73DF83EBD842C0020B8
:1097500000E0D70100200040014948607047000048
:10976000842C002070B5012670044FF0E021002504
:10977000C1F88001084C4010C4F84803C4F808033D
:1097800066602F20FBF746FEA660044C2F20256163
:10979000FBF740FEE57070BD00100140D82C0020A2
:1097A00010B5064A14210C20FCF708FC002803D051
:1097B000BDE81040FCF7C4BB10BD0000B02F002076
:1097C00010B50121202803DA1D4A8140114004E030
:1097D000402803DAA0F12002914041B1002809DAC3
:1097E00000F00F0101F1E02191F8141D06E042F2B2
:1097F000010010BD00F1E02191F800144909082989
:1098000014D299B1012911D004290FD005290DD006
:109810000C4A946800F01F0301219940400944B1AB
:1098200052F820300B4342F8203007E042F20200A9
:1098300010BD800000F1E020C0F80011002010BD34
:10984000FC06FFBC444E00202DE9F0410746806A2B
:1098500014468846C8B3002531E000BFB96A05EB5D
:10986000450001EB8006B088801CFE2802D90C2040
:10987000BDE8F0812288401C08F8020020881622EA
:10988000401C80B2208008F800202088401C80B254
:10989000208000EB0801308800F0C2FA21880844DB
:1098A00080B22080B28842B1B16871B14044FBF708
:1098B00064FE2088B188084420806D1CEDB297F8C2
:1098C0002C00A842CAD80020D2E7FFE70720CFE744
:1098D000FCF736BB00B597B0204810902048119097
:1098E00010A92048FCF7BAFD08B1FCF729FB40217C
:1098F0006846FBF75BFE1CA16846FCF737FF1CA11E
:1099000002A8FCF733FF1FA108A8FCF72FFFFFF701
:109910001FFE014604A8FCF729FF142112A8FFF737
:1099200077FD12A906A8FCF721FF9DF83C0020F066
:109930000F00401C20F0F00010308DF83C009DF826
:109940003D0020F0FF008DF83D006846FCF768FE02
:10995000002801D0FCF7F4FA17B000BDF58E07001F
:10996000D19807003043002052696761646F00009E
:1099700052696761646F2053656375726520444660
:1099800055000000332E322E3020283432290000BA
:1099900070B516480024164904700120C86048605C
:1099A00014480460601EC1F8080312490C310860B5
:1099B0001049143108600F49083108600D49103111
:1099C00008600C486C3004600B4D2878202802D2C7
:1099D0000321FFF7E3F86878202802D20321FFF77C
:1099E000DDF82C606C60AC6070BD00008C2C002039
:1099F0000020004000250040F048002070B5040021
:109A000042D0FFF7C5FF6078202801D21F490860C7
:109A10001E4E20780836202804D23060207803219A
:109A2000FFF7BCF82079012588B1A078FFF7BFF8CF
:109A3000E0780021FFF7B2F81449E078091D0860CA
:109A40001249A078091F086010486030056010486E
:109A50004FF0FF31C0F808130C4AA16818321160AA
:109A60000A4A04210C3A1160C5604560316820291A
:109A700003D205600021C0F80811064894E80E00E2
:109A800080E80E000448057070BD00000C25004001
:109A900000200040F04800208C2C002070B50646C5
:109AA0001048007800281CD00F480168202918D2DF
:109AB0000E4C0125A5600068FFF779F80A481030C0
:109AC000C0F80060D4F81C010128FBD10020C4F8C4
:109AD0001C01E560064803214078BDE87040FFF7AF
:109AE0005DB870BD8C2C00200C250040002000408B
:109AF000F048002018B10349C860002070470E20CC
:109B000070470000582D00201CB5034901910091B9
:109B1000694660DF1CBD0000002C002070B50E46B9
:109B20000546144614211046FBF740FD0120208015
:109B30000021216121732672657205B1A072002097
:109B400070BDFCF7EBB9000030B409B18C0702D04E
:109B5000072030BC7047074C0125A1606280064990
:109B6000636010DF0028F4D1257030BC1620FFF7A9
:109B700027BE0000582D0020439B070011DF08B1CD
:109B8000012100E00021014A11707047582D00208A
:109B900018B103490861002070470E20704700008B
:109BA000582D00202DE9F05F8A460446DAE90110BD
:109BB00000680D1A28D0A0880027A84200D20546C8
:109BC00004F1D50640F2FF38B4F806B014E021895C
:109BD000A1EB0B0000EA08005146305C81460246CA
:109BE0002046FFF7C7FB218901EA080106F801902A
:109BF0002089401C20817F1CAF42E8D3A088401BF5
:109C00000004000CA08000D00620BDE8F09F0000FA
:109C100070B5084C0D462B46E268A1691144024616
:109C20000020FEF707FB002803D1E0682844E0602D
:109C3000002070BD102C0020FEF704BB70B50C0096
:109C4000054602D10020FCF77BF915B90020FCF78E
:109C500077F9207828702088000A68702068000C46
:109C6000A8702068000EE87020792871207A687149
:109C70002089000AA871A068000CE87170BD00007E
:109C80002DE9F84F204C00256846D4E903B6FEF7CD
:109C900033FA8046FEF73AFD0746A946B8F1000FB1
:109CA00025D00023009ACC46E06819E007680146F9
:109CB000974202D9BA1A026014E0C1F800C0D1F884
:109CC0000C80D21BC8693B448A46B8F1000F07D00C
:109CD000F71827F07F47C1E90178CAF81C500D46F4
:109CE0000028E3D1E0602846FEF76EFD04E0284638
:109CF000FEF76AFD00B917B15846FDF7C9F984F8B7
:109D00000490BDE8F88F0000D82C00200D4B10B552
:109D1000D96831B102680C68A24204D8A21A0A605C
:109D2000C161D86010BD0B4603E00B46C969121B28
:109D300021B10C689442F8D3A41A0C600260C1618E
:109D4000D86110BDD82C00202DE9F0411D4DEC68E4
:109D5000002C35D01C48002700682969B846401AF5
:109D600020F07F462068B04215D82246361A0744B4
:109D7000E469107C68B182F810806B6933B1D2E974
:109D80000501984728B1FCF7DBF802E0D2E905109D
:109D90008847002CE6D16978A878814206D1401C1A
:109DA000C0B2A870022801D185F802800548A978C0
:109DB000183040F82170BDE8F0411420FBF718BDC1
:109DC000BDE8F081D82C00200415014030B50023F7
:109DD00006E000BF10F8014B11F8015B6C40234313
:109DE000521EF7D20BB1012030BD002030BD000063
:109DF00010B501460848FBF795FE07480C38417836
:109E0000002908D1012141700021BDE81040034A1A
:109E10000846FCF701B910BD642C0020E59207004C
:109E20000870000A487002207047000038B51549D4
:109E30004888A0F57F42FF3A23D04A78124C521C42
:109E4000D2B24A70237B93420AD3091D75DF0028E2
:109E500017D0A169002914D001B0BDE830400847EF
:109E600000254D70217C29B13B2176DF10B1A1691D
:109E700001B188476169002903D08DF80050684618
:109E8000884738BDF82C0020284E0020EFF30580CD
:109E9000C005C00D13D0103840B2002806DA00F01B
:109EA0000F0000F1E02090F8140D03E000F1E02035
:109EB00090F800044009022803D0062803D00220AD
:109EC0007047002070470120704742788378521C09
:109ED000D2B2934200D100220378934201D10020F4
:109EE00070470A704168407800EB400001EBC00009
:109EF00070472DE9FC411646DDE90854CDE90054D0
:109F00001F468046022200F00CF8002807D1CDE958
:109F100000543B4610223146404600F002F8BDE8AE
:109F2000FC812DE9FC5F0026DDE90C4B9946924649
:109F30008E4680462788354630E0D8F80400002257
:109F400000EB850069460068019001A865DF0028E4
:109F500030D19DF8000050451FD10EB1002100E026
:109F60000221228808441118594522D846B9521CAA
:109F700090B2208009F800E02088401C2080012653
:109F8000218801A801EB0902694665DF002811D18B
:109F900020889DF80010084420806D1CB8F800004F
:109FA000A842CADC56B12088C01B401E80B2FF28E0
:109FB00002D90C20BDE8FC9F09F807000020F9E752
:109FC00010B586B004A8FFF78BFA60B317490C22CE
:109FD00001F10C001023CDE90212CDE900030021AC
:109FE0005C30049AFEF70FF8D0B9104A30232C32B7
:109FF0001446114602F13C00FDF7B8FF80B90B4949
:10A0000005AA1C3101F14C00FDF7C7FF40B90598C6
:10A01000102805D1102221460498FFF7D7FE10B171
:10A020000B2006B010BD0020FBE70000C831002067
:10A0300010B5074C48DF08B1FBF782FFFBF7AEFF16
:10A04000A078032803D0042801D00528F2D110BD40
:10A05000002C0020002201E000F8012B491EFBD259
:10A060007047000000100200020000000000000025
:10A070000000000000000000543100200200000039
:10A0800000000000000000000000000002000000CE
:10A0900000000000000000000000000000000000C0
:10A0A00004000000000000000000000000000000AC
:10A0B000000000000202FBC2FCA8CC93304C5617F3
:10A0C0000000C841084E0020E8A00700002C002036
:10A0D000700100001056070000A10700702D00203D
:10A0E000E0400000D85A0700510533CA9DC6A403BA
:10A0F0002AFFFF320205FF59440020411490D0038B
:020000041000EA
:041014000050070081
:020000041000EA
:0410180000D00700FD
:04000005000754019B
:00000001FF
